:020000040020DA
:10000000203100208D0220005F8E20005D8E2000B8
:100010005D8E20005D8E20005D8E200000000000BF
:1000200000000000000000000000000043A12000CC
:100030005D8E20000000000061A12000B79020002C
:10004000C9902000CF902000D5902000DB902000A8
:1000500000000000BD902000C39020005D8E2000B5
:100060005D8E200000000000000000000000000085
:1000700000000000000000005D8E20000000000075
:1000800000000000000000005D8E20005D8E20005A
:100090005D8E20005D8E20005D8E20005D8E200034
:1000A0005D8E20005D8E20005D8E20005D8E200024
:1000B0005D8E20005D8E20005D8E20005D8E200014
:1000C0005D8E20005D8E20005D8E20005D8E200004
:1000D0005D8E200000000000000000000000000015
:1000E0000000000000000000000000000000000010
:1000F0000000000000000000B51F2000C51F200008
:1001000000000000000000000000000000000000EF
:1001100000000000000000000000000000000000DF
:1001200000000000000000000000000000000000CF
:1001300000000000000000000000000000000000BF
:1001400000000000000000000000000000000000AF
:10015000000000000000000000000000000000009F
:10016000000000000000000000000000000000008F
:10017000000000000000000000000000000000007F
:10018000000000000000000000000000000000006F
:10019000000000000000000000000000000000005F
:1001A000000000000000000000000000000000004F
:1001B000000000000000000000000000000000003F
:1001C000000000000000000000000000000000002F
:1001D000000000000000000000000000000000001F
:1001E000000000000000000000000000000000000F
:1001F00000000000000000000000000000000000FF
:1002000000000000000000000000000000000000EE
:1002100000000000000000000000000000000000DE
:1002200000000000000000000000000000000000CE
:1002300000000000000000000000000000000000BE
:1002400000000000000000000000000000000000AE
:10025000000000000000000000000000000000009E
:10026000000000000000000000000000000000008E
:100270005D8E2000991E2000BD1E20003D1520002F
:1002800025212000511020005D8E2000FF224824EF
:1002900008B5084B08481A60084AE369121A084969
:1002A00098470848084AA369121A0021984700F0A5
:1002B0003FF8FEE7B4200D4040000020210200205E
:1002C000BCAC2000280200201B29002008B500F04B
:1002D00021F80022014B1A7008BD00BF60180020F1
:1002E000024A13781843107000F01CB86018002000
:1002F000034A137823EA0000107000F013B800BF1F
:1003000060180020024A13785840107000F00AB8B4
:1003100060180020024A136843F00F03136070470F
:1003200000B40D40014B1860704700BF3CB00D4059
:10033000F7B500F0DBFF01F095F800F0F1FF00F0F9
:10034000EBFD01F0DDFE08F078FF01F083F8FFF728
:10035000BDFF022008F086FD02F03EFE00F0B2FF75
:1003600000F0CCFB002000F0CBFE012000F0C8FE26
:100370004649002000F090FF02F076FF62B60420AC
:1003800008F070FD424808F0CCFE424808F0C9FE73
:1003900000F05EFD404802F06FF8404B404C18689A
:1003A00008F0BFFE3F4802F067F83F4B0025186891
:1003B00008F0B7FE3D4802F05FF83D4B3D4F18682E
:1003C00008F0AFFE002002F073FF01F08BFD00216A
:1003D000394802F08FFE02F0F5FC0821684601F072
:1003E000B5FE9DF806309DF8076046EA03266B4689
:1003F00003CB20603148616002F03EF8615D384611
:10040000013502F039F8072DF8D12D4FE1792D484B
:1004100002F032F8FD6A4AF6CD310220A847314693
:100420000320A84719210120A84769467B6B0822B1
:100430000B20984701F0A6F801F0C2F807F01AFA6D
:10044000214A236813606368536006F041FF00216E
:100450001E4802F04FFE01F027F800211C4802F070
:1004600049FE08F0BFFE1B4808F0ABFE00F030FF6D
:10047000082008F0F7FC00F031FF02F0C5FD10F095
:10048000FF0FF8D101F0D2FDF5E700BF21322000C7
:10049000BAA82000D6A82000EEA8200048A8200076
:1004A00013290020F5A8200060A82000FCA8200047
:1004B0007CA8200021A920009C00002003A9200086
:1004C00080A7200027A92000E42000203C01002074
:1004D00050000020ACA82000813801289ABF024BB0
:1004E00018780020704700BF6118002010B50388FD
:1004F00004464BB1FA2B0BD1822907D108F0EDFC51
:10050000054B00201B689847FA232380012002E056
:1005100000230380032010BD641F0020014802F067
:1005200001BE00BF4000002030B5812885B00D46D7
:1005300007D0431E032B73D94FF0FF34204605B07C
:1005400030BD00295FD00022804B10460093062169
:10055000052301F04BFE00227D4B02211A604FF46F
:10056000687303A8ADF80C3008F0A8FC0028E3D1AC
:1005700003A9292001F0D0FE0028DDD19DF80C4010
:1005800004F00F04032CD7D1012203A9AA2008F0FC
:10059000B3FC0028D0D19DF80C3003F0F003502BB1
:1005A000CAD1012203A9A12008F0A6FC0028C3D1CA
:1005B0009DF80C30674A03F010011170664A03F091
:1005C000030313704FF6A473ADF80C30FF232146DC
:1005D00003A88DF80E3008F071FC0028ACD1A223DE
:1005E0008DF80E00214603A8ADF80C3008F066FC2B
:1005F0000028A1D108F071FC044600289CD10122FA
:10060000564B1A709AE7A023022103A8ADF80C30CC
:1006100008F054FC044600288ED1504B1C708DE726
:100620004E4B1B78002B87D0032810D14C4A04A8CE
:100630001368022123F080031360A62320F8043DF1
:1006400008F03CFC003018BF0120444276E7042843
:1006500025D1122902D002293FF66EAFA123022133
:1006600003A88DF80C308DF80D5008F027FC0446D7
:1006700000287FF461AF122D05D10122354B1A708D
:10068000354B0222BDE7012D06D0022DF8D0002DFA
:100690007FF454AF304BC1E72F4B1D704EE7C1F3D1
:1006A000072501288DF80D108DF80E5049D1A4238F
:1006B0008DF80C30032103A808F000FC00287FF41B
:1006C0003BAF41F2A623022103A8ADF80C3008F09D
:1006D000F5FB044600287FF42FAF224A022113685D
:1006E000214823F08003136052F8203C23F080035C
:1006F00042F8203C52F81C3C23F0800342F81C3C9A
:1007000052F8183C23F0800342F8183C52F8143C8D
:1007100023F0800342F8143C072200F053FE2146E8
:10072000124802F0E7FC0E4A07211368022043F04A
:1007300080031360042200F0A3FE04220C4B1A6015
:10074000FCE60228B6D1A223B2E700BFA0860100D2
:10075000641F002062180020631800206118002028
:1007600010B40D4020B40D401D05200040000020B5
:1007700000E100E007B53F4B1B783BB1012805D1F4
:10078000022201A9AC2008F0B7FB10B14FF0FF30F6
:100790003AE002220DF10601AE2008F0ADFB002880
:1007A000F4D19DF805309DF804109DF8072041EA2A
:1007B00003219DF8063043EA02232F4A1278022AC9
:1007C0009CBF2E4830F812002D4A127802B9000161
:1007D00041435843890A4FEA90221DBF20F47F709D
:1007E00020F00300B0FBF1F0084601304308402B35
:1007F0000DD84FF4F9704FF4D973484303FB12003E
:1008000000F50050C0F38F3003B05DF804FB802B7F
:1008100005D84FF4057040F2D1234843EEE7C02BD2
:1008200005D840F23F2040F27B334843E6E7B3F57A
:10083000807F05D84FF41C7040F2FE334843DDE75B
:10084000B3F59C7F05D840F26F104FF4FE73484318
:10085000D4E7B3F5CD7F03D8D220FB234843CDE7BF
:1008600040F29A20834203D8182012234843C5E758
:100870000020C5E76118002063180020B4A82000FC
:10088000621800202DE9F04104880646772C20D01C
:100890007E2C3DD0002C4ED102F096FB284D294BEA
:1008A000294FDFF8B08018702C602B6857F8232090
:1008B0002AB9264A13707723338001203EE008F8D6
:1008C000034093680021802098472B6801332B60F8
:1008D000EBE700231E4A1360194A1360184B1B4AAA
:1008E0001B6812789A4204DC194B1B68002BF0D16C
:1008F000E1E7184AD256002A19DA134A002052F8C2
:100900002320104B197802F0CDFB28B97E23D3E7C2
:100910000C4B1B788B42D0D1094B0E491A688B5C6B
:1009200003F07F038B540A4A136801331360044AAF
:1009300013680133D1E7002303800320BDE8F08171
:100940003C020020062900206000002064180020DE
:10095000380200200729002010B40A4B0A491A78EF
:100960000023934203DA51F82340A04208D10749FB
:100970000748CA5C62F07F02CA5410BC02F0D2BBC6
:100980000133EEE7641800206000002007290020F2
:100990005000002010B501240821084808F0C8FACA
:1009A00004220321002000F06BFD054B03221C6094
:1009B0000021044800F006FD204610BD00900D40C7
:1009C00000E100E0990A200008B51021084808F06D
:1009D000AFFA04220220114600F052FD0422054B1A
:1009E00002211A60044800F0EDFC012008BD00BFA0
:1009F00000B00D4000E100E0990A200008B5202178
:100A0000084808F095FA04220521022000F038FD7C
:100A10000422054B02211A600448052200F0D2FC92
:100A2000012008BD00B00D4000E100E0990A20005F
:100A300008B54021084808F07BFA0422062102206C
:100A400000F01EFD0422054B02211A600448062214
:100A500000F0B8FC012008BD00B00D4000E100E04E
:100A6000990A200008B58021084808F061FA04229C
:100A70000721022000F004FD0422054B02211A6028
:100A80000448072200F09EFC012008BD00B00D4084
:100A900000E100E0990A200038B5054611480C46EF
:100AA00008F0DFFBE8B110210E4808F0C8FB35B9AB
:100AB000032C16D10C48BDE83840FFF74DBF022D7E
:100AC0000FD1042C01D10948F5E7052C01D10848C4
:100AD000F1E7062C01D10748EDE7072C01D10648C4
:100AE000E9E738BD40020020D8A62000B8A62000C3
:100AF000C8A62000E8A62000A8A6200000210148E2
:100B000008F09DBB40020020FF2310B5064C4FF4B7
:100B1000FA60236000F03AFA30220021062000F04B
:100B2000CBFC0023236010BD00920D40802870B5DF
:100B30001ED100240F4E104D3368224623F080034F
:100B400033602B68072143F080032B600B4B20465A
:100B50001C6000F095FC3368012223F040033360F1
:100B60002B68062123F040032B60204600F088FC10
:100B7000002070BD20940D4000940D4000920D4067
:100B8000813801289ABF024B18780020704700BFB7
:100B90006518002000B5812889B06BD1002967D085
:100BA0000022384B104600930621052301F01EFB5E
:100BB00002A91622AA2008F03CFA014610B14FF013
:100BC000FF3151E09DF808009DF809202E4B02EB03
:100BD00000221A819DF80A009DF80B2002EB0022EA
:100BE0005A819DF80C009DF80D2002EB00229A819D
:100BF0009DF80E009DF80F2002EB0022DA819DF88F
:100C000010009DF8112002EB00221A829DF81200BC
:100C10009DF8132002EB00225A829DF814009DF8E3
:100C2000152002EB00229A829DF816009DF81720ED
:100C300002EB0022DA829DF818009DF8192002EBE1
:100C400000221A839DF81A009DF81B2002EB002257
:100C50005A839DF81C009DF81D2002EB0022012004
:100C60009A830A4A10701970084609B05DF804FBAF
:100C7000064BF8E70028A2D10329A0D8024B19702F
:100C80000146F1E7A0860100480200206518002017
:100C9000F7B55F4B1B78002B00F0B780431E012B8C
:100CA00000F2B380002502AE46F8045DC7B23046BC
:100CB00008F0DBF9421C4DD0564C0198638AB4F918
:100CC0001C20C31A208A022F00FB03F04FEAE033F6
:100CD000B4F91A001A444FEAC02090FBF2F018440D
:100CE000606000F08E80F423227801958DF800304A
:100CF000032A00F28A80DFE802F0022F353B34231A
:100D000041F25C258DF8013001F05AFA0222694661
:100D1000772001F01DFB002877D1284600F036F936
:100D200003226946F62008F084F900286DD19DF869
:100D300001509DF800302D0205EB034520789DF809
:100D40000230C0F108001D440541304608F08DF91D
:100D5000431C12D103B0F0BD742341F614658DF825
:100D60000130D1E7B42343F284558DF80130CBE74D
:100D70008DF8013046F26445C6E76368B4F90C208B
:100D8000A3F57A6303FB03F103FB02F0B4F914202B
:100D900009134A43121402EB603202329210E089C6
:100DA00002F500425043C20BB4F916004143B4F9B6
:100DB0000A004343B4F90800DB1203EBE12303EB21
:100DC00080034CF250300233A5EBA30358434DBFD0
:100DD000B0FBF2F04000B0FBF2F04000031203FB66
:100DE00003F240F6DE3353430B4A1B14424303EB3A
:100DF000224303F6CF6300EB23100A2390FBF3F0AA
:100E0000A8E7083040F30F10A4E74FF0FF30A1E748
:100E1000651800204802002043E3FFFF044B1868D8
:100E2000C0F30720030904BF1030C0B2704700BFF1
:100E30001C300D40054B1868C0F3C21001289ABF42
:100E4000C0F1020040034FF40040704714300D40E1
:100E50002DE9F047482588B0FFF7E0FF164B07461D
:100E60001C68AB6898476B68804698470546FFF753
:100E7000E1FF064600F08EFA814600F097FA8246BE
:100E800000F044FAB60A04F00103AD0AC4F34004CA
:100E9000CDE905A00393CDF810900294019600953A
:100EA00007F00F03C7F307124146044801F0E4FAC4
:100EB00008B0BDE8F08700BF1C300D40A5A9200098
:100EC0002DE9F04800F086F8114B4FF0000BD3E904
:100ED00000673A46B04238BF7A1C15464BEA000418
:100EE000C3E900450B49D1E900BCBBEB06026CEB42
:100EF0000703161943EB0507C1E9006701F002FF7C
:100F000018B1BDE8F04801F081BEBDE8F08800BF2F
:100F10003002002028020020E0210D4B0D4A5A60CB
:100F20000D4A82F82310002207219A6019600B49AC
:100F30000B6843F001030B60094B1A60042243F86D
:100F40000C2C012243F8082C0F22DA62704700BFF4
:100F500010E000E047E8010000ED00E008200D404F
:100F60000C000340034BD3E90023100A40EA03605E
:100F7000704700BF30020020034BD3E90023D00BA1
:100F800040EA4340704700BF28020020054B18602C
:100F90001C3B1A6842F001021A601A68D207FCD49E
:100FA000704700BF2800034010B5064C236823F0AB
:100FB00001032360FFF784FF236843F001032360EC
:100FC00010BD00BF10E000E0014B1868704700BF83
:100FD00068020020064B18685A6808331B681B0417
:100FE00043EA0223034A0343106843EA0060704760
:100FF00040500D404C500D40014608B5104A136852
:10100000DB07FCD572B6FFF7E5FF0B1A062BD8BF3E
:10101000C11D0C4B0A0E1A60C1F3074243F8042CA1
:10102000C1F3072243F8082CCAB243F80C2C62B66D
:101030004FF40032044B1960044B1A6108BD00BF25
:1010400050500D404C500D406802002000E100E07F
:1010500008B500F0D3FF0022064B1A604FF40032AF
:10106000054BC3F89021C3F89020BDE8084002F07A
:1010700077B800BF6802002000E100E0064B1B6863
:101080001B075FBF054B186880F00800C0F3C00065
:1010900048BF0020704700BF18C0004018D0004073
:1010A0002C23154A70B503FB00234FF6BF72DC6892
:1010B0000546236C626413F050020DD00F4EA369F5
:1010C000DB0600D570BD56F825301BB12068C0B2D4
:1010D0009847F4E72368F2E713F4D06FF2D04FF4A7
:1010E00040732363FF236360E36AE262E362236B7E
:1010F00043F001032363E5E718A720006C020020FA
:1011000001282DE9F74F064600F2B4802C2545430F
:101110005A4F7C1994F92080B8F1000FC0F2AA80D0
:1011200094F92290B9F1000FC0F2A480544800F065
:10113000D7FF544A79591368E5680B431360536825
:10114000616894F921A00B4353609368A1685FFA2A
:1011500089FB0B4393600023C5F8C83F23690AEB62
:10116000C8021A6094F92330227D00939DF8003064
:1011700058461946019300F08DF9019B0822194643
:10118000584600F07DF901233F494FEA0939009A9A
:1011900059F8010003FA02F2024349F801204FEA2C
:1011A000083858F8010003FA0AF2024348F801200F
:1011B0005022AA63AA6B94F9240042F4D062AA6375
:1011C00002226A634FF440722A63A26900286A62AD
:1011D000E269AA624FF07002EA620D4614DB94F9EC
:1011E00025102A4A41EAC0041460020354598B4076
:1011F00023435351C9B20022C0B200F041F9244A3E
:10120000136843F4004313602C2303FB067393F924
:101210002640002C1BDB93F927A05FFA84F85FFAC5
:101220008AF901224946404600F034F9012324039B
:10123000625903FA0AF313436351082249464046B0
:1012400000F01EF9124A136843F4804313602C2304
:1012500003FB0676F268136B43F00103136301226C
:1012600096F82830590903F01F0302FA03F3094ADC
:1012700042F8213003B0BDE8F08F00BF18A720006E
:101280007D10200028200D4020940D4004410D4089
:1012900030D0004000E100E001289CBF014B43F842
:1012A000201070476C020020012808D82C22044B23
:1012B00002FB0030C3689A699206FCD4196070473B
:1012C00018A720000022014B1A60704700500D4003
:1012D0000822014B1A60704700500D40A022024BBB
:1012E0001A6050221A60704700500D40014A024BAC
:1012F0009A6070470000200000ED00E0024B186883
:10130000C0F38150704700BF04200D4008B5FFF7BF
:10131000F5FF024B53F8200008BD00BF70A7200066
:1013200038B5164D164C2B68012223F040032B6074
:101330002368062123F040032360032000F0A0F877
:101340002B68012223F080032B602368072123F000
:1013500080032360032000F093F80A4B0A4A0B49EC
:101360001A600B4A134610680842FCD11A685101F2
:10137000FCD41A685201FCD538BD00BF20C40D4012
:1013800000C40D4000200D400101020000000101D9
:1013900004200D40034B04481B6803F00703184169
:1013A000704700BF04200D400048E801034B04488B
:1013B0001B68C3F302231841704700BF04200D408F
:1013C0000048E801024B02EBC10243F822007047DB
:1013D00074020020F8B507460E460024084D05EBC0
:1013E000411547FA04F3DB07E1B204D555F8243080
:1013F0000BB1304698470134082CF2D1F8BD00BF3C
:10140000740200202DE9F04780464FEA0837DFF8E4
:10141000409007F1804505F5592500F0EFFDD5F81E
:10142000186457F809404FEAC80A24FA0AF446EA51
:101430000400E4B24146C0B2F6B204FA0AF4FFF77F
:10144000C9FFC5F81C6447F80940BDE8F08700BF34
:1014500018970D4080220021014807F0B5BC00BF5D
:1014600074020020034B044A1A60044B803A1A604D
:10147000704700BFF402002080400D40F8020020B9
:10148000034B01EBC0011B6843F82120704700BFEC
:10149000F4020020034B01EBC0011B6843F821203C
:1014A000704700BFF8020020024A136843F030037F
:1014B0001360704700700D400E2870B50BD1154BAE
:1014C000154E1C6844F002051D60356825F03F0389
:1014D00043F001033360114E336823F0FF031A43D6
:1014E000114301430E4A316013681B06FCD50D4BB6
:1014F0000D4A1B6812680E2803F0FC0343EA02231E
:1015000008BF054A1BB204BF1560024A184608BF4F
:10151000146070BD34000144F486084008700D402A
:1015200000700D400C700D4010700D40024B18689B
:10153000B0FA80F04009704700B708404FF400420D
:10154000064B10B5064CC3F89021C3F890202068D4
:1015500018B101F0E7FD0023236010BD00E100E0B9
:10156000FC020020064A136843F00203136053682C
:1015700043F002035360936843F0020393607047A3
:1015800048200D4007B50C4800F0AAFDFFF7EAFF20
:101590000A4B1A6842F002021A6000220192019A74
:1015A0000F2A06DD1A6822F002021A6003B05DF805
:1015B00004FB019A0132F1E72D15200054200D4063
:1015C000064A136823F002031360536823F00203F2
:1015D0005360936823F002039360704748200D40E6
:1015E0000B4B1A689207FCD41B685B065FBFED22A9
:1015F000084B1A601A60084B1B6813B1EF22054BA9
:101600001A60064A0120137803F07F0313707047B5
:101610004C860840388808402C860840681800200E
:10162000044B186800F02200A0F1200358425841F2
:10163000704700BF4C860840024B186800F040001D
:10164000704700BF4C860840204B1870002832D0ED
:101650001F4A13681B03FCD51E4B1A6842F0020296
:101660001A601A6842F001021A601A685007FCD525
:101670001A6822F001021A601A685107FCD41A682D
:1016800042F002021A601A6842F001021A601A68F7
:101690005207FCD5104A136823F004031360D2F8F4
:1016A000A83123F00403C2F8A8314FF400520B4BC9
:1016B000C3F890207047084A136843F0040313608E
:1016C0004FF40052054B1A61704700BF67180020A5
:1016D00004200D40048808408C86084000E100E0AA
:1016E000084B93F90020002A09DBED21064A11601E
:1016F0001160E32111601A7862F07F021A700120F4
:10170000704700BF6818002038880840A0F10B011E
:10171000CBB20F2B10B5044613D80B4B1B6813F03C
:101720003F0302D0FFF75CFF012301EB8101074A71
:101730000B3111600BB1FFF7D3FF054B60B21C708A
:1017400010BD4FF0FF30FBE7488608403C8608405C
:101750001E02002010B50C46002900F086801028DB
:1017600000F28580DFE800F009101B22243B44577B
:101770005C727683837B7D547F003E4B1B68003315
:1017800018BF0123236024E005223B4B1B6803F0B4
:101790007F030B3B93FBF2F30B33DBB2F2E7374BE8
:1017A0001A68043B1B6843EA0223EBE7344BF7E774
:1017B00000230B60334B344A1B6803F001030B60BA
:1017C0001268900644BF43F002030B602F4B1B7856
:1017D0000BB900200BE00B6843F00403D2E70020B4
:1017E0002B4B08601B78002BF3D001230B6010BD3E
:1017F000284B29491A680023D2B201EBC3000079B3
:10180000904202D851F83330BCE701330E2BF4D1AB
:101810006FF01703B6E7214B1B685BB2493BB1E79A
:101820001F4B1B6899060FD1FFF75AFF01231D4973
:101830000A68D207FCD51C4A1168493949B20BB174
:10184000FFF7CEFE2160C4E70023F0E7174B93F9C2
:10185000003097E7164B1B7803F07F0392E70B23CA
:1018600090E71A238EE707238CE70220BFE70120C9
:10187000BDE700BF2C8608403C860840CC85084068
:10188000D485084000860840248608406718002058
:101890001F02002040860840B8A720005886084054
:1018A0004886084064860840608608406918002021
:1018B0006618002008B50B4B1B6899060FD1FFF77F
:1018C0000FFF012308490A68D207FCD5074A1168AF
:1018D000C1F300110BB1FFF783FE084608BD0023DA
:1018E000F0E700BF48860840648608404C86084000
:1018F00010B5072861D8DFE800F0040F1A21254150
:10190000475B012903D1FFF7EBFE00203BE00029F4
:1019100055D1FFF765FEF8E7A1F10B030F2B4ED869
:10192000C8B2FFF7F3FE0130EFD103202BE089B2FC
:10193000244BCAB2090A1A605960E6E789B2CAB2F2
:10194000214BF7E731F0070339D1204B11F0010F9C
:101950001A68C1F3800014BF42F0010222F00102B4
:101960001A601B4B11F0020F1A6814BF42F02002DC
:1019700022F020021A60FFF767FEC6E731F001008F
:101980001DD1144B197010BD01F118031F2B16D86F
:101990000D23114A52F83340D800A14204DC02441E
:1019A00012790E4B1A60B0E713F1FF33F2D2ACE7B5
:1019B000C9B20B4B49311960A7E70120E3E70220C8
:1019C000E1E700BFC8850840D08508400086084090
:1019D000248608401F020020B8A720004086084047
:1019E0005886084038B505460C46134A13689B07CD
:1019F000FCD4124B93F90030002B01DBFFF770FE93
:101A0000EE220F4B691E1A601A60A21C43F8102CBC
:101A10002144022000F080FA0A49013C41EA041105
:101A2000022000F08BFA022000F092FA022000F06F
:101A3000A7FA002038BD00BF4C8608406818002077
:101A40003888084002C001C0F8B5224B93F9003035
:101A5000002B18DBFFF7BEFA0446FFF741FEC4F186
:101A6000FF2404F57F04F634FFF7B4FAC442FBD434
:101A70000126194B1B7843B9184C2368990609D5E0
:101A800002210846F8BD0026F3E7FFF713FF002800
:101A9000F2D1F5E7E9230427114D2B6023689A075B
:101AA00003D4013F17F0FF070BD123689B070CD429
:101AB000EE2301212B602B60002EE2D0FFF790FD7A
:101AC000DFE70620FFF762FAE8E7216811F002017C
:101AD000FBD1F1E7681800201F0200204C86084067
:101AE000388808400B280DD1082A0DD161B1074B69
:101AF000074A083111F8010D43F8040B9342F9D15C
:101B0000002070470120704702207047A8850840D8
:101B1000C885084070B5304E336813F0400358D084
:101B20002E4D2C68230605D5ED2200202C4B1A6083
:101B30001A6070BDE4B2042CF6D9023C8C42F3DC8E
:101B4000E4B2032C1ED12B6803702B6843702B6802
:101B500083702968234B493949B219702B68224D8B
:101B600018062B70E0D589B2042005F059FE2978BB
:101B7000032001F07F0105F053FE1C4B1B78CBB115
:101B80002046D6E701190139032000F0CDF9184BA2
:101B9000611E43EA0111032000F0D0F9032000F098
:101BA000D7F9032000F0ECF9032000F0F5F9002844
:101BB000FAD1CEE733685A06E2D533681B0603D55F
:101BC0000C4801F0AFFADBE7ED22054B1A601A6012
:101BD000D6E71846ADE700BF4C8608402888084085
:101BE000388808406918002066180020671800200F
:101BF00002C0010C84000020F8B5294F3D7815F093
:101C000001054BD10124F822264B7F261C605C6025
:101C10009C60A3F59323A3F514731A600922C3F8FB
:101C20009021152270331A600B2203F59B2303F5D4
:101C30009E731A604022A3F59B23A3F5F0731A60EC
:101C40001A6842F020021A60D52243F81C5CDE625A
:101C5000DA61154B1878FFF759FD4FF48042134BAA
:101C600002201E60124B1A6100F07EF91149022019
:101C700000F05AF9032000F077F90E49032000F034
:101C80004BF90D4B1878FFF7DFFC0C48294601F0A3
:101C900031FA20463B7823433B70F8BD0020FCE737
:101CA00068180020A8200D401E02002094860840DD
:101CB00000E100E028880840671800208400002028
:101CC00038B50388044653B340F20342934233D1FC
:101CD0001B4B18781A4638BB822923D1137873B965
:101CE00005F044FD05F0D8FC8021FFF713FF002824
:101CF00005DD80B205F0B4FC124B1B699847124B0E
:101D00001A7852060BD500221A70104B1D68FFF787
:101D100067FCFFF771FFAB0601D0FFF7E1FC40F273
:101D20000343238001200AE01B78002BFAD0064BE6
:101D30001B785806F6D5CFE700230380032038BD73
:101D4000671800207CA820006818002048860840FA
:101D50000B282DE9F74F8A4613D1082A40F08680D8
:101D6000002900F08380424B424A01F1FF3A53F8C8
:101D7000041993420AF8011FF9D1002003B0BDE80D
:101D8000F08F0C2870D1042A70D100296ED03A4A05
:101D90003A491368DFF8F09023F0070313600B68EB
:101DA000DFF8E88043F008030B60D9F80030D8F87A
:101DB00000401068DFF8D8E0DFF8D8C020F07000ED
:101DC0001060DEF80000DCF80050DBB2240243EAC9
:101DD0000563A4B20004234300F47F0003432848B2
:101DE0000668F4B2019400240094DDE9006746EA35
:101DF0000306136823F0070343F0010313600B6825
:101E000043F008030B60D9F80030D8F800101568CB
:101E1000DBB225F0700545F010051560DEF80020F6
:101E2000DCF80050090243EA056389B212040B434F
:101E300002F47F02134302680098D1B2894640EA57
:101E40000308FFF7C7F8B6EB080667EB0907F903C5
:101E500005460C4A0023F00341EA564106F028FDEE
:101E6000281ACAF8000088E7012087E7022085E7E2
:101E7000C4850840A48508401088084004880840AC
:101E80001C8808400048E801148808401888084069
:101E9000248808402088084008B5054B1B7813B9F2
:101EA000044801F03FF90022034B1A6008BD00BF4F
:101EB000671800208400002034880840064B07483B
:101EC0001A68042A1FBF06490A7842F040020A70C5
:101ED00000221A6001F026B92C88084084000020F6
:101EE0006818002008B5094B40220021184606F06A
:101EF0006BFF0121064A074B116050604FF480428E
:101F00005A604FF400425A6008BD00BF0000002034
:101F100004F00F4000E100E003289EBF014B0001E8
:101F2000195070470000002003289EBF024B03EBAE
:101F300000104160704700BF0000002003289EBFD2
:101F4000024B03EB00108160704700BF00000020CF
:101F5000032806D80123034A03FA00F01168084356
:101F60001060704728F00F40032806D80123034A69
:101F700003FA00F0116808431060704720F00F402A
:101F8000032806D80123034A03FA00F01168084326
:101F90001060704714F00F4003289FBF044B03EB01
:101FA0000010806800F0070088BF0020704700BF65
:101FB000000000204FF0FF32014B1A60704700BF55
:101FC00004F50F400122014B1A6070474CF00F409E
:101FD000084B19461A68D002FCD4074B1A6822F441
:101FE00080321A600A68D203FCD41A6842F40032C4
:101FF0001A60704704200D4000200D4010B5094CB8
:10200000226890070DD0084B1A4619684901FCD484
:1020100013685B01FCD5FEF7C7FFFFF7D9FF00236C
:10202000236010BD58200D4004200D4038B5264BCC
:102030001C6814F03F0414D1244D55F8243023B10A
:10204000984770B10134052CF7D1214D2B7843B15D
:10205000FEF7BAFF0446FEF7BDFF201A092800D993
:102060000CB930BF27E01B4B1A6822F400321A600B
:10207000194A11461068C002FCD41A6842F4803232
:102080001A600B68DB03FCD5FEF7A4FF201A0928B1
:1020900003D8BDE83840FFF79BBF63280F4C0BD92E
:1020A0002B78022B08D1236000F0F2FF30B1FFF74C
:1020B0008FFF0023236038BD0123F4E7FEF784FF80
:1020C0000028CED1F3E700BF488608400003002077
:1020D0006A18002000200D4004200D4058200D40BB
:1020E0000023064A52F82310814206D011B942F863
:1020F000230070470133052BF4D170470003002003
:102100000022054B1A60054A136943F0040313616A
:102110000122034B1A70704758200D4000ED00E07B
:102120006A1800204FF48032064B10B5064CC3F8F5
:102130009021C3F89020206818B100F0F3FF00232D
:10214000236010BD00E100E01403002070B5184BBF
:102150001B7843BB174A1278122A25D1164A1278E7
:102160004B2A21D14A0802F52013144D2733441E6F
:10217000AB4207D1002301F52011273110449342CF
:1021800005DB70BD13F8016904F8016FF0E7CC1AA4
:102190002478C4540133F2E7D41A2478C4540133A8
:1021A0008B42F9DBEDE7002301F520122732F7E738
:1021B0002B0028002A0028002900280027002800DA
:1021C000024A136843F01003136070472000024076
:1021D00014235843034B044A0344B3FBF0F3013B7D
:1021E00013607047FF23F4000C0002402DE9F84310
:1021F00014462C4A1D461368DFF8B49043F00103DF
:10220000DDF820801360D9F80030064643F0010362
:10221000C9F8003032200F46FEF7B8FED9F800307A
:10222000214A23F00103C9F800300123300381580B
:1022300003FA07FC21EA0C018150210351F802E066
:10224000AB402EEA030E41F802E0203250F802E0E3
:102250004CEA0E0C40F802C0885803438B503046BD
:1022600039460022FFF70CF9294620460022FFF7E5
:1022700007F90E4B47EAC6021A6045EAC4025A60E3
:10228000394630460B22FFF705F9204629460C2235
:10229000FFF700F9FFF794FF4046BDE8F843FFF76A
:1022A00097BF00BF38200D4000940D402C410D40D9
:1022B00044200D40024B18600120FEF767BE00BFAE
:1022C00004000240024B186800F00100704700BF94
:1022D00004000240054B1868C0B2C30704D410F0D4
:1022E000120F08BF00207047002070470400024012
:1022F00008B5074B4000186099600720FFF7DAFF28
:10230000044A1368DB07FCD4BDE80840FFF7E2BFCE
:1023100000000240040002400A4B400040F001006F
:1023200010B5186007200C46FFF7C4FF064A136873
:10233000DB07FCD4FFF7CEFF10B9044B1B682370FA
:1023400010BD00BF0000024004000240080002402F
:102350002DE9F8430C461746002A3AD0002938D018
:10236000012A04D1BDE8F8430978FFF7C1BF1A4A32
:10237000430013600B78194E03203360FFF79AFF78
:10238000174B98461A68D107FCD4FFF7A3FFE0B1BA
:10239000BDE8F843FFF79EBF635D01203360FFF7A0
:1023A00089FFD8F80030DA07FBD40135EDB2A94532
:1023B000F2DC3C4414F8013C05203360FFF77AFF5F
:1023C000D8F80030DB07FBD4E2E7012507F1FF393D
:1023D000EDE78020BDE8F8830000024008000240DD
:1023E000040002402DE9F8430C461746002A3AD073
:1023F000002938D0012A03D1BDE8F843FFF78CBF8C
:1024000043001A4A43F0010313600B20FFF752FF09
:10241000174B98461A68D107FCD4FFF75BFF90B9B9
:102420000125144E07F1FF3933682370A9450EDCEE
:102430000520FFF73FFFD8F80030DB07FBD43368F7
:102440003C4404F8013CBDE8F843FFF743BF0920D2
:10245000FFF730FFD8F80030DA07FBD43368635554
:102460000135EDB2E2E78020BDE8F88300000240CC
:1024700004000240080002400FB407B504AA52F855
:10248000041B0448019200F021F803B05DF804EB4E
:1024900004B070479400002070B505460C460A4E03
:1024A000102C07D874B12B68224668680649BDE82D
:1024B000704018472B68102231466868984710B959
:1024C000103CEDE7204670BD90AA20002DE9F04FAA
:1024D0000746144600258FB00791079B1B78B3B1C0
:1024E000DDF81C8000E0B046464616F8013B0BB113
:1024F000252BF8D1079B98450ED0A8EB03094A4637
:102500003B6807997868984728B14FF0FF3528460F
:102510000FB0BDE8F08F4D4498F80030002BF6D096
:1025200098F80130002BF2D04FF0000A314611F834
:10253000012B33462B2A16D00AD8202A16D0232A5C
:1025400017D0A2F1310008283FD84FF0000918E059
:102550002D2A04D0302AF4D14AF0100A01E04AF0C2
:10256000010A0E46E2E74AF0060AFAE74AF0020AD2
:10257000F7E74AF0080AF4E70A2303FB0929A9F15F
:102580003009334616F8012BA2F130010929F3D99D
:102590001A782E2A35D159785A1CA1F13000092811
:1025A00028D8002611781346A1F13000092802F13D
:1025B00001021AD91A786C2A40F092805A786C2A53
:1025C00022D14AF0800A023321E02A2A0AD1D4F823
:1025D00000900B46B9F1000F04F10404B8BF4AF0B3
:1025E000010AD5E74FF00009D2E70A2303FB0616DC
:1025F000303ED7E72A2903D1266802330434D9E7CD
:1026000013464FF0FF36D5E701334AF0600A1A78D7
:10261000642A00F0928000F28580462A00F0AF80A4
:1026200071D8252A00F0C08066D8002A3FF46FAF29
:10263000013307930AF4E063B3F5806F00F056822C
:1026400000F2B580B3F5807F00F0EA80B3F5407FFB
:102650007FF443AFAF4B1AF4804FAF4A18BF1A460E
:102660000DF1330300211E462068043450EA010CAA
:1026700040F07482F61A04BF302203F8012C4FF0A8
:10268000780208BF03F1FF3303F8012C4FF030024A
:1026900008BF012603F8022C23220336B1458CBF64
:1026A000A9EB06094FF000091AF0010AA3F103088B
:1026B00003F8032C06D149463846FFF7EDFE002803
:1026C0007FF423AF3B68324641467868984700283C
:1026D0007FF41BAF3544BAF1000F00F03682ACE155
:1026E000682A94D15A78682A02D14AF0200A6AE707
:1026F00001334AF0400A8AE7412A4CD0452A97D153
:102700004AF4424A94E7582A33D004D8472A8FD152
:102710004AF4A13A8CE7612A3AD0632A88D14AF474
:10272000A06A85E76E2A3CD00AD8662A24D029D32D
:10273000672A2AD0692A7FF47BAF4AF4245A77E7C4
:10274000732A2BD007D86F2A10D0702A7FF470AF6D
:102750004AF4407A6CE7752A05D0782A7FF468AF8E
:102760004AF4C85A64E74AF4106A61E74AF4885A9E
:102770005EE74AF4B24A5BE74AF4007A58E74AF463
:10278000844A55E74AF4024A52E74AF4813A4FE74D
:102790004AF4C13A4CE74AF4E13A49E74AF4806A1C
:1027A00046E74AF4E06A43E74AF4C06A40E7B3F513
:1027B000C06F2BD0B3F5E06F00F0DF81B3F5A06FF1
:1027C0007FF48BAEB9F1010F38BF4FF001092368D8
:1027D0001AF0010604F104048DF8203009F1FF38E5
:1027E00007D141463846FFF757FE00287FF48DAEEB
:1027F00045443B68012208A97868984700287FF47F
:1028000084AE002E00F0A181414617E13B68012211
:1028100042497868984700287FF477AE01355CE636
:10282000002EACBF2AF0100A01261AF400520AF05A
:10283000E003069243D0402B3AD009D8002B3AD07F
:10284000202B11D000220023CDE90023002319E022
:10285000602B30D0802BF5D1073424F0070303F12F
:102860000804D3E9002303E094F90020D3170434CB
:10287000002A73F10001E7DA524263EB4303CDE92A
:102880000023012305930AF4C053B3F5805F00F0E1
:10289000EB80B3F5C05F00F0EC80B3F5006F40F063
:1028A0000381DDE900230DF1360BCDE9022348E079
:1028B000B4F90020DAE722680434D317D8E7402BB4
:1028C0001FD009D8FBB1202B14D000230022059380
:1028D0000023CDE90023D6E7602B14D0802BF4D160
:1028E000073424F0070303F10804D3E90023CDE9FA
:1028F000002304E022780023CDE900230434069B62
:10290000C0E72288F7E72368002219460434CDE99E
:102910000012F4E7B0AA2000C1AA2000E1AA20001A
:10292000DDE902010A22002305F0C2FFDDE9020110
:1029300030320BF8012D00230A2205F0B9FFCDE952
:102940000201DDE902231343EAD10DF13603A3EBC3
:102950000B030293029B41F608029E4288BFF61ABF
:1029600041F208030AEA020298BF00269A4202D105
:10297000002E08BF012641F60801029B8A4233441B
:1029800040F09680DDE900120A4300F091807D4915
:102990001AF4804F7C4A08BF0A464FF002080092A2
:1029A000069A82B1059A002A40F087800AF0060252
:1029B000022A00F08780062A744A009904BF114653
:1029C0004FF001080091434499458CBFA9EB0309DE
:1029D0004FF000091AF00103059304D11AF0100F0B
:1029E00074D04E449946D7E90030B8F1000F05D0B5
:1029F00042460099984700287FF487ADB246029B73
:102A00001D44BAF1100FD7E9003066D8BAF1000FB3
:102A100005D052465E49984700287FF476AD3B6862
:102A2000029A594678684544984700287FF46DAD6E
:102A3000059B3544002B00F0888049463846FFF757
:102A40002BFD002800F081805FE502F007013031A6
:102A50000BF8011DD10841EA4371D8080A46034624
:102A600052EA0301F1D170E7DDE900230DF1360BE5
:102A7000F6E7484B1AF4804F0DF1360B464918BF64
:102A80001946DDE9002352EA03003FF45EAF02F08D
:102A90000F00085C4FEA131C0BF8010D100940EA07
:102AA000037002466346EEE70DF1360B002350E754
:102AB0004FF00008CDF8008072E74FF00108374A68
:102AC000009280E74FF00108354AF9E74946384659
:102AD000FFF7E2FC002886D017E510222C49984722
:102AE00000287FF412ADAAF1100A8AE7D4F800B0EA
:102AF0000434BBF1000F2CD0D84698F8003008F110
:102B0000010223BBA8EB0B08002E02DBB04528BF57
:102B1000B046C1458CBFA9EB08094FF000091AF077
:102B2000010606D149463846FFF7B6FC00287FF477
:102B3000ECAC3B68424659467868984700287FF4D9
:102B4000E4AC4544002E7FF478AF4D44C5E4904694
:102B5000D3E7DFF850B04FF00608D5E700F00F0CD0
:102B600012F80CC04FEA111E03F801CD4FEA101CF9
:102B70004CEA017C6046714678E5236804341D60A8
:102B8000ABE400BFD2AA2000D5AA2000D8AA20001A
:102B9000A0AA2000B0AA2000C1AA2000A1AC200059
:102BA000EDAB2000DAAA200010B50446FEF7E4F9E8
:102BB000D4E900321344C01A024B98428CBF002063
:102BC000012010BDFEFFFF7F10B50E4C236813B926
:102BD0000D4A136010BDFEF7C5F92168D1E9002345
:102BE00013448A681B1A1AB91844074B1860F1E796
:102BF000D2E900142144091A8B4228BF0B4692687F
:102C0000F1E700BF1C03002018030020014800F07A
:102C100089BA00BF9C0000202DE9F84303880546CF
:102C200053B1592B47D1872920D1002024490B6863
:102C300063B918B10B6001E0214A136059230120E8
:102C40002B80BDE8F88301203346F1E7D3E9026425
:102C50009442F8D000B10B6099680029EED0C868A2
:102C600090420ABF89680B469960F5E78229E5D151
:102C7000134F4FF00009B84600263C68002CDDD009
:102C8000204606F0EEFA98B122468821E06800F06E
:102C900009FA58B9E060A3682EB1B360C4F808908F
:102CA000FFF792FFE8E7C8F80030F7E7FFF7AEFF5D
:102CB0002646A468E2E7002303800320C1E700BFA3
:102CC0001C03002010B50446FFF7A0FFE3680B4A81
:102CD0000BB1136833B90A4B1B68E36013681460C7
:102CE000A36004E0A34206D1054A1268DA60BDE899
:102CF0001040FFF769BF9B68ECE700BF1C03002092
:102D0000A4040020024B1868003018BF012070474F
:102D10001C03002010B50B4A04461368834208D1F7
:102D200083681360FFF750FF0023C4E9023310BD2E
:102D30001346002BF8D09A68A242F9D1A2689A6093
:102D4000F0E700BF1C030020F8B5038806461546CF
:102D5000CBB14A2B2BD188291FD1174806F092FA04
:102D60000446C4B1231D9D421FD12146124806F0DE
:102D700093FA124D62692F682A60A2690AB1E0696C
:102D800090472F6007E00C4806F07CFA044634B9FF
:102D900001220B4B1A704A23338001200AE0A168FC
:102DA000201D06F020FA2468F1E72468D9E7002303
:102DB00003800320F8BD00BF20030020A4040020EE
:102DC0006B18002010B50024054B06481C7006F057
:102DD00056FA2146BDE81040034800F08BB900BF09
:102DE0006B18002020030020AC00002070B50446C2
:102DF000E3610B4B049D1B78C4E905526BB1094D8F
:102E0000094B2E68201D2B6006F0EDF92E6021463F
:102E1000BDE87040054806F052BAA160F7E700BF70
:102E20006B180020A4040020AC0000202003002028
:102E300013B5034C24680094FFF7D8FF02B010BD0F
:102E4000A404002070B5094B05461B783BB1084C23
:102E5000084B26680430236006F0CEF92660294628
:102E6000BDE87040044806F02ABA00BF6B18002085
:102E7000A4040020AC0000202003002070B5094B02
:102E800005461B783BB1084C084B2668043023608C
:102E900006F0BBF926602946BDE87040044806F0FC
:102EA0000EBA00BF6B180020A4040020AC00002064
:102EB0002003002010B5084B04461B7843B10430B2
:102EC000FFF728FF2146BDE81040044806F0E4B9AA
:102ED000C0E90333F6E700BF6B1800202003002091
:102EE00038B5836804460D469BB10A480460022049
:102EF000A07304F10C0098470238012801D9832DF2
:102F000005D121462046BDE8384000F005B8012330
:102F1000A37338BDA40400202DE9F8431C4F894653
:102F20003D682C46844204D00CB9BDE8F88324687F
:102F3000F8E7002CF9D0174EA37BD6F8008063B1D8
:102F40000023A3738DB9A3683BB14C4505D0346011
:102F50002A46832104F10C0098473B68A3420ED116
:102F600023683B60C6F80080DFE7AC4204D022460D
:102F70008721284606F05BF92D68E3E71346002B0E
:102F8000F0D01A68A242F9D122681A60EAE700BFBD
:102F9000A8040020A4040020002238B50125084B15
:102FA0001A70084B1C6804B938BDE37B2BB1E5816E
:102FB000002282212046FFF793FF2468F3E700BF39
:102FC0006F180020A8040020024B1878421C1A70C9
:102FD000704700BF6D1800208A22064B1A7000232C
:102FE000054A1370054A1370054A1360054A1360B9
:102FF000704700BF6D1800206C1800206E1800206C
:10300000A8040020A40400202DE9F0411B4D2B78DA
:103010000BB1FFF7C1FF1A4C22789AB10C21194E5F
:10302000194F3378013A59430133781803F01F03DD
:1030300017F801803370D0E90170227090B9134BFA
:103040001E6826B92B7820781844BDE8F0812B78CB
:103050000BB1FFF7A1FF30463A46414606F0E7F8CC
:103060003668EEE7B8F1810F08BF01233A4608BF82
:103070008373414606F0DBF8E4E700BF6F180020D9
:103080006E1800206C18002024030020A8040020E3
:10309000024A034B10781B78184470476E180020C2
:1030A0006F180020F0B50B4E3378202B0FD00C2575
:1030B000094C0A4F24781C4404F01F046C433D194A
:1030C000C5E901200020013339553370F0BD0120DE
:1030D000FCE700BF6E1800206C18002024030020BD
:1030E00038B5034C256806F0A2F8256038BD00BF4E
:1030F000A404002030B40A4C0A4625682B468342BB
:103100000CD04BB950B101210560817320608381DF
:10311000812130BCFFF7E4BF1B68F0E730BC70478B
:10312000A804002038B1837B013B012B9FBF012302
:10313000014AC373137070476F180020024610B520
:10314000064853600468029B11609360026014B9E2
:103150000846FDF751FF002010BD00BFAC04002061
:1031600010B5084C206858B100232360D0E9013124
:103170009847236823B1BDE810401868FDF73CBFAD
:1031800010BD00BFAC04002070B505880446672D53
:1031900009D0792D2FD0002D33D1FFF715FF1B4B10
:1031A00018701B4B1D601B4E194D08E00A282B6838
:1031B0000ED07E2B03DC5A1C2A60174AD0543046AE
:1031C00006F00CF9431CF1D16723238001201BE09A
:1031D0005A1C2A600025104A2846D5540B4B1978F2
:1031E000FFF760FF0D4B2A4685211868FFF75AFF4D
:1031F00018B97923E9E78529E8D10022044B1A6040
:10320000D1E700230380032070BD00BF10290020F8
:10321000B0040020B404002070180020A404002092
:103220000D2810B5014616D00C4C237853B90C4824
:1032300006F0C1F808B9012323700A48FFF772FFAE
:10324000012010BD0A28F8D1054806F0B4F800287E
:10325000F3D00023F0E70020F3E700BFF0180020D0
:10326000B4040020BC00002008B5054905488022B0
:1032700006F09AF8BDE8084000210348FFF73ABF7E
:10328000F1180020B4040020BC000020064A136896
:1032900043F004031360054B186804331B6840EACD
:1032A000032080B2704700BF00700D4014700D40C5
:1032B00010B5174A136823F00C0313600122154B55
:1032C0001A601A68012AFCD10822134B13491A60AC
:1032D000E32203F505731A601A460B68DB07FCD579
:1032E0000F4C102100232068013900F0010043EA4F
:1032F00000034FEA43039BB2F5D1002BF1D00949FB
:10330000180A03F0FE0308600B60EF23136010BD82
:1033100000700D40A8200D402486084064860840B7
:103320009C86084014700D402DE9FF476F46224CE3
:10333000224D04F108030FCB87E80F002B7894F897
:103340000780BBB13A221E49A2710A88D21A92B2F2
:103350000A80A2F128010812207103F128002044FC
:10336000C3F1040361712C3A011D184405F0CAFC35
:1033700000232B70134805F085FF0646DFF840A0B8
:103380002EB90F4B2E701E8004B0BDE8F087D6F822
:103390000490B9F1000F09D0BAF800302A782C3B1C
:1033A00038329BB2224441463846C847304605F081
:1033B000A2FF0646E4E700BFEC2000209C19002095
:1033C000DC200020BC040020F8B52C4B2C4C1B79D1
:1033D00004F11806E371237E04F10805FF2B31D1B7
:1033E00095E80F0086E80F003146284600F0C0FA45
:1033F000244D2B78BBB13A222349A2710A8803F1EC
:103400002800D21A92B20A80C3F10403A2F1280163
:1034100020440E1261712C3A011D1844267105F0EA
:1034200071FC00232B7081212B782833E218E152A4
:103430000023538006F04FF8C0432B78134A1344FF
:103440005880F8BD2F46124A3B4603CBB34210606A
:1034500051601F4602F10802F6D196E80F0085E898
:103460000F000B4B0B4D03F110062A4618685968E4
:10347000083303C2B3421546F7D1B9E7701F0020E5
:10348000EC2000209C190020DC20002014210020CA
:10349000401100200421002038B504460B480D4699
:1034A00005F0F0FE08B901200FE00379A34204D132
:1034B00043799D4204D0FF2B02D005F01CFFF1E7B9
:1034C0008368002BEFD09847002038BDC00400204F
:1034D0000146014805F0F3BEC00400202DE9F74F76
:1034E000474D82462B788946934653B1454A9B5CAB
:1034F0003A2B0ED10023444A2B70138003B0BDE851
:10350000F08F424B9A793A2A03D193F92830002B55
:10351000F0DA3F4C03F0DCFC04F110063746A0461D
:103520003C4A234603CBB342106051601C4602F173
:103530000802F6D1344E354C3388214630339BB2E5
:10354000B3F5A06F88BF4FF4A063338032882B7827
:10355000D21A04EB4300303A3030019305F0D2FB2D
:103560006022019B22603A22002B46D084F828205A
:10357000294B1B79E371238973B9638963B9A389E3
:1035800053B9E38943B9238A33B9638A23B9A38A38
:1035900013B9E38A002BADD0204B0FCB88E80F0086
:1035A0001C4B1B78FF2B05D1BAF1040FA2D1B9F146
:1035B000020F9FD11749194800F0DAF995F80080F9
:1035C000584608F12803E21804F803A082F8019095
:1035D00000F092FF124B43F808003388283B1A1280
:1035E0002271002263712B783B445A8005F073FFEF
:1035F000C0432B781F44788080E7A271B8E700BFF2
:103600009C19002014210020DC200020EC20002048
:103610000421002040110020701F0020F420002011
:10362000182100202DE9F0411E4660231A4C0F4658
:1036300023603A230546A371184B90461B7900F18D
:10364000100CE371331D1A122271637104F1180218
:10365000134628686968083503C365451A46F7D1DB
:103660000F49104DA1F1100000F082F92B782C3693
:103670002833E218E754002382F80180538005F0D4
:103680002AFFC0432B78084A13445880074B1E80FA
:10369000BDE8F04102F0B4B9EC200020701F00201A
:1036A000042100209C19002014210020DC2000208F
:1036B00008B50448FFF70CFFBDE808400248FFF7D3
:1036C00007BF00BFD8000020CC0000202DE9F34147
:1036D000154D0446CDE900150E4690461F462022A2
:1036E00003460321114805F089FE01282B4618D115
:1036F0002A6804F11001107020462A68023250F83E
:10370000044B884242F8044BF9D11868089B867430
:103710004361099B80F813800777836102B0BDE89D
:10372000F0810020FAE700BFCC0400206C200020CC
:10373000F8B507460B4E0C4D2E6060362C68B4422F
:1037400001D30020F8BD237833B1A27C3946D208DA
:10375000A01C05F02FFA10B120342C60EEE70120F8
:10376000F0E700BF6C200020CC040020802313B5BC
:10377000074C00930194034620220321054805F0DD
:103780003DFE10B9206802B010BD0020FBE700BF6D
:10379000C4040020881F002030B548F2FE040B4905
:1037A0000B4A1160603113688B4202D30023184624
:1037B00030BD1D783DB1451C02D09D7C854202D1B3
:1037C0005D88A542F3D020331360ECE7881F00200A
:1037D000C4040020802337B50F4D009304460346F0
:1037E0000195122205210D4805F008FE01282B46FF
:1037F0000FD12A6804F11001107020462A680232A5
:1038000050F8044B884242F8044BF9D1186803B0D1
:1038100030BD0020FBE700BFC80400200C200020C2
:103820008023F7B5214C0093054603460E46174604
:103830000194202203211E4805F0E0FD012832D129
:103840002A46236805F1100118702368023352F8E4
:10385000040B8A4243F8040BF9D12068C774DEB91F
:10386000012303750122236812489A7440F2FF2352
:103870000380002343808380C38003814FF48073DF
:103880004381FF2303736B7B4373EB89C381FFF792
:10389000A1FF206803B0F0BD002331460375183046
:1038A00005F099FCDEE70020F4E700BFC404002027
:1038B000881F002050110020802313B5074C00936F
:1038C0000194034612220521054805F097FD10B921
:1038D000206802B010BD0020FBE700BFC804002034
:1038E0000C20002038B50546C8B140F2FF230C4833
:1038F000002403804FF480734381FF230373EB7B29
:10390000448043732B8A8480C4800481C381FFF781
:10391000D3FF044A106008B105F093FD2C7038BD48
:1039200050110020C804002038B50E4D0E4C256003
:1039300060352068A84206D300F0F8FABDE83840A8
:103940000A4805F059BC037843B1037D33B91830F8
:10395000FFF72AF910B12068FFF7C4FF236820336E
:103960002360E6E7881F0020C4040020CC2000204C
:103970002DE9F84F48F2FE030A8805469A420F46A1
:103980002ED00A78FF2A2BD000241C49A046894655
:103990009B461B4A0A6002F1600AD9F8006056454E
:1039A0000AD314BB2C806C80AC80EC802C816C81A1
:1039B000AC81EC81BDE8F88F33786BB1B37C012B1F
:1039C0000AD173885B4507D0B11C384605F046FD27
:1039D00080459CBF344680462036C9F80060DCE74D
:1039E0000120FFF7D9FE0446DBE7A31C123453F88D
:1039F000042BA34245F8042BF9D1DBE7C4040020D3
:103A0000881F002070B5094EB0684508FFF73EFCDE
:103A10000446FFF73BFC2402B268A4B22044B0FB8A
:103A2000F2F302FB1300284470BD00BF701F00209A
:103A300073B5304C00F07EFD00F096F86022002156
:103A40002D4805F0C1F900212046F42205F0BCF90B
:103A500020222A4B40261A701822294B00251A7062
:103A60004FF4A06344F8043C264B04F80469A360B7
:103A7000FFF7C8FF42F21073236148F2FE03E060D3
:103A80002575214C2A46238065802B46A580E5803C
:103A90003146CDE900552046FFF718FE20461B4968
:103AA00005F0D3FC29460122FFF7BAFE40F2FF26BB
:103AB0004FF480732046E38126806580A580E580F1
:103AC00025816581A581FFF785FE4FF400732046AF
:103AD00026806580A580E58025816581A581E381BB
:103AE000FFF778FE0C210A4802B0BDE8704005F0EF
:103AF0007ABB00BF741F00206C20002069200020CA
:103B000068200020C027090050110020E420002078
:103B1000CC2000202DE9F047054610480F4690467E
:103B200005F0B0FB0446DFF83890DFF838A00CB998
:103B3000BDE8F087012D0DDC504605F0D5FB0346AE
:103B40004246394628466668B047204605F0D3FB12
:103B50000446ECE7D9F80030F2E700BF5406002035
:103B6000580600207005002008B50B4805F0C6FB7C
:103B70000A4805F084FB0A4B0A49186803F08AFCDE
:103B8000094805F0BBFB094805F079FBBDE8084092
:103B9000074805F074BB00BF100100205C06002040
:103BA000F00000209B942000E4000020700500201D
:103BB0005406002008B540B1044B4168186806F06F
:103BC00055FBBDE8084005F08CBC08BDF0000020A6
:103BD000014805F057BB00BF5C06002008B505F0A2
:103BE00082FC38B1044B0146186806F02CFB00300B
:103BF00018BF012008BD00BFF00000202DE9F041F2
:103C000080460027FFF7E4FF3C46054685B964B1CE
:103C1000124805F037FB844207D021460F4805F0D3
:103C20003BFB21460D4805F057FB2046BDE8F081DF
:103C300095F82460BE420AD3F20805F10801404617
:103C400004F0B8FF18B9802E06D037462C46284617
:103C500005F01FFC0546D9E72C46D9E75C06002095
:103C600038B5044600283FD04368002B3CD00146BD
:103C70001E4805F011FB6368586805F003FB054614
:103C800068B343689C4226D163682946586805F0AA
:103C900003FB6368586805F0F5FA28B9636859684A
:103CA000134B186803F0A2FC2146124805F04AFBAA
:103CB0002946114805F046FB104A20461368013B8F
:103CC0001360FFF777FF04F108010246BDE83840B2
:103CD0000320FFF71FBF284605F00DFBCFE704F1D7
:103CE000080001F003FECFE738BD00BF5C060020EE
:103CF000F0000020100100200401002058060020E0
:103D000010B5044680B1406870B105F0BBFA30B917
:103D1000064B2146BDE81040186803F067BC4068B8
:103D2000FFF79EFF6068F0E710BD00BFF0000020C5
:103D30002DE9F84F804610468A46914605F0D3FBA0
:103D4000834618B900242046BDE8F88F4046FFF7A7
:103D500055FF044660B1FFF72DFF014628B1102240
:103D6000484604F027FF0028EDD02046FFF778FFF3
:103D7000284F3B68142BE5D0274E5946306806F093
:103D800062FA054668B9034604225946306803F0D2
:103D9000B1FB05460028D5D000236860036005F01C
:103DA0006EFA1E4805F0BAFA04460028CAD0014649
:103DB0001B4805F091FA1B4805F0B0FA20B92146DE
:103DC000164805F0BFFABDE744600146686805F093
:103DD00076FA3B6865600133294630683B6003F042
:103DE0001BFC434604F1080508F110062A46186832
:103DF0005968083303C2B3421546F7D1002284F84C
:103E000024A0A261E261226241464A460220FFF7F5
:103E100081FE98E758060020F000002010010020E5
:103E20005C0600200401002038B505460D4805F069
:103E300029FA044600B938BDAC420ED121460948E2
:103E400005F02AFA2146084805F07CFA221D1146A1
:103E5000BDE838400120FFF75DBE204605F04BFA73
:103E6000E7E700BF70050020E400002038B50546F4
:103E7000084805F007FA044608B9204638BD102264
:103E80002946201D04F096FE0028F6D0204605F0B5
:103E900032FAF0E770050020F8B505460F46FFF747
:103EA000E5FF044640B9134805F038FA0446E0B18E
:103EB0000146114805F010FA2B46261D05F1100C9D
:103EC000324618685968083303C263451646F7D16D
:103ED0006FB1394604F1140005F07DF90023237712
:103EE0002A4629460020FFF715FE2046F8BD01238B
:103EF000F5E700BFE40000207005002038B50A484F
:103F000005F0C0F9002504460CB9284638BD251D2A
:103F1000284600F043FB10B1437C002BF5D120462E
:103F200005F0E9F90446EFE77005002038B50D48C3
:103F300005F0A8F904460B4D04B938BD237F63B9D9
:103F400004F11400FEF730FE38B12046FFF76CFF95
:103F5000284605F097F90446EEE7204605F0CBF930
:103F6000F9E700BF7005002037B5114B114D1C78E3
:103F70002B7905F10801C4EB03226B7913449BB242
:103F8000ADF80630BDF806302022184480B205F0A6
:103F900086FA04F12801BDF80620294405F07FFACD
:103FA00018B140BA80B203B030BD4FF6FF70FAE7E7
:103FB0009C190020EC20002002200021F8B5284F99
:103FC000284D3A78284C283253195E782070F60034
:103FD0000736864202DA71B320702CE0131805EB25
:103FE000030CEB5C012B11D00CD3632B13D003F02B
:103FF000C003802B21D0C02B28D0402B2CD179B1ED
:1040000020700DE00130C0B20121E2E7831C9CF872
:1040100001001844F7E701B1207002F0DBFE08B997
:104020000120F8BD22783B78104913440B445B789B
:1040300002321A4422700020F3E701B120700244DA
:1040400002210420FFF74AFA0220EAE701B12070BA
:104050002B7EFF2BE4D0F2E702309CF80130D8E74A
:104060009C190020EC2000209D1900201421002024
:1040700008B5FFF7DDFCFFF71BFB00F009FC4FF470
:104080008062064B06481A80002319461A1820330E
:10409000B3F5A07F1182F9D108BD00BF60110020E7
:1040A00020260020F8B5104E357845B10F4F05F1A8
:1040B00027033C88A34203DB00233B803370F8BD19
:1040C0000B4BA4F12802521B5919184604F01AFE92
:1040D000641BA4B23C80283C221200F8242C00F877
:1040E000234C0023EAE700BF9C190020DC200020BD
:1040F0001421002004282DE9F74F964F1CD0964C30
:10410000964B9749052823600B60A146884649D104
:10411000944A1268128A002A00F0128100220C3B95
:10412000914823600B60914B02601A803A8008220C
:104130008F4B1A7001F02CFD8C4B1A88002A00F06E
:10414000FF8002F130038B4C9BB23B80283B19125D
:104150006371844B08321B6852BA2171197DA285A4
:104160000022E1711121E2851A8AA17122855A8A01
:1041700004F1180562850FCB85E80F00294604F18C
:104180000800FFF7F5FB744B04F13C021A6005F0E0
:10419000A5F9C04380B2002800F09781E085602334
:1041A000236085E013F83C2CA3F13C0402F0F002FC
:1041B000602A40F0C580227961791202388855184A
:1041C000854200F3BD8028310A443A80227AFF2AD2
:1041D00000F0B680684A363B13600023674D684E96
:1041E0002B703370A37993464BB901233370FFF7DB
:1041F000E3FE012800F0A48045D3022858D061488E
:10420000FFF7B4FA002840F0D7805E48FFF754FB70
:10421000002840F0D180207E2389FF2848F2FE014B
:104220004CD0228B8A4200F054818B4248D073B923
:10423000638963B9A38953B9E38943B9238A33B93D
:10424000638A23B9A38A13B9E38A002B78D07AB999
:10425000638B6BB9A38B5BB9E38B4BB9238C3BB9F5
:10426000638C2BB9A38C1BB9E38CB3F5807F67D02B
:104270003B88B3F5A06F12D94FF4A0620021022051
:10428000FFF72CF914E02B7803F128022244CBF835
:1042900000205278083303EBC2032B70AFE7E379B9
:1042A000012B03D8002203201146E9E7013BE3710B
:1042B00000222F4B1A7003B0BDE8F08F8B423FD124
:1042C000238B7BB9638B6BB9A38B5BB9E38B4BB946
:1042D000238C3BB9638C2BB9A38C1BB9E38CB3F54E
:1042E000807F2DD0FF282BD02648FFF721FA0246E9
:1042F00030BB02210120C3E7BAF13B0F20D0BAF155
:104300003C0F43D0BAF13A0F40F08E8005F0E3F84D
:104310004FF6FF73984213D12B781B4AD05C01F003
:1043200049FB2B782833E218E05C5178FFF7B4F8AA
:10433000012802BF00233B802B703B88002BB7D1A4
:1043400000230E4A3B8013700D4A1370084A137005
:10435000B1E700BFDC2000200C260020282100202F
:10436000E020002008260020102600201C26002027
:1043700000260020EC200020042600209C190020AC
:104380009B19002004210020142100203378980775
:1043900004D5590648D443F0400323E043F0020318
:1043A00020E02B7803F128022244CBF80020527839
:1043B000083303EBC2032B70DBF8002092F800A057
:1043C000BAF12C0FBCD097D8BAF1110F2FD0BAF197
:1043D0002B0F11D0BAF1000F26D13378D90723D48F
:1043E00043F001033370FFF7E7FD0128A8D0D8D3CD
:1043F00002283FF45DAFDFE7337813F0040113D1F7
:104400002A7843F00403337002F128032344D87858
:1044100010B12A32042033E7CBF800305B78083241
:1044200002EBC3022A70C7E7121B0121F2E7FFF774
:1044300039FEE38D84F806A09BB9B4F82AA0BAF13E
:10444000000F3FF47DAF254E254DB4F828B0254B25
:104450002E6006F5A0762C68B4420AD3002204210F
:1044600048E705F03BF84FF6FF7398427FF468AFDA
:10447000E3E7228AAAB1924513D1628A0AB15A456A
:104480000FD122682AB962681AB9A2680AB9E2682B
:1044900052B1184610222146019304F08BFB019B78
:1044A00010B120342C60D6E73B880220303B3B80A3
:1044B00000230D4A0D49C9F800200B60C8F8002000
:1044C0000B490C4A0870138034E64FF6FF73E385FE
:1044D00065E693427FF434AF06E700BF2026002054
:1044E00008260020F42000201C2100201026002097
:1044F000002600201C260020054BC0F3072203EAFB
:104500000023000C40BA134380B240EA03407047D6
:1045100000FFFF0010B5044640B102F0A3FD044BBC
:104520002146BDE81040186803F060B810BD00BF18
:104530001C01002008B503F037FA034B0349186843
:10454000BDE8084002F0A6BF1C0100201545200070
:1045500070B504460C481E469DF81020059B006867
:1045600002F0C8FF054668B120462B4604F1100250
:1045700050F8041B904243F8041BF9D16E7428468E
:1045800002F070FD284670BD1C010020024B014660
:10459000186805F06BBE00BF1C01002070B50C4D03
:1045A0000646286802F08AFF044676B900242046B1
:1045B00070BD10223146204604F0FCFA0028F6D0E7
:1045C0002146286805F024FE0446002CF1D1EDE7D1
:1045D0001C010020024B0146186805F034BE00BFE4
:1045E0001C01002070B5054610200E4603F032F97C
:1045F0000849044605F069FE58B932462946204666
:1046000003F070F9324629462046BDE8704002F0BA
:104610000BBD70BD60AB20002DE9F04F8F4C87B013
:10462000E3798F4FFF2BDFF860A240F012813B78D7
:1046300004F12C055A191279FF2A00F00A8104F1BD
:1046400028010B445A780291002A40F00281854BE0
:10465000854E1A6014229846DFF83092327004F1C9
:10466000080B387832782C30BAF8003002449A427D
:10467000C0F2868020440430FFF778F87B4B186046
:104680009B46002800F0E58023897BB963896BB9DC
:10469000A3895BB9E3894BB9238A3BB9638A2BB9F8
:1046A000A38A1BB9E38A002B00F0D380704E3046FA
:1046B000FFF75CF8B046002840F0CB8040F2FF23C3
:1046C000228B06F110099A4240F0B080638B002BD8
:1046D00040F0AC80A38B002B40F0A880E38B002B34
:1046E00040F0A480238C002B40F0A080638CB3F5B5
:1046F000807F40F09B8094F82430FF2B40F0968020
:1047000096E80F0089E80F003B781D44043595E8D2
:104710000F0086E80F00002360223B70554B564E79
:10472000C4E9002388232385E023DBF8002084F8F4
:104730002C30931C1232354618685968083303C56B
:1047400093422E46F7D140F202234C49A4F8403060
:104750000A684B4BC4F842204A685A600022C4F8E9
:104760004A209A81628504F0B6FE3B78029AC043E3
:104770001A4450235080AAF8003007B0BDE8F08FEB
:10478000A3185978002964D0A25C012A26D1228975
:10479000C8F8003072B9628962B9A28952B9E28957
:1047A00042B9228A32B9628A22B9A28A12B9E28A4D
:1047B000002A4ED053F8020F04AA596803C2584683
:1047C000FFF7ECFE0246C9F8000080B9052301900E
:1047D000009304A902235846FFF7BAFE32783B78CB
:1047E00013442B445B7802EBC302327039E7FFF7C6
:1047F000CDFE034668B3D8F80000194608220230FF
:10480000039304F0D7F9039B50B1012204A9184681
:1048100005F034FDE8B1D9F8003002225A74DDE722
:10482000D9F800305A7C002AD8D1F6E71548FEF7AF
:104830009DFFDBF8003083420BD198E80F0089E838
:104840000F003B781D44043595E80F0088E80F0001
:1048500061E70023AAF800303B708EE7EC200020CF
:104860009C190020880900209E1900208009002042
:10487000F420002000283AFF1C210020E420002022
:104880002E21002004210020DC20002084090020AB
:104890000148FEF71DBE00BF30010020B8220C4BBE
:1048A000F0B502FB0032002340F24C5553821E4605
:1048B0001A460849CC18A77827B15F5C874204BF25
:1048C000A67001327133AB42F4D11046F0BD00BF87
:1048D00094090020A919002008B5064801F064F8E1
:1048E0000122054BFD211A70002299705A70DA706E
:1048F00008BD00BF354B20009F19002030B513784C
:104900000446087A83F0020398421FD1487A53780C
:1049100098421BD1887A9378984217D1C87AD37875
:10492000984213D1087B137998420FD1487B537971
:1049300098420BD1887B9379984207D1C87BD37971
:10494000984203D10320A040C0B230BD0E4B08896D
:104950001A681D4660B94889B0F57F4F08D188892B
:10496000FE2805D1C989022022F8021B1A60EAE755
:1049700001F1080303CB083242F8080C42F8041C8A
:1049800001202A60DFE700BF040B002010B50E4CA9
:104990000220A17902F044FFA379112B09D1238DC4
:1049A000618D994228BF1946BDE81040012002F0F0
:1049B00037BF062BF3D03A2B03D1218D49BA89B2E8
:1049C000F2E70021F0E700BFEC20002010B5084C12
:1049D00001462378012B08D10822A01C04F0EAF834
:1049E00000280CBF2046002010BD0020FCE700BFBF
:1049F0009F19002008B50146102002F01FFF044B4C
:104A000000219B6803489847BDE80840FCF766BC56
:104A10009CA82000194A200010B50C4611462046DB
:104A2000FFF7E0FD044B1B6813B19B6820469847D5
:104A3000024B1C6010BD00BF8C0900200C0B002035
:104A40002DE9F041002306467122134F02FB03F5C6
:104A50007C19A078C8B9617002F00CFEDFF84080C4
:104A60000E4B98F800102670401A1E68A0700E4475
:104A700002F000FE98F800200335821A31467819BA
:104A800004F0CAF8A078BDE8F08101330C2BDDD129
:104A90004FF0FF30F7E700BFA9190020140B0020EA
:104AA000F51E00202DE9F84315090F2D06469846FE
:104AB00002F00F0431D00F2C34D01DB12A463046FD
:104AC00004F0AAF82A190F2A274605DCC2F11002C1
:104AD0000021701904F078F9BCB1DFF85480C7F1F7
:104AE0001000D8F8009022464946304404F094F86B
:104AF000022C05D10A2D9FBFFF23F372FE233373CF
:104B00004C44C8F80040BDE8F883002DFBD0414676
:104B10003046BDE8F84304F098BC0F2C00D11024B7
:104B20001025CBE71024002DC8D12746D5E700BFBC
:104B3000040B002000232DE9F04FC04EC04C87B07D
:104B400033702370054602F011FE02F0A5FDBD4A48
:104B5000BD4B12681860CDE900630AB1FFF716FF7C
:104B600004AE002D40F03A81B849304605F0A8FB6C
:104B7000019B94F800B0D3F80080B54BDFF8D892D1
:104B80001A8802933E2A40F26182B24D08F1020374
:104B90002B6000230BF1020B08F80B3009F1180011
:104BA000FFF714FF30B909F10800FFF70FFF0028E5
:104BB00000F0168108F103032B60802599F801109D
:104BC00099F800C00B0943EA0C13DBB29A0842EAD9
:104BD000831252B211F00F0FD0B20CF00F0C9D4F98
:104BE000DFF874A240F0FE80B9F80230002B40F0EC
:104BF000F980BCF1000F03D111F0F00F00F00F812C
:104C00004FF070093B6803F8010B3B609AF80620EF
:104C1000112A08BF49F0040919F0040F02BF3B68CC
:104C200003F8012B3B609AF80730402B00F0FA8024
:104C3000FF2B00F0FA80012B40F0FA8049F00109C7
:104C4000BAF80830002B40F00B81BAF80A20002A8D
:104C500040F00681BAF80C20002A40F00181BAF831
:104C60000E20002A40F0FC80BAF81020002A40F004
:104C7000F780BAF81220002A40F0F280BAF8142027
:104C8000002A40F0ED80BAF81620002A40F0E880B3
:104C900045F04005DFF8C0A19AF81830FF2B40F02E
:104CA00074819AF8190045F008020228BAF81A101F
:104CB0003B6840F01781002940F05481BAF81C107D
:104CC000002940F01181BAF81E10002940F00C8133
:104CD000BAF82010002940F00781BAF82210002904
:104CE00040F00281BAF82410002940F0FD809AF8C3
:104CF0002610002940F0F8809AF8272045F00B058F
:104D000003F8012B3B602823009A1370524A9379D1
:104D1000112B31D14FF2B00E178DB2F82AC0390ADB
:104D200041EA072189B24FEA1C2747EA0C2721F004
:104D30000F0C48481FFA8CFCF4450368BFB240F0E2
:104D4000628127F00F0EE64540F05D81F321197076
:104D5000118D02330F0A518D090A01EB071101F57C
:104D6000AA6103F8011C03600368D28D23F8022BAB
:104D700003603023009A1370019B1A68237802F8AD
:104D8000039013445D70334B1B689B1A23703146AC
:104D9000102002F053FD314B1B68984730EA200089
:104DA00028BF1520009A029B92F800901B88257856
:104DB000C0F17D07A3EB0902791B8A4240F31982F7
:104DC000C0F1780893FBF8F502F090FA01388542BB
:104DD000C0F26881002007B0BDE8F08F2946C4E624
:104DE0000546EBE63B68BCF1000F0FD111F0F00F68
:104DF0000CD122F03F0211431970BAF8022003339C
:104E000023F8022C4FF068093B60FFE6DAF8002037
:104E10004FF060091A6003F8040B3B60F6E64FF0B0
:104E20007809F3E649F002090AE749F0030907E7C0
:104E30003A6802F8013B3A6002E700BFF61E002024
:104E4000F51E00208C090020140B002060AB200010
:104E5000DC200020040B0020EC20002054A82000BF
:104E600089480393FFF7B2FD884A039B106078B12D
:104E7000427818F80B30844943EA021308F80B30E3
:104E8000834A0420FFF73AFD60F03F00C5B201E716
:104E900048F2FE02934210D1BAF81A306BB9BAF850
:104EA0001C3053B9BAF81E303BB9794A7649042010
:104EB000FFF724FD0543EDB2ECE63A68DFF8C8E100
:104EC00094460EF1100A734603CB5345CCF800000C
:104ED000CCF804109E460CF1080CF4D16D4B103246
:104EE0001A60D7E600293DD16B49B1F81CE08C4629
:104EF000BEF1000F36D1B1F81EE0BEF1000F1BD19C
:104F0000B1F820E0BEF1000F16D1B1F822E0BEF1F9
:104F1000000F11D191F824E0BEF1000F0CD11A4618
:104F200002F8010B31F8250F45F00A05A3F801003E
:104F3000897804339170E5E6BCF81E1091B9BCF88D
:104F4000201079B99CF8221061B91A46534902F829
:104F5000010B086845F00905C3F80100097906331B
:104F60001171CFE61F46DFF838C10CF1100E65460F
:104F700003CD754538607960AC4607F10807F6D176
:104F8000444910330B601546BDE60AF11800FFF7DF
:104F90001DFD3E4B186080B1427818F80B300020A0
:104FA0001343324645F0040508F80B300AF11801A6
:104FB000FFF7A4FC0543EDB2A5E648F2FE03BAF8FC
:104FC00018209A420CD1BAF81A304BB9BAF81C30F2
:104FD00033B9BAF81E301BB932460AF11801E7E7B7
:104FE0003A68DFF8BCC017460CF1100E634603CBDD
:104FF0007345386079609C4607F10807F6D1254B68
:1050000010321A607FE607F47F47B7F5704F09D179
:10501000F1211970118DA3F80110518D090AD97071
:105020000433A0E601F47F41B1F5704F07D1F221BE
:105030001970118D090A5970518D5980F0E7F021CE
:105040001970916A053343F8041C8CE6412388F8F3
:1050500000300BF10103DBB2984409F128024B4602
:1050600003CB9342C8F80000C8F80410994608F131
:105070000808F4D1009B009A1B780BF1290B283308
:1050800084F800B0137082E6F4200020900900201C
:10509000E4200020040B0020EC2000200F21002041
:1050A0000421002000225C4B25781A600393019BA9
:1050B0002A46D3F800900435494609F1040003F06C
:1050C00021FE029B55491A88EDB2120A62F03F0296
:1050D00089F800201A88009B89F801200A887F1B24
:1050E000501C0880110A89F80210DFF834A11978E1
:1050F00027F00707DFF82CB189F8032051443A461E
:1051000009EB05002570CBF8007003F085FDE81968
:1051100080B202F0A5FA02F0EFF8039B054699462B
:105120005F4600283FF456AE3046FFF763FC284642
:1051300002F01AF9284602F001F9D9F80030012BE3
:105140003FF448AE043B012B7FF644AE009B28F0B1
:1051500007001D78DBF80030CBF800001D44052364
:105160002370019BDFF8C0B01A68029BADB21B88A8
:105170001B0A63F01F031370029B1B885370BBF85C
:105180000030AB4201D8012025E6019A5B1B106874
:10519000EA0802713A6894F800809342B8BF3B6015
:1051A0003B680AEB05011A464044009303F034FDC6
:1051B000009B08EB030080B202F052FA02F09CF868
:1051C000804600283FF406AE3046FFF713FC404609
:1051D00002F0CAF8404602F0B1F83B681D44D9F825
:1051E0000030ADB2012B3FF4F5AD043B012BC6D826
:1051F000F0E5019B0A4918684944284403F00CFD76
:10520000029B18882844A0EB090080B202F028FA1B
:105210003046FFF7EFFBB6E70C0B0020CA12002068
:10522000EC200020100B0020DC2000202DE9F843AA
:105230008046894617464B4D002A57D02B8A834219
:105240000AD16B8A43B10F2002F004FB01462846C5
:1052500005F03BF8002840D1B5F8C83043453ED1B1
:10526000B5F8CA30002B3AD00F2002F0F3FA01460D
:105270003D4805F02AF890B301245FFA84F83946D6
:105280004046FFF7DDFB00281DDA6E8A4EB15CB3A5
:10529000364803F0E6FF064618B10020FFF7FEFA95
:1052A0000646B5F8CA3043B13CB9314803F0D9FFDE
:1052B00018B10120FFF7F2FA0644002E0FDD39463F
:1052C0004046FFF7BDFB002809DDB82303FB04556A
:1052D000AB8A64B21844A88203E00024CDE74FF003
:1052E000FF342046BDE8F8832646DAE76B8A33BBF5
:1052F0000024B5F8CA308BB31D4803F0B2FF10B1DB
:105300000120FFF7CBFA631C2AD1B5F8CA30002B75
:10531000E7D10124B8266643AF19A7F81290A7F881
:1053200010800F2002F096FA0146384604F0C8FFBC
:1053300006F118004021284403F081FFD1E705F170
:10534000180003F08EFF28B96B8A002BD0D04FF0E5
:10535000FF34CEE73846FFF7A1FAF5E70134D8D09D
:105360000024D7E7940900204C0A0020AC09002053
:10537000640A00202DE9F04F002787B0DFF81C8277
:105380007C4C0F2002F066FA02F0E8FA88F8007010
:10539000277002F081F9784DA2462860042002F0BF
:1053A00047FA2A68754B168800B276BAB6B218600A
:1053B000331203F0F803C02BCDF8008007D0E02BA8
:1053C00000F0EE80B946B8466D4C3E4617E0508876
:1053D0002378C6F30A0640BA04333A46314680B20F
:1053E0002370FFF723FFB0F1FF3F814600F070828A
:1053F000B8244FF00108634B04FB003422342B68BF
:105400009AF800105A5C02F0E000602840F02B820D
:10541000881C18440B445D78DFF86CC16FB2002F14
:10542000CCF80000BCBF0130CCF80000D0066146CB
:1054300002F0080C00F153810B68BCF1000F40F042
:105440003B81184630F801CFA4F801C08078E070A5
:1054500013F8040B0B60830803F00F0141F06001A7
:105460002170617803F0300343EA801301F00F01EB
:105470000B43637012F00403019305D142490B689A
:1054800013F8010BA0710B6012F003020BBF3E4A30
:105490003E4B13689B5C09BF13F8011BE37113605B
:1054A000E1716B06C5F3011240F14881002FBDBFC9
:1054B000314B9AF800101B680023BEBF5B189B7825
:1054C0001B09002A40F02C8104F1080B002A40F04F
:1054D000318111462E4B0F209A5C0391029202F00B
:1054E000B9F9DDE9022103465846FFF7DBFA05F07A
:1054F000030205F0040315F0080500F02B81ABB999
:10550000244B1B88ADF81430531E012B06D81E49BE
:105510000B6813F8010B8DF815000B6000231E4972
:105520008A5C05A904F11800FFF7BCFA009B009AF9
:105530001878154900F128031370019B002B00F027
:1055400043810B681A7802F0F802F02A40F03C819F
:105550001122A2711A7802F0040502F0F302F03A67
:10556000032A00F24A81DFE812F01E014B015801C4
:10557000620100BFF51E0020140B0020080B002064
:10558000EC20002094090020040B00201BAB20001D
:105590001FAB20000CAB200027AB2000F61E002024
:1055A00092F804B05088227840BA0532C6F30A0651
:1055B000227031465A4680B2FFF738FEB0F1FF3F05
:1055C000814600F08581B822B2494FF0010802FB04
:1055D0000012958A3C46B54234BF0025012502F0F1
:1055E00049F89AF80020824200F2728102F042F8F3
:1055F0009AF80010A84A431A01931360009B019A7D
:1056000093F800A00AEBCB03134440F214529342E8
:1056100000F25E813CB1A14B019A1B6804EB0A00C9
:10562000194403F0F9FA002E00F04C814FB1019BB0
:1056300098490AEB0302B82303FB091392B29A823A
:105640001A84002D00F04781B823002403FB09F3DE
:105650009049934DCA18223396821944128C91486E
:10566000904F03F0D9FAEB1C29198A7852B1605D8A
:10567000814507D14878191907EBC000009303F062
:10568000CBFA009B40F24C5271349442ECD15FFA59
:1056900089F0FFF703F9B8F1000F00F01F81824B8A
:1056A0001E80824C236823B1FFF770F923685B6882
:1056B000984700F093F90BE16020207093F800C048
:1056C00003334FEA9C0000F030000CF00F0C40EA6E
:1056D0000C00607033F8020C60800B60CAE6BCF10D
:1056E000000F12D10B681878C0F3830040F06000FF
:1056F000207013F801EBA4F802C04FEA9E0000F0FE
:10570000300040EA8E106070E7E7602323800023BA
:105710006380AFE690F801C09C4506D10860D3E6EF
:105720006348017801296349F4D000250D6047469C
:10573000AB4654E75F4B19680231CBE65E4B0F2056
:1057400013F802B002F086F85A4603465B4904F1AA
:105750000800CAE6F3B1002F07DA504B9AF80010A0
:105760001B680B449D7805F00F05514F3B78012BCA
:10577000504B02D17978A94202D000251D60D6E7AE
:105780001F604F4B10209D5C02F064F82A460346D0
:10579000B91CC7E6484B10209D5C02F05BF82A4616
:1057A00003464649BEE6B3F801200533228533F8A7
:1057B000022C62850B6025B90B6833F8022BE28559
:1057C0000B60009B30301870344A0B6812689B1ACB
:1057D0008AF80030002E40D101F04CFF9AF80030DA
:1057E000C01A009B1B78184428380312237160717B
:1057F000A379112B01D1A388A3854746002597E7FC
:10580000B3F801202285DA78A2F5805292B2120212
:1058100042F0F00262850433CCE75A78A2F5805258
:1058200092B2120242F0F00222855A88F2E75A78C8
:1058300002331209A2F5756292B2120242F0F0022E
:10584000228513F8012C02F00F02A2F5756292B2C4
:10585000120242F0F0026285ACE7A6F128031A12A8
:1058600022716371C4E7412A32D14A1CD2B2134477
:10587000224603F1280053F8045B834242F8045B9C
:10588000F9D1009B009A1B78293128338AF800103F
:105890001370B2E794090020100B0020140B0020B5
:1058A000A9190020EC200020DC2000208C09002019
:1058B0009F1900209009002023AB20000EAB200090
:1058C0001FAB2000B8F1000F08D0002D7FF4E7AE29
:1058D00007B0BDE8F08FB8F1000FF9D1019B9A44F1
:1058E000014BA3F800A0DCE6DC2000202DE9F74303
:1058F000054628B9244803B0BDE8F043FCF7BCBD19
:105900000488BCB94388B3B984889CB9C38893B967
:10591000048924BB4FF6FF7342899A420BD1837BE3
:10592000427B017BC07B00901848FCF7A5FD03B0CB
:10593000BDE8F08300242646DFF85480DFF8549059
:10594000AB19A95D5F7807EB0127BFB277B9002CCF
:105950000EDB06D001340236102EF1D1E7E71C46EB
:10596000E9E74846FCF788FD0124F4E7002C08DC51
:1059700016B13A2003F0BDFB39464046FCF77CFDEA
:10598000E9E74FF0FF34F7E72BAB20003AAB2000FC
:1059900050AB20004DAB2000024B1B6803B11847F1
:1059A00018467047180B0020014B1860704700BF65
:1059B000180B002007B5074B8DF80700186828B1B1
:1059C000054B0DF107021978FDF78AFB03B05DF86E
:1059D00004FB00BF142600201229002008B5002275
:1059E00002210448FDF77CFB0023034A1380034A8D
:1059F000137008BD3C010020DC2000209C19002011
:105A000038B5284D2B88002B31D0B3F5A06F04D9C1
:105A10000023254A2B80137029E0244C238B73B973
:105A2000638B63B9A38B53B9E38B43B9238C33B92D
:105A3000638C23B9A38C13B9E38C002BE8D001F05D
:105A400081FA0028E4D0237EFF2B28D01848FDF7E8
:105A50006FFEE8B91648FEF7D1F8044640B9FEF7E4
:105A60004DFA0028D4D0FEF799FD98B9288038BDAA
:105A7000FEF7A0F80028F6D1E36923B11B6A93F87A
:105A8000940003F09DFF2046BDE83840FEF7E8B8DB
:105A90000748E8E7FEF77AFDFFF77EFFB8E700204A
:105AA000FAE700BFDC2000209C190020EC20002039
:105AB0000421002038B5044623881046002B43D02B
:105AC00040F24B32934250D1022932D006D80129FC
:105AD00027D040F24B330120238038BD872907D0DF
