:020000040020DA
:10000000B84400208D0220002FA320002DA3200043
:100010002DA320002DA320002DA320000000000010
:10002000000000000000000000000000E9B4200013
:100030002DA320000000000007B52000D1A3200060
:10004000E3A32000E9A32000EFA32000F5A32000F4
:1000500000000000D7A32000DDA320002DA3200076
:100060002DA32000000000000000000000000000A0
:1000700000000000000000002DA320000000000090
:1000800000000000000000002DA320002DA3200090
:100090002DA320002DA320002DA320002DA32000A0
:1000A0002DA320002DA320002DA320002DA3200090
:1000B0002DA320002DA320002DA320002DA3200080
:1000C0002DA320002DA320002DA320002DA3200070
:1000D0002DA3200000000000000000000000000030
:1000E0000000000000000000000000000000000010
:1000F00000000000000000005D1920006D192000C4
:1001000000000000000000000000000000000000EF
:1001100000000000000000000000000000000000DF
:1001200000000000000000000000000000000000CF
:1001300000000000000000000000000000000000BF
:1001400000000000000000000000000000000000AF
:10015000000000000000000000000000000000009F
:10016000000000000000000000000000000000008F
:10017000000000000000000000000000000000007F
:10018000000000000000000000000000000000006F
:10019000000000000000000000000000000000005F
:1001A000000000000000000000000000000000004F
:1001B000000000000000000000000000000000003F
:1001C000000000000000000000000000000000002F
:1001D000000000000000000000000000000000001F
:1001E000000000000000000000000000000000000F
:1001F00000000000000000000000000000000000FF
:1002000000000000000000000000000000000000EE
:1002100000000000000000000000000000000000DE
:1002200000000000000000000000000000000000CE
:1002300000000000000000000000000000000000BE
:1002400000000000000000000000000000000000AE
:10025000000000000000000000000000000000009E
:10026000000000000000000000000000000000008E
:100270002DA320004118200065182000E50E200065
:10028000CD1A2000F90920002DA32000FF224824C8
:1002900008B5084B08481A60084AE369121A084969
:1002A00098470848084AA369121A0021984700F0A5
:1002B00037F8FEE7B4200D4040000020870A0020F8
:1002C000D8C12000880A0020B33C002008B500F007
:1002D00019F80022014B1A7008BD00BF52260020F9
:1002E000024A13781843107000F014B85226002008
:1002F000034A137823EA0000107000F00BB800BF27
:1003000052260020024A136843F00F03136070471F
:1003100000B40D40014B1860704700BF3CB00D4069
:10032000F7B500F0B7FC00F071FD00F0CDFC00F077
:10033000C7FA01F0B9FB0AF018F900F05FFDFFF70A
:10034000C5FF022009F0F6FF02F0D6F900F08EFC9E
:1003500000F0F6F9002000F0A7FB012000F0A4FB5C
:100360004649002000F06CFC02F00EFB62B604204F
:1003700009F0E0FF42480AF061F842480AF05EF8EE
:1003800000F03AFA404801F0EFFB404B404C18684F
:100390000AF054F83F4801F0E7FB3F4B002518688E
:1003A0000AF04CF83D4801F0DFFB3D4B3D4F18682B
:1003B0000AF044F8002002F00BFB01F067FA00217C
:1003C000394802F027FA02F08DF80821684601F05A
:1003D00091FB9DF806309DF8076046EA03266B46C0
:1003E00003CB20603148616001F0BEFB615D38469F
:1003F000013501F0B9FB072DF8D12D4FE1792D48DA
:1004000001F0B2FBFD6A4AF6CD310220A847314621
:100410000320A84719210120A84769467B6B0822C1
:100420000B20984700F082FD00F09EFD06F0CEFE06
:10043000214A236813606368536006F0F5FB0021CE
:100440001E4802F0E7F900F003FD00211C4802F00D
:10045000E1F90AF05FF81B480AF04BF800F00CFCD9
:10046000082009F067FF00F00DFC02F05DF910F0C4
:10047000FF0FF8D101F0AEFAF5E700BF41292000E7
:1004800068BC200084BC20009CBC2000FCBB200079
:10049000AB3C0020A3BC200014BC2000AABC200060
:1004A00030BC2000CFBC2000BC040020B1BC200028
:1004B00034BB2000D5BC2000343400205C05002073
:1004C0007004002060BC20002DE9F041048806463D
:1004D000772C20D07E2C3DD0002C4ED102F004F998
:1004E000284D294B294FDFF8B08018702C602B68FD
:1004F00057F823202AB9264A137077233380012026
:100500003EE008F8034093680021802098472B685C
:1005100001332B60EBE700231E4A1360194A136076
:10052000184B1B4A1B6812789A4204DC194B1B6853
:10053000002BF0D1E1E7184AD256002A19DA134A03
:10054000002052F82320104B197802F03BF928B90B
:100550007E23D3E70C4B1B788B42D0D1094B0E493D
:100560001A688B5C03F07F038B540A4A13680133CB
:100570001360044A13680133D1E70023038003208A
:10058000BDE8F0819C0A00209E3C002080040020F1
:1005900053260020980A00209F3C002010B40A4BEC
:1005A0000A491A780023934203DA51F82340A04203
:1005B00008D107490748CA5C62F07F02CA5410BCE0
:1005C00002F040B90133EEE75326002080040020FA
:1005D0009F3C00207004002010B501240821084829
:1005E00009F0D4FE04220321002000F01DFC054B7D
:1005F00003221C600021044800F0B8FB204610BD17
:1006000000900D4000E100E0DD06200008B510215B
:10061000084809F0BBFE04220220114600F004FC49
:100620000422054B02211A60044800F09FFB0120C0
:1006300008BD00BF00B00D4000E100E0DD06200075
:1006400008B52021084809F0A1FE04220521022056
:1006500000F0EAFB0422054B02211A60044805223F
:1006600000F084FB012008BD00B00D4000E100E077
:10067000DD06200008B54021084809F087FE042265
:100680000621022000F0D0FB0422054B02211A6053
:100690000448062200F06AFB012008BD00B00D40AE
:1006A00000E100E0DD06200008B58021084809F0DF
:1006B0006DFE04220721022000F0B6FB0422054B48
:1006C00002211A600448072200F050FB012008BDF7
:1006D00000B00D4000E100E0DD06200038B5054621
:1006E00011480C4609F055FFE8B110210E4809F0F9
:1006F0003EFF35B9032C16D10C48BDE83840FFF752
:100700004DBF022D0FD1042C01D10948F5E7052C6E
:1007100001D10848F1E7062C01D10748EDE7072C85
:1007200001D10648E9E738BDA00A00209CBA2000A4
:100730007CBA20008CBA2000ACBA20006CBA200031
:100740000021014809F013BFA00A0020FF2310B5C3
:10075000064C4FF4FA60236000F0ECF830220021E0
:10076000062000F07DFB0023236010BD00920D40A9
:10077000802870B51ED100240F4E104D33682246DC
:1007800023F0800333602B68072143F080032B6044
:100790000B4B20461C6000F047FB3368012223F01E
:1007A000400333602B68062123F040032B60204672
:1007B00000F03AFB002070BD20940D4000940D40E5
:1007C00000920D40044B1868C0F30720030904BFD2
:1007D0001030C0B2704700BF1C300D40054B186888
:1007E000C0F3C21001289ABFC0F1020040034FF4C9
:1007F0000040704714300D402DE9F047482588B07F
:10080000FFF7E0FF164B07461C68AB6898476B681C
:10081000804698470546FFF7E1FF064600F08EFA4E
:10082000814600F097FA824600F044FAB60A04F0D6
:100830000103AD0AC4F34004CDE905A00393CDF84C
:10084000109002940196009507F00F03C7F307126A
:100850004146044801F088F908B0BDE8F08700BFC0
:100860001C300D40EEBC20002DE9F04800F086F869
:10087000114B4FF0000BD3E900673A46B04238BF46
:100880007A1C15464BEA0004C3E900450B49D1E93F
:1008900000BCBBEB06026CEB0703161943EB050724
:1008A000C1E9006701F0BEFD18B1BDE8F04801F0F4
:1008B0003DBDBDE8F08800BF900A0020880A0020F6
:1008C000E0210D4B0D4A5A600D4A82F82310002298
:1008D00007219A6019600B490B6843F001030B6014
:1008E000094B1A60042243F80C2C012243F8082C0F
:1008F0000F22DA62704700BF10E000E047E8010015
:1009000000ED00E008200D400C000340034BD3E94C
:100910000023100A40EA0360704700BF900A0020DD
:10092000034BD3E90023D00B40EA4340704700BF9C
:10093000880A0020054B18601C3B1A6842F001022F
:100940001A601A68D207FCD4704700BF2800034021
:1009500010B5064C236823F001032360FFF784FFE2
:10096000236843F00103236010BD00BF10E000E0E6
:10097000014B1868704700BFA80A0020064B186892
:100980005A6808331B681B0443EA0223034A0343E3
:10099000106843EA0060704740500D404C500D40D5
:1009A000014608B5104A1368DB07FCD572B6FFF79D
:1009B000E5FF0B1A062BD8BFC11D0C4B0A0E1A609F
:1009C000C1F3074243F8042CC1F3072243F8082C73
:1009D000CAB243F80C2C62B64FF40032044B1960D3
:1009E000044B1A6108BD00BF50500D404C500D40E3
:1009F000A80A002000E100E008B500F0D3FF0022C3
:100A0000064B1A604FF40032054BC3F89021C3F82F
:100A10009020BDE8084001F033BF00BFA80A0020C5
:100A200000E100E0064B1B681B075FBF054B186821
:100A300080F00800C0F3C00048BF0020704700BF2E
:100A400018C0004018D000402C23154A70B503FB95
:100A500000234FF6BF72DC680546236C626413F016
:100A600050020DD00F4EA369DB0600D570BD56F8BD
:100A700025301BB12068C0B29847F4E72368F2E73D
:100A800013F4D06FF2D04FF440732363FF236360FD
:100A9000E36AE262E362236B43F001032363E5E769
:100AA000CCBA2000AC0A002001282DE9F74F0646F9
:100AB00000F2B4802C2545435A4F7C1994F92080CC
:100AC000B8F1000FC0F2AA8094F92290B9F1000F9A
:100AD000C0F2A480544800F0D7FF544A79591368F3
:100AE000E5680B4313605368616894F921A00B43D8
:100AF00053609368A1685FFA89FB0B4393600023FE
:100B0000C5F8C83F23690AEBC8021A6094F923307C
:100B1000227D00939DF8003058461946019300F05D
:100B20008DF9019B08221946584600F07DF90123F2
:100B30003F494FEA0939009A59F8010003FA02F2D5
:100B4000024349F801204FEA083858F8010003FA37
:100B50000AF2024348F801205022AA63AA6B94F9D2
:100B6000240042F4D062AA6302226A634FF4407206
:100B70002A63A26900286A62E269AA624FF07002E1
:100B8000EA620D4614DB94F925102A4A41EAC004B2
:100B90001460020354598B4023435351C9B20022BD
:100BA000C0B200F041F9244A136843F400431360D3
:100BB0002C2303FB067393F92640002C1BDB93F9CF
:100BC00027A05FFA84F85FFA8AF901224946404675
:100BD00000F034F901232403625903FA0AF31343A2
:100BE000635108224946404600F01EF9124A136834
:100BF00043F4804313602C2303FB0676F268136BE7
:100C000043F001031363012296F82830590903F0D9
:100C10001F0302FA03F3094A42F8213003B0BDE88A
:100C2000F08F00BFCCBA2000250A200028200D40FC
:100C300020940D4004410D4030D0004000E100E020
:100C400001289CBF014B43F820107047AC0A0020DC
:100C5000012808D82C22044B02FB0030C3689A6993
:100C60009206FCD419607047CCBA20000022014BD8
:100C70001A60704700500D400822014B1A607047FF
:100C800000500D40A022024B1A6050221A6070479B
:100C900000500D40014A024B9A607047000020004E
:100CA00000ED00E0024B1868C0F38150704700BFB0
:100CB00004200D4008B5FFF7F5FF024B53F8200064
:100CC00008BD00BF24BB200038B5164D164C2B685C
:100CD000012223F040032B602368062123F0400308
:100CE0002360032000F0A0F82B68012223F080038A
:100CF0002B602368072123F080032360032000F08A
:100D000093F80A4B0A4A0B491A600B4A13461068BB
:100D10000842FCD11A685101FCD41A685201FCD572
:100D200038BD00BF20C40D4000C40D4000200D4060
:100D3000010102000000010104200D40034B0448A2
:100D40001B6803F007031841704700BF04200D40E3
:100D50000048E801034B04481B68C3F30223184111
:100D6000704700BF04200D400048E801024B02EB31
:100D7000C10243F822007047B40A0020F8B50746C4
:100D80000E460024084D05EB411547FA04F3DB0736
:100D9000E1B204D555F824300BB130469847013400
:100DA000082CF2D1F8BD00BFB40A00202DE9F047AD
:100DB00080464FEA0837DFF8409007F1804505F597
:100DC000592500F0EFFDD5F8186457F809404FEAAF
:100DD000C80A24FA0AF446EA0400E4B24146C0B262
:100DE000F6B204FA0AF4FFF7C9FFC5F81C6447F825
:100DF0000940BDE8F08700BF18970D408022002110
:100E0000014808F0DFBE00BFB40A0020034B044ACB
:100E10001A60044B803A1A60704700BF340B002000
:100E200080400D40380B0020034B01EBC0011B68D4
:100E300043F82120704700BF340B0020034B01EB27
:100E4000C0011B6843F82120704700BF380B002009
:100E5000024A136843F030031360704700700D407E
:100E60000E2870B50BD1154B154E1C6844F00205C9
:100E70001D60356825F03F0343F001033360114ED8
:100E8000336823F0FF031A43114301430E4A3160D4
:100E900013681B06FCD50D4B0D4A1B6812680E2803
:100EA00003F0FC0343EA022308BF054A1BB204BF58
:100EB0001560024A184608BF146070BD3400014432
:100EC000F486084008700D4000700D400C700D4015
:100ED00010700D40024B1868B0FA80F0400970475E
:100EE00000B708404FF40042064B10B5064CC3F85B
:100EF0009021C3F89020206818B101F0A3FC0023D2
:100F0000236010BD00E100E03C0B0020064A13689E
:100F100043F002031360536843F002035360936885
:100F200043F002039360704748200D4007B50C481A
:100F300000F0AAFDFFF7EAFF0A4B1A6842F002022E
:100F40001A6000220192019A0F2A06DD1A6822F027
:100F500002021A6003B05DF804FB019A0132F1E766
:100F6000D50E200054200D40064A136823F00203DA
:100F70001360536823F002035360936823F0020365
:100F80009360704748200D400B4B1A689207FCD4C1
:100F90001B685B065FBFED22084B1A601A60084BA6
:100FA0001B6813B1EF22054B1A60064A0120137823
:100FB00003F07F03137070474C8608403888084060
:100FC0002C86084056260020044B186800F02200AA
:100FD000A0F1200358425841704700BF4C8608409A
:100FE000024B186800F04000704700BF4C86084074
:100FF000204B1870002832D01F4A13681B03FCD501
:101000001E4B1A6842F002021A601A6842F001028E
:101010001A601A685007FCD51A6822F001021A609B
:101020001A685107FCD41A6842F002021A601A6862
:1010300042F001021A601A685207FCD5104A136880
:1010400023F004031360D2F8A83123F00403C2F89C
:10105000A8314FF400520B4BC3F890207047084A58
:10106000136843F0040313604FF40052054B1A61F8
:10107000704700BF5526002004200D40048808401A
:101080008C86084000E100E0084B93F90020002A1C
:1010900009DBED21064A11601160E32111601A7825
:1010A00062F07F021A700120704700BF56260020B0
:1010B00038880840A0F10B01CBB20F2B10B50446C5
:1010C00013D80B4B1B6813F03F0302D0FFF75CFFF4
:1010D000012301EB8101074A0B3111600BB1FFF7CE
:1010E000D3FF054B60B21C7010BD4FF0FF30FBE723
:1010F000488608403C860840820A002010B50C460D
:10110000002900F08680102800F28580DFE800F0DA
:1011100009101B22243B44575C727683837B7D54E9
:101120007F003E4B1B68003318BF0123236024E07F
:1011300005223B4B1B6803F07F030B3B93FBF2F351
:101140000B33DBB2F2E7374B1A68043B1B6843EA08
:101150000223EBE7344BF7E700230B60334B344AB1
:101160001B6803F001030B601268900644BF43F054
:1011700002030B602F4B1B780BB900200BE00B68B0
:1011800043F00403D2E700202B4B08601B78002BB0
:10119000F3D001230B6010BD284B29491A680023A6
:1011A000D2B201EBC3000079904202D851F833303B
:1011B000BCE701330E2BF4D16FF01703B6E7214BD8
:1011C0001B685BB2493BB1E71F4B1B6899060FD107
:1011D000FFF75AFF01231D490A68D207FCD51C4AB4
:1011E0001168493949B20BB1FFF7CEFE2160C4E75F
:1011F0000023F0E7174B93F9003097E7164B1B7865
:1012000003F07F0392E70B2390E71A238EE707236F
:101210008CE70220BFE70120BDE700BF2C86084015
:101220003C860840CC850840D485084000860840AC
:101230002486084055260020830A00204086084066
:101240006CBB2000588608404886084064860840E9
:1012500060860840572600205426002008B50B4B16
:101260001B6899060FD1FFF70FFF012308490A6891
:10127000D207FCD5074A1168C1F300110BB1FFF783
:1012800083FE084608BD0023F0E700BF48860840FB
:10129000648608404C86084010B5072861D8DFE80E
:1012A00000F0040F1A212541475B012903D1FFF704
:1012B000EBFE00203BE0002955D1FFF765FEF8E783
:1012C000A1F10B030F2B4ED8C8B2FFF7F3FE01308C
:1012D000EFD103202BE089B2244BCAB2090A1A606D
:1012E0005960E6E789B2CAB2214BF7E731F007034C
:1012F00039D1204B11F0010F1A68C1F3800014BFDF
:1013000042F0010222F001021A601B4B11F0020FA1
:101310001A6814BF42F0200222F020021A60FFF780
:1013200067FEC6E731F001001DD1144B197010BDE6
:1013300001F118031F2B16D80D23114A52F8334020
:10134000D800A14204DC024412790E4B1A60B0E7C7
:1013500013F1FF33F2D2ACE7C9B20B4B493119603C
:10136000A7E70120E3E70220E1E700BFC8850840C6
:10137000D08508400086084024860840830A002063
:101380006CBB2000408608405886084038B50546AA
:101390000C46134A13689B07FCD4124B93F9003098
:1013A000002B01DBFFF770FEEE220F4B691E1A6067
:1013B0001A60A21C43F8102C2144022000F080FA8D
:1013C0000A49013C41EA0411022000F08BFA022094
:1013D00000F092FA022000F0A7FA002038BD00BF0A
:1013E0004C860840562600203888084002C001C0BC
:1013F000F8B5224B93F90030002B18DBFFF7BEFA4B
:101400000446FFF741FEC4F1FF2404F57F04F634DF
:10141000FFF7B4FAC442FBD40126194B1B7843B939
:10142000184C2368990609D502210846F8BD002604
:10143000F3E7FFF713FF0028F2D1F5E7E9230427CC
:10144000114D2B6023689A0703D4013F17F0FF0763
:101450000BD123689B070CD4EE2301212B602B605A
:10146000002EE2D0FFF790FDDFE70620FFF762FADB
:10147000E8E7216811F00201FBD1F1E756260020D0
:10148000830A00204C860840388808400B280DD17C
:10149000082A0DD161B1074B074A083111F8010D37
:1014A00043F8040B9342F9D10020704701207047A4
:1014B00002207047A8850840C885084070B5304EA6
:1014C000336813F0400358D02E4D2C68230605D501
:1014D000ED2200202C4B1A601A6070BDE4B2042C7F
:1014E000F6D9023C8C42F3DCE4B2032C1ED12B680B
:1014F00003702B6843702B6883702968234B49392C
:1015000049B219702B68224D18062B70E0D589B2AC
:10151000042005F031FE2978032001F07F0105F059
:101520002BFE1C4B1B78CBB12046D6E701190139A5
:10153000032000F0CDF9184B611E43EA011103208E
:1015400000F0D0F9032000F0D7F9032000F0ECF907
:10155000032000F0F5F90028FAD1CEE733685A06E7
:10156000E2D533681B0603D50C4801F06BF9DBE7C5
:10157000ED22054B1A601A60D6E71846ADE700BFAA
:101580004C860840288808403888084057260020A4
:10159000542600205526002002C0010CA40400207F
:1015A000F8B5294F3D7815F001054BD10124F822FB
:1015B000264B7F261C605C609C60A3F59323A3F5FB
:1015C00014731A600922C3F89021152270331A602F
:1015D0000B2203F59B2303F59E731A604022A3F5AB
:1015E0009B23A3F5F0731A601A6842F020021A6078
:1015F000D52243F81C5CDE62DA61154B1878FFF7E0
:1016000059FD4FF48042134B02201E60124B1A61A9
:1016100000F07EF91149022000F05AF9032000F091
:1016200077F90E49032000F04BF90D4B1878FFF7BE
:10163000DFFC0C48294601F0EDF820463B782343B7
:101640003B70F8BD0020FCE756260020A8200D4086
:10165000820A00209486084000E100E028880840C3
:1016600055260020A404002038B50388044653B34F
:1016700040F20342934233D11B4B18781A4638BBD1
:10168000822923D1137873B905F01CFD05F0B0FC55
:101690008021FFF713FF002805DD80B205F08CFCE8
:1016A000124B1B699847124B1A7852060BD5002231
:1016B0001A70104B1D68FFF767FCFFF771FFAB0650
:1016C00001D0FFF7E1FC40F20343238001200AE050
:1016D0001B78002BFAD0064B1B785806F6D5CFE7BF
:1016E00000230380032038BD5526002030BC200095
:1016F00056260020488608400B282DE9F74F8A46D9
:1017000013D1082A40F08680002900F08380424BE4
:10171000424A01F1FF3A53F8041993420AF8011FB3
:10172000F9D1002003B0BDE8F08F0C2870D1042A55
:1017300070D100296ED03A4A3A491368DFF8F09028
:1017400023F0070313600B68DFF8E88043F0080319
:101750000B60D9F80030D8F800401068DFF8D8E006
:10176000DFF8D8C020F070001060DEF80000DCF870
:101770000050DBB2240243EA0563A4B20004234311
:1017800000F47F00034328480668F4B20194002463
:101790000094DDE9006746EA0306136823F00703B7
:1017A00043F0010313600B6843F008030B60D9F8A2
:1017B0000030D8F800101568DBB225F0700545F050
:1017C00010051560DEF80020DCF80050090243EA3D
:1017D000056389B212040B4302F47F0213430268CB
:1017E0000098D1B2894640EA0308FFF7C7F8B6EB84
:1017F000080667EB0907F90305460C4A0023F003C6
:1018000041EA564107F09EFC281ACAF8000088E712
:10181000012087E7022085E7C4850840A4850840A9
:1018200010880840048808401C8808400048E801E7
:1018300014880840188808402488084020880840F8
:1018400008B5054B1B7813B9044800F0FBFF0022D4
:10185000034B1A6008BD00BF55260020A4040020D9
:1018600034880840064B07481A68042A1FBF0649F7
:101870000A7842F040020A7000221A6000F0E2BFCB
:101880002C880840A40400205626002008B5094BE7
:1018900040220021184608F095F90121064A074B1D
:1018A000116050604FF480425A604FF400425A6019
:1018B00008BD00BF0000002004F00F4000E100E080
:1018C00003289EBF014B0001195070470000002003
:1018D00003289EBF024B03EB00104160704700BF1E
:1018E0000000002003289EBF024B03EB0010816024
:1018F000704700BF00000020032806D80123034AD8
:1019000003FA00F0116808431060704728F00F4098
:10191000032806D80123034A03FA00F0116808439C
:101920001060704720F00F40032806D80123034AB7
:1019300003FA00F0116808431060704714F00F407C
:1019400003289FBF044B03EB0010806800F00700E2
:1019500088BF0020704700BF000000204FF0FF321A
:10196000014B1A60704700BF04F50F400122014B84
:101970001A6070474CF00F40084B19461A68D002A5
:10198000FCD4074B1A6822F480321A600A68D2032A
:10199000FCD41A6842F400321A60704704200D40EB
:1019A00000200D4010B5094C226890070DD0084B5F
:1019B0001A4619684901FCD413685B01FCD5FEF78F
:1019C000C7FFFFF7D9FF0023236010BD58200D404B
:1019D00004200D4038B5264B1C6814F03F0414D188
:1019E000244D55F8243023B1984770B10134052CAB
:1019F000F7D1214D2B7843B1FEF7BAFF0446FEF72D
:101A0000BDFF201A092800D90CB930BF27E01B4BB5
:101A10001A6822F400321A60194A11461068C0028E
:101A2000FCD41A6842F480321A600B68DB03FCD5E0
:101A3000FEF7A4FF201A092803D8BDE83840FFF7B5
:101A40009BBF63280F4C0BD92B78022B08D1236046
:101A500000F0AEFE30B1FFF78FFF0023236038BDEA
:101A60000123F4E7FEF784FF0028CED1F3E700BF9F
:101A700048860840400B00205826002000200D40DA
:101A800004200D4058200D400023064A52F8231030
:101A9000814206D011B942F8230070470133052B6B
:101AA000F4D17047400B00200022054B1A60054A14
:101AB000136943F0040313610122034B1A7070474A
:101AC00058200D4000ED00E0582600204FF48032F1
:101AD000064B10B5064CC3F89021C3F8902020683F
:101AE00018B100F0AFFE0023236010BD00E100E05C
:101AF000540B002070B5184B1B7843BB174A127863
:101B0000122A25D1164A12784B2A21D14A0802F509
:101B10002013144D2733441EAB4207D1002301F597
:101B2000201127311044934205DB70BD13F8016981
:101B300004F8016FF0E7CC1A2478C4540133F2E7BB
:101B4000D41A2478C45401338B42F9DBEDE7002327
:101B500001F520122732F7E72B0028002A00280081
:101B600029002800270028000FB407B504AA52F85E
:101B7000041B0448019200F039F803B05DF804EB4F
:101B800004B07047B40400200EB43FB5094B07AA57
:101B900052F8041B0190049304A801AB039205932F
:101BA00000F024F80022019B1A7006B05DF804EBE7
:101BB00003B07047DDA4200070B505460C460A4E00
:101BC000102C07D874B12B68224668680649BDE816
:101BD000704018472B68102231466868984710B942
:101BE000103CEDE7204670BDD9BD20002DE9F04F37
:101BF0000746144600258FB00791079B1B78B3B1A9
:101C0000DDF81C8000E0B046464616F8013B0BB1FB
:101C1000252BF8D1079B98450ED0A8EB03094A461F
:101C20003B6807997868984728B14FF0FF352846F8
:101C30000FB0BDE8F08F4D4498F80030002BF6D07F
:101C400098F80130002BF2D04FF0000A314611F81D
:101C5000012B33462B2A16D00AD8202A16D0232A45
:101C600017D0A2F1310008283FD84FF0000918E042
:101C70002D2A04D0302AF4D14AF0100A01E04AF0AB
:101C8000010A0E46E2E74AF0060AFAE74AF0020ABB
:101C9000F7E74AF0080AF4E70A2303FB0929A9F148
:101CA0003009334616F8012BA2F130010929F3D986
:101CB0001A782E2A35D159785A1CA1F130000928FA
:101CC00028D8002611781346A1F13000092802F126
:101CD00001021AD91A786C2A40F092805A786C2A3C
:101CE00022D14AF0800A023321E02A2A0AD1D4F80C
:101CF00000900B46B9F1000F04F10404B8BF4AF09C
:101D0000010AD5E74FF00009D2E70A2303FB0616C4
:101D1000303ED7E72A2903D1266802330434D9E7B5
:101D200013464FF0FF36D5E701334AF0600A1A78C0
:101D3000642A00F0928000F28580462A00F0AF808D
:101D400071D8252A00F0C08066D8002A3FF46FAF12
:101D5000013307930AF4E063B3F5806F00F0568215
:101D600000F2B580B3F5807F00F0EA80B3F5407FE4
:101D70007FF443AFAF4B1AF4804FAF4A18BF1A46F7
:101D80000DF1330300211E462068043450EA010C93
:101D900040F07482F61A04BF302203F8012C4FF091
:101DA000780208BF03F1FF3303F8012C4FF0300233
:101DB00008BF012603F8022C23220336B1458CBF4D
:101DC000A9EB06094FF000091AF0010AA3F1030874
:101DD00003F8032C06D149463846FFF7EDFE0028EC
:101DE0007FF423AF3B683246414678689847002825
:101DF0007FF41BAF3544BAF1000F00F03682ACE13E
:101E0000682A94D15A78682A02D14AF0200A6AE7EF
:101E100001334AF0400A8AE7412A4CD0452A97D13B
:101E20004AF4424A94E7582A33D004D8472A8FD13B
:101E30004AF4A13A8CE7612A3AD0632A88D14AF45D
:101E4000A06A85E76E2A3CD00AD8662A24D029D316
:101E5000672A2AD0692A7FF47BAF4AF4245A77E7AD
:101E6000732A2BD007D86F2A10D0702A7FF470AF56
:101E70004AF4407A6CE7752A05D0782A7FF468AF77
:101E80004AF4C85A64E74AF4106A61E74AF4885A87
:101E90005EE74AF4B24A5BE74AF4007A58E74AF44C
:101EA000844A55E74AF4024A52E74AF4813A4FE736
:101EB0004AF4C13A4CE74AF4E13A49E74AF4806A05
:101EC00046E74AF4E06A43E74AF4C06A40E7B3F5FC
:101ED000C06F2BD0B3F5E06F00F0DF81B3F5A06FDA
:101EE0007FF48BAEB9F1010F38BF4FF001092368C1
:101EF0001AF0010604F104048DF8203009F1FF38CE
:101F000007D141463846FFF757FE00287FF48DAED3
:101F100045443B68012208A97868984700287FF467
:101F200084AE002E00F0A181414617E13B680122FA
:101F300042497868984700287FF477AE01355CE61F
:101F4000002EACBF2AF0100A01261AF400520AF043
:101F5000E003069243D0402B3AD009D8002B3AD068
:101F6000202B11D000220023CDE90023002319E00B
:101F7000602B30D0802BF5D1073424F0070303F118
:101F80000804D3E9002303E094F90020D3170434B4
:101F9000002A73F10001E7DA524263EB4303CDE913
:101FA0000023012305930AF4C053B3F5805F00F0CA
:101FB000EB80B3F5C05F00F0EC80B3F5006F40F04C
:101FC0000381DDE900230DF1360BCDE9022348E062
:101FD000B4F90020DAE722680434D317D8E7402B9D
:101FE0001FD009D8FBB1202B14D000230022059369
:101FF0000023CDE90023D6E7602B14D0802BF4D149
:10200000073424F0070303F10804D3E90023CDE9E2
:10201000002304E022780023CDE900230434069B4A
:10202000C0E72288F7E72368002219460434CDE987
:102030000012F4E7F9BD20000ABE20002CBE2000EB
:10204000DDE902010A22002307F07CF8DDE9020144
:1020500030320BF8012D00230A2207F073F8CDE986
:102060000201DDE902231343EAD10DF13603A3EBAC
:102070000B030293029B41F608029E4288BFF61AA8
:1020800041F208030AEA020298BF00269A4202D1EE
:10209000002E08BF012641F60801029B8A42334404
:1020A00040F09680DDE900120A4300F091807D49FE
:1020B0001AF4804F7C4A08BF0A464FF0020800928B
:1020C000069A82B1059A002A40F087800AF006023B
:1020D000022A00F08780062A744A009904BF11463C
:1020E0004FF001080091434499458CBFA9EB0309C7
:1020F0004FF000091AF00103059304D11AF0100FF4
:1021000074D04E449946D7E90030B8F1000F05D09D
:1021100042460099984700287FF487ADB246029B5B
:102120001D44BAF1100FD7E9003066D8BAF1000F9C
:1021300005D052465E49984700287FF476AD3B684B
:10214000029A594678684544984700287FF46DAD57
:10215000059B3544002B00F0888049463846FFF740
:102160002BFD002800F081805FE502F0070130318F
:102170000BF8011DD10841EA4371D8080A4603460D
:1021800052EA0301F1D170E7DDE900230DF1360BCE
:10219000F6E7484B1AF4804F0DF1360B464918BF4D
:1021A0001946DDE9002352EA03003FF45EAF02F076
:1021B0000F00085C4FEA131C0BF8010D100940EAF0
:1021C000037002466346EEE70DF1360B002350E73D
:1021D0004FF00008CDF8008072E74FF00108374A51
:1021E000009280E74FF00108354AF9E74946384642
:1021F000FFF7E2FC002886D017E510222C4998470B
:1022000000287FF412ADAAF1100A8AE7D4F800B0D2
:102210000434BBF1000F2CD0D84698F8003008F1F8
:10222000010223BBA8EB0B08002E02DBB04528BF40
:10223000B046C1458CBFA9EB08094FF000091AF060
:10224000010606D149463846FFF7B6FC00287FF460
:10225000ECAC3B68424659467868984700287FF4C2
:10226000E4AC4544002E7FF478AF4D44C5E490467D
:10227000D3E7DFF850B04FF00608D5E700F00F0CB9
:1022800012F80CC04FEA111E03F801CD4FEA101CE2
:102290004CEA017C6046714678E5236804341D6091
:1022A000ABE400BF1BBE20001EBE200023BE2000EA
:1022B000E9BD2000F9BD20000ABE200021BE20009B
:1022C000A8BC200025BE200010B50446FEF728FB60
:1022D000D4E900321344C01A024B98428CBF00204C
:1022E000012010BDFEFFFF7F10B50E4C236813B90F
:1022F0000D4A136010BDFEF709FB2168D1E90023E8
:1023000013448A681B1A1AB91844074B1860F1E77E
:10231000D2E900142144091A8B4228BF0B46926867
:10232000F1E700BF5C0B0020580B0020014800F0D3
:1023300089BA00BFBC0400202DE9F8430388054694
:1023400053B1592B47D1872920D1002024490B684C
:1023500063B918B10B6001E0214A136059230120D1
:102360002B80BDE8F88301203346F1E7D3E902640E
:102370009442F8D000B10B6099680029EED0C8688B
:1023800090420ABF89680B469960F5E78229E5D13A
:10239000134F4FF00009B84600263C68002CDDD0F2
:1023A000204608F0F6F898B122468821E06800F04F
:1023B00009FA58B9E060A3682EB1B360C4F8089078
:1023C000FFF792FFE8E7C8F80030F7E7FFF7AEFF46
:1023D0002646A468E2E7002303800320C1E700BF8C
:1023E0005C0B002010B50446FFF7A0FFE3680B4A22
:1023F0000BB1136833B90A4B1B68E36013681460B0
:10240000A36004E0A34206D1054A1268DA60BDE881
:102410001040FFF769BF9B68ECE700BF5C0B002032
:10242000E40C0020024B1868003018BF01207047F0
:102430005C0B002010B50B4A04461368834208D198
:1024400083681360FFF750FF0023C4E9023310BD17
:102450001346002BF8D09A68A242F9D1A2689A607C
:10246000F0E700BF5C0B0020F8B503880646154670
:10247000CBB14A2B2BD188291FD1174808F09AF8E5
:102480000446C4B1231D9D421FD12146124808F0C5
:102490009BF8124D62692F682A60A2690AB1E0694F
:1024A00090472F6007E00C4808F084F8044634B9E0
:1024B00001220B4B1A704A23338001200AE0A168E5
:1024C000201D08F028F82468F1E72468D9E70023E4
:1024D00003800320F8BD00BF600B0020E40C002047
:1024E0005926002010B50024054B06481C7008F042
:1024F0005EF82146BDE81040034800F08BB900BFEC
:1025000059260020600B0020CC04002070B5044642
:10251000E3610B4B049D1B78C4E905526BB1094D77
:10252000094B2E68201D2B6007F0F5FF2E60214619
:10253000BDE87040054808F05AB8A160F7E700BF51
:1025400059260020E40C0020CC040020600B002061
:1025500013B5034C24680094FFF7D8FF02B010BDF8
:10256000E40C002070B5094B05461B783BB1084CC4
:10257000084B26680430236007F0D6FF2660294602
:10258000BDE87040044808F032B800BF592600206A
:10259000E40C0020CC040020600B002070B5094B37
:1025A00005461B783BB1084C084B26680430236075
:1025B00007F0C3FF26602946BDE87040044808F0D4
:1025C00016B800BF59260020E40C0020CC040020DF
:1025D000600B002010B5084B04461B7843B1043053
:1025E000FFF728FF2146BDE81040044807F0ECBF84
:1025F000C0E90333F6E700BF59260020600B002036
:1026000038B5836804460D469BB10A480460022031
:10261000A07304F10C0098470238012801D9832DDA
:1026200005D121462046BDE8384000F005B8012319
:10263000A37338BDE40C00202DE9F8431C4F8946F4
:102640003D682C46844204D00CB9BDE8F883246868
:10265000F8E7002CF9D0174EA37BD6F8008063B1C1
:102660000023A3738DB9A3683BB14C4505D03460FA
:102670002A46832104F10C0098473B68A3420ED1FF
:1026800023683B60C6F80080DFE7AC4204D02246F6
:102690008721284607F063FF2D68E3E71346002BE8
:1026A000F0D01A68A242F9D122681A60EAE700BFA6
:1026B000E80C0020E40C0020002238B50125084B6E
:1026C0001A70084B1C6804B938BDE37B2BB1E58157
:1026D000002282212046FFF793FF2468F3E700BF22
:1026E0005D260020E80C0020024B1878421C1A706E
:1026F000704700BF5B2600208A22064B1A70002319
:10270000054A1370054A1370054A1360054A1360A1
:10271000704700BF5B2600205A2600205C26002060
:10272000E80C0020E40C00202DE9F0411B4D2B7833
:102730000BB1FFF7C1FF1A4C22789AB10C21194E48
:10274000194F3378013A59430133781803F01F03C6
:1027500017F801803370D0E90170227090B9134BE3
:102760001E6826B92B7820781844BDE8F0812B78B4
:102770000BB1FFF7A1FF30463A46414607F0EFFEA6
:102780003668EEE7B8F1810F08BF01233A4608BF6B
:102790008373414607F0E3FEE4E700BF5D260020B7
:1027A0005C2600205A260020640B0020E80C002044
:1027B000024A034B10781B78184470475C260020AF
:1027C0005D260020F0B50B4E3378202B0FD00C2562
:1027D000094C0A4F24781C4404F01F046C433D1933
:1027E000C5E901200020013339553370F0BD0120C7
:1027F000FCE700BF5C2600205A260020640B002066
:1028000038B5034C256807F0AAFE256038BD00BF27
:10281000E40C002030B40A4C0A4625682B4683425B
:102820000CD04BB950B101210560817320608381C8
:10283000812130BCFFF7E4BF1B68F0E730BC704774
:10284000E80C002038B1837B013B012B9FBF0123A3
:10285000014AC373137070475D260020024610B50D
:10286000064853600468029B11609360026014B9CB
:102870000846FEF795F8002010BD00BFEC0C0020C4
:1028800010B5084C206858B100232360D0E901310D
:102890009847236823B1BDE810401868FEF780B858
:1028A00010BD00BFEC0C002070B505880446672DF4
:1028B00009D0792D2FD0002D33D1FFF715FF1B4BF9
:1028C00018701B4B1D601B4E194D08E00A282B6821
:1028D0000ED07E2B03DC5A1C2A60174AD054304697
:1028E00007F014FF431CF1D16723238001201BE074
:1028F0005A1C2A600025104A2846D5540B4B1978DB
:10290000FFF760FF0D4B2A4685211868FFF75AFF35
:1029100018B97923E9E78529E8D10022044B1A6028
:10292000D1E700230380032070BD00BFA83C002036
:10293000F00C0020F40C00205E260020E40C0020A7
:102940000D2810B5014616D00C4C237853B90C480D
:1029500007F0C9FE08B9012323700A48FFF772FF88
:10296000012010BD0A28F8D1054807F0BCFE002858
:10297000F3D00023F0E70020F3E700BFDE260020BD
:10298000F40C0020DC04002008B50549054880222D
:1029900007F0A2FEBDE8084000210348FFF73ABF58
:1029A000DF260020F40C0020DC040020064A136817
:1029B00043F004031360054B186804331B6840EAB6
:1029C000032080B2704700BF00700D4014700D40AE
:1029D00010B5174A136823F00C0313600122154B3E
:1029E0001A601A68012AFCD10822134B13491A6095
:1029F000E32203F505731A601A460B68DB07FCD562
:102A00000F4C102100232068013900F0010043EA37
:102A100000034FEA43039BB2F5D1002BF1D00949E3
:102A2000180A03F0FE0308600B60EF23136010BD6B
:102A300000700D40A8200D402486084064860840A0
:102A40009C86084014700D402DE9FF476F46224CCC
:102A5000224D04F108030FCB87E80F002B7894F880
:102A60000780BBB13A221E49A2710A88D21A92B2DB
:102A70000A80A2F128010812207103F128002044E5
:102A8000C3F1040361712C3A011D184407F038F8B2
:102A900000232B70134807F08DFD0646DFF840A099
:102AA0002EB90F4B2E701E8004B0BDE8F087D6F80B
:102AB0000490B9F1000F09D0BAF800302A782C3B05
:102AC00038329BB2224441463846C847304607F068
:102AD000AAFD0646E4E700BF3C3400208A27002018
:102AE0002C340020FC0C0020F8B52C4B2C4C1B790E
:102AF00004F11806E371237E04F10805FF2B31D1A0
:102B000095E80F0086E80F003146284600F0C0FA2D
:102B1000244D2B78BBB13A222349A2710A8803F1D4
:102B20002800D21A92B20A80C3F10403A2F128014C
:102B300020440E1261712C3A011D1844267106F0D2
:102B4000DFFF00232B7081212B782833E218E1521C
:102B50000023538007F057FEC0432B78134A1344D9
:102B60005880F8BD2F46124A3B4603CBB342106053
:102B700051601F4602F10802F6D196E80F0085E881
:102B80000F000B4B0B4D03F110062A4618685968CD
:102B9000083303C2B3421546F7D1B9E7C03200206B
:102BA0003C3400208A2700202C340020643400208C
:102BB000281F00205434002038B504460B480D4629
:102BC00007F0F8FC08B901200FE00379A34204D113
:102BD00043799D4204D0FF2B02D007F024FDF1E79A
:102BE0008368002BEFD09847002038BD000D0020EF
:102BF0000146014807F0FBBC000D00202DE9F74F0E
:102C0000474D82462B788946934653B1454A9B5C93
:102C10003A2B0ED10023444A2B70138003B0BDE839
:102C2000F08F424B9A793A2A03D193F92830002B3E
:102C3000F0DA3F4C03F0E2FD04F110063746A046FF
:102C40003C4A234603CBB342106051601C4602F15C
:102C50000802F6D1344E354C3388214630339BB2CE
:102C6000B3F5A06F88BF4FF4A063338032882B7810
:102C7000D21A04EB4300303A3030019306F040FFA3
:102C80006022019B22603A22002B46D084F8282043
:102C9000294B1B79E371238973B9638963B9A389CC
:102CA00053B9E38943B9238A33B9638A23B9A38A21
:102CB00013B9E38A002BADD0204B0FCB88E80F006F
:102CC0001C4B1B78FF2B05D1BAF1040FA2D1B9F12F
:102CD000020F9FD11749194800F0DAF995F80080E2
:102CE000584608F12803E21804F803A082F801907E
:102CF00000F0DAFF124B43F808003388283B1A1221
:102D00002271002263712B783B445A8007F07BFDCF
:102D1000C0432B781F44788080E7A271B8E700BFDA
:102D20008A270020643400202C3400203C3400200A
:102D300054340020281F0020C032002044340020DA
:102D4000683400202DE9F0411E4660231A4C0F46DE
:102D500023603A230546A371184B90461B7900F176
:102D6000100CE371331D1A122271637104F1180201
:102D7000134628686968083503C365451A46F7D1C4
:102D80000F49104DA1F1100000F082F92B782C367C
:102D90002833E218E754002382F80180538007F0BB
:102DA00032FDC0432B78084A13445880074B1E80DD
:102DB000BDE8F04102F024BA3C340020C0320020CB
:102DC000543400208A270020643400202C34002052
:102DD00008B50448FFF70CFFBDE808400248FFF7BC
:102DE00007BF00BFF8040020EC0400202DE9F341E8
:102DF000154D0446CDE900150E4690461F4620228B
:102E000003460321114807F091FC01282B4618D1F5
:102E10002A6804F11001107020462A68023250F826
:102E2000044B884242F8044BF9D11868089B867419
:102E30004361099B80F813800777836102B0BDE886
:102E4000F0810020FAE700BF0C0D0020BC33002009
:102E5000F8B507460B4E0C4D2E6060362C68B44218
:102E600001D30020F8BD237833B1A27C3946D208C3
:102E7000A01C06F09DFD10B120342C60EEE701206F
:102E8000F0E700BFBC3300200C0D0020802313B5F9
:102E9000074C00930194034620220321054807F0C4
:102EA00045FC10B9206802B010BD0020FBE700BF50
:102EB000040D0020D832002030B548F2FE040B4942
:102EC0000B4A1160603113688B4202D3002318460D
:102ED00030BD1D783DB1451C02D09D7C854202D19C
:102EE0005D88A542F3D020331360ECE7D832002090
:102EF000040D0020802337B50F4D00930446034690
:102F00000195122205210D4807F010FC01282B46DF
:102F10000FD12A6804F11001107020462A6802328D
:102F200050F8044B884242F8044BF9D1186803B0BA
:102F300030BD0020FBE700BF080D00205C330020FF
:102F40008023F7B5214C0093054603460E461746ED
:102F50000194202203211E4807F0E8FB012832D10A
:102F60002A46236805F1100118702368023352F8CD
:102F7000040B8A4243F8040BF9D12068C774DEB908
:102F8000012303750122236812489A7440F2FF233B
:102F90000380002343808380C38003814FF48073C8
:102FA0004381FF2303736B7B4373EB89C381FFF77B
:102FB000A1FF206803B0F0BD00233146037518302F
:102FC00007F0A1FADEE70020F4E700BF040D0020BF
:102FD000D8320020381F0020802313B5074C0093FF
:102FE0000194034612220521054807F09FFB10B902
:102FF000206802B010BD0020FBE700BF080D0020D4
:103000005C33002038B50546C8B140F2FF230C48B8
:10301000002403804FF480734381FF230373EB7B11
:10302000448043732B8A8480C4800481C381FFF76A
:10303000D3FF044A106008B107F09BFB2C7038BD29
:10304000381F0020080D002038B50E4D0E4C2560AD
:1030500060352068A84206D300F0F8FABDE8384091
:103060000A4807F061BA037843B1037D33B91830D9
:10307000FFF72AF910B12068FFF7C4FF2368203357
:103080002360E6E7D8320020040D00201C34002025
:103090002DE9F84F48F2FE030A8805469A420F468A
:1030A0002ED00A78FF2A2BD000241C49A04689463E
:1030B0009B461B4A0A6002F1600AD9F80060564537
:1030C0000AD314BB2C806C80AC80EC802C816C818A
:1030D000AC81EC81BDE8F88F33786BB1B37C012B08
:1030E0000AD173885B4507D0B11C384607F04EFB08
:1030F00080459CBF344680462036C9F80060DCE736
:103100000120FFF7D9FE0446DBE7A31C123453F875
:10311000042BA34245F8042BF9D1DBE7040D002072
:10312000D832002070B5094EB0684508FFF73EFC64
:103130000446FFF73BFC2402B268A4B22044B0FB73
:10314000F2F302FB1300284470BD00BFC032002020
:1031500073B5304C00F0C6FD00F096F860220021F7
:103160002D4806F02FFD00212046F42206F02AFD0E
:1031700020222A4B40261A701822294B00251A704B
:103180004FF4A06344F8043C264B04F80469A360A0
:10319000FFF7C8FF42F21073236148F2FE03E060BC
:1031A0002575214C2A46238065802B46A580E58025
:1031B0003146CDE900552046FFF718FE20461B4951
:1031C00007F0DBFA29460122FFF7BAFE40F2FF269C
:1031D0004FF480732046E38126806580A580E580DA
:1031E00025816581A581FFF785FE4FF40073204698
:1031F00026806580A580E58025816581A581E381A4
:10320000FFF778FE0C210A4802B0BDE8704007F0D5
:1032100082B900BFC4320020BC330020B933002083
:10322000B8330020C0270900381F002034340020A4
:103230001C3400202DE9F047054610480F46904603
:1032400007F0B8F90446DFF83890DFF838A00CB979
:10325000BDE8F087012D0DDC504607F0DDF903468F
:103260004246394628466668B047204607F0DBF9F3
:103270000446ECE7D9F80030F2E700BF940E0020D6
:10328000980E0020B00D002008B50B4807F0CEF9CD
:103290000A4807F08CF90A4B0A49186803F0A6FDA2
:1032A000094807F0C3F9094807F081F9BDE808406B
:1032B000074807F07CB900BF300500209C0E0020B5
:1032C00010050020CBA7200004050020B00D002031
:1032D000940E002008B540B1044B4168186808F00E
:1032E00098F9BDE8084007F097BA08BD100500201E
:1032F000014807F05FB900BF9C0E002008B507F039
:103300008DFA38B1044B0146186808F06FF90030A7
:1033100018BF012008BD00BF100500202DE9F041B5
:1033200080460027FFF7E4FF3C46054685B964B1B7
:10333000124807F03FF9844207D021460F4807F0B2
:1033400043F921460D4807F05FF92046BDE8F081BA
:1033500095F82460BE420AD3F20805F10801404600
:1033600006F026FB18B9802E06D037462C46284694
:1033700007F027FA0546D9E72C46D9E79C0E00202E
:1033800038B5044600283FD04368002B3CD00146A6
:103390001E4807F019F96368586807F00BF90546ED
:1033A00068B343689C4226D163682946586807F091
:1033B0000BF96368586807F0FDF828B96368596825
:1033C000134B186803F0BEFD2146124807F052F96E
:1033D0002946114807F04EF9104A20461368013B70
:1033E0001360FFF777FF04F108010246BDE838409B
:1033F0000320FFF71FBF284607F015F9CFE704F1B8
:10340000080001F04BFECFE738BD00BF9C0E002046
:10341000100500203005002024050020980E002013
:1034200010B5044680B1406870B107F0C3F830B9F8
:10343000064B2146BDE81040186803F083BD406884
:10344000FFF79EFF6068F0E710BD00BF1005002089
:103450002DE9F84F804610468A46914607F0DEF97E
:10346000834618B900242046BDE8F88F4046FFF790
:1034700055FF044660B1FFF72DFF014628B1102229
:10348000484606F095FA0028EDD02046FFF778FF71
:10349000284F3B68142BE5D0274E5946306808F07A
:1034A000A5F8054668B9034604225946306803F07A
:1034B000CDFC05460028D5D000236860036007F0E6
:1034C00076F81E4807F0C2F804460028CAD0014624
:1034D0001B4807F099F81B4807F0B8F820B92146B7
:1034E000164807F0C7F8BDE744600146686807F072
:1034F0007EF83B6865600133294630683B6003F025
:1035000037FD434604F1080508F110062A461868FD
:103510005968083303C2B3421546F7D1002284F834
:1035200024A0A261E261226241464A460220FFF7DE
:1035300081FE98E7980E002010050020300500203D
:103540009C0E00202405002038B505460D4807F0E4
:1035500031F8044600B938BDAC420ED121460948C5
:1035600007F032F82146084807F084F8221D11467A
:10357000BDE838400120FFF75DBE204607F053F854
:10358000E7E700BFB00D00200405002038B5054670
:10359000084807F00FF8044608B9204638BD102245
:1035A0002946201D06F004FA0028F6D0204607F030
:1035B0003AF8F0E7B00D0020F8B505460F46FFF7E2
:1035C000E5FF044640B9134807F040F80446E0B16F
:1035D0000146114807F018F82B46261D05F1100C7E
:1035E000324618685968083303C263451646F7D156
:1035F0006FB1394604F1140006F085FF00232377EC
:103600002A4629460020FFF715FE2046F8BD012373
:10361000F5E700BF04050020B00D002038B50A48CA
:1036200006F0C8FF002504460CB9284638BD251D04
:10363000284600F08BFB10B1437C002BF5D12046CF
:1036400006F0F1FF0446EFE7B00D002038B50D4855
:1036500006F0B0FF04460B4D04B938BD237F63B9B3
:1036600004F11400FEF730FE38B12046FFF76CFF7E
:10367000284606F09FFF0446EEE7204606F0D3FFFB
:10368000F9E700BFB00D002037B5114B114D1C7884
:103690002B7905F10801C4EB03226B7913449BB22B
:1036A000ADF80630BDF806302022184480B207F08D
:1036B0008EF804F12801BDF80620294407F087F8A8
:1036C00018B140BA80B203B030BD4FF6FF70FAE7D0
:1036D0008A2700203C34002002200021F8B5284F22
:1036E000284D3A78284C283253195E782070F6001D
:1036F0000736864202DA71B320702CE0131805EB0E
:10370000030CEB5C012B11D00CD3632B13D003F013
:10371000C003802B21D0C02B28D0402B2CD179B1D5
:1037200020700DE00130C0B20121E2E7831C9CF85B
:1037300001001844F7E701B1207002F0E1FF08B979
:103740000120F8BD22783B78104913440B445B7884
:1037500002321A4422700020F3E701B120700244C3
:1037600002210420FFF74AFA0220EAE701B12070A3
:103770002B7EFF2BE4D0F2E702309CF80130D8E733
:103780008A2700203C3400208B270020643400204E
:1037900008B5FFF7DDFCFFF71BFB00F051FC4FF411
:1037A0008062064B06481A80002319461A182033F7
:1037B000B3F5A07F1182F9D108BD00BF481F0020DA
:1037C00070390020F8B5104E357845B10F4F05F12E
:1037D00027033C88A34203DB00233B803370F8BD02
:1037E0000B4BA4F12802521B5919184606F088F910
:1037F000641BA4B23C80283C221200F8242C00F860
:10380000234C0023EAE700BF8A2700202C34002045
:1038100064340020F8B5204F204C3D462388013306
:103820009BB2B3F5FA4F28BF4FF4805300261A0A13
:1038300042EA032292B206EB070CBCF810C0944592
:10384000EDD02036B6F5A07FF5D1238000235F01AF
:10385000EC19268A66B92282618278B90146102263
:10386000204606F0AFF90E4B3D441B792B7503E063
:1038700001330A2BEBD100242046F8BD034626462F
:1038800000F1100C324618685968083303C26345CA
:103890001646F7D1E7E700BF70390020481F002027
:1038A000C032002004282DE9F74F964F1CD0964CCB
:1038B000964B9749052823600B60A146884649D15D
:1038C000944A1268128A002A00F0128100220C3BEE
:1038D000914823600B60914B02601A803A80082265
:1038E0008F4B1A7001F054FD8C4B1A88002A00F09F
:1038F000FF8002F130038B4C9BB23B80283B1912B6
:103900006371844B08321B6852BA2171197DA285FC
:103910000022E1711121E2851A8AA17122855A8A59
:1039200004F1180562850FCB85E80F00294604F1E4
:103930000800FFF7ADFB744B04F13C021A6006F07F
:1039400065FFC04380B2002800F09781E0856023C6
:10395000236085E013F83C2CA3F13C0402F0F00254
:10396000602A40F0C58022796179120238885518A2
:10397000854200F3BD8028310A443A80227AFF2A2A
:1039800000F0B680684A363B13600023674D684EEE
:103990002B703370A37993464BB901233370FFF733
:1039A0009BFE012800F0A48045D3022858D061482E
:1039B000FFF76CFA002840F0D7805E48FFF70CFB59
:1039C000002840F0D180207E2389FF2848F2FE01A4
:1039D0004CD0228B8A4200F054818B4248D073B97C
:1039E000638963B9A38953B9E38943B9238A33B996
:1039F000638A23B9A38A13B9E38A002B78D07AB9F2
:103A0000638B6BB9A38B5BB9E38B4BB9238C3BB94D
:103A1000638C2BB9A38C1BB9E38CB3F5807F67D083
:103A20003B88B3F5A06F12D94FF4A06200210220A9
:103A3000FFF7E4F814E02B7803F128022244CBF8D6
:103A400000205278083303EBC2032B70AFE7E37911
:103A5000012B03D8002203201146E9E7013BE37163
:103A600000222F4B1A7003B0BDE8F08F8B423FD17C
:103A7000238B7BB9638B6BB9A38B5BB9E38B4BB99E
:103A8000238C3BB9638C2BB9A38C1BB9E38CB3F5A6
:103A9000807F2DD0FF282BD02648FFF7D9F902468A
:103AA00030BB02210120C3E7BAF13B0F20D0BAF1AD
:103AB0003C0F43D0BAF13A0F40F08E8006F0A3FEDF
:103AC0004FF6FF73984213D12B781B4AD05C01F05C
:103AD00071FB2B782833E218E05C5178FFF76CF823
:103AE000012802BF00233B802B703B88002BB7D1FD
:103AF00000230E4A3B8013700D4A1370084A13705E
:103B0000B1E700BF2C3400205C390020783400205D
:103B10003034002058390020603900206C390020F2
:103B2000503900203C340020543900208A270020DE
:103B3000892700205434002064340020337898070B
:103B400004D5590648D443F0400323E043F0020370
:103B500020E02B7803F128022244CBF80020527891
:103B6000083303EBC2032B70DBF8002092F800A0AF
:103B7000BAF12C0FBCD097D8BAF1110F2FD0BAF1EF
:103B80002B0F11D0BAF1000F26D13378D90723D4E7
:103B900043F001033370FFF79FFD0128A8D0D8D36D
:103BA00002283FF45DAFDFE7337813F0040113D14F
:103BB0002A7843F00403337002F128032344D878B1
:103BC00010B12A32042033E7CBF800305B7808329A
:103BD00002EBC3022A70C7E7121B0121F2E7FFF7CD
:103BE000F1FDE38D84F806A09BB9B4F82AA0BAF1E0
:103BF000000F3FF47DAF254E254DB4F828B0254B7E
:103C00002E6006F5A0762C68B4420AD30022042167
:103C100048E706F0FBFD4FF6FF7398427FF468AF6C
:103C2000E3E7228AAAB1924513D1628A0AB15A45C2
:103C30000FD122682AB962681AB9A2680AB9E26883
:103C400052B1184610222146019305F0B1FE019BA6
:103C500010B120342C60D6E73B880220303B3B80FB
:103C600000230D4A0D49C9F800200B60C8F8002058
:103C70000B490C4A0870138034E64FF6FF73E38556
:103C800065E693427FF434AF06E700BF7039002049
:103C900058390020443400206C3400206039002062
:103CA000503900206C390020054BC0F3072203EA8D
:103CB0000023000C40BA134380B240EA034070472F
:103CC00000FFFF0010B5044640B102F061FE044B56
:103CD0002146BDE81040186803F034B910BD00BF9C
:103CE0003C05002008B503F00BFB034B03491868A3
:103CF000BDE8084003F07AB83C050020C53C200030
:103D000070B504460C481E469DF81020059B0068BF
:103D100003F09CF8054668B120462B4604F11002DA
:103D200050F8041B904243F8041BF9D16E742846E6
:103D300002F02EFE284670BD3C050020024B0146D5
:103D4000186807F066BC00BF3C05002070B50C4D3C
:103D50000646286803F05EF8044676B9002420463B
:103D600070BD10223146204605F022FE0028F6D014
:103D70002146286807F01FFC0446002CF1D1EDE72E
:103D80003C050020024B0146186807F02FBC00BF1D
:103D90003C05002070B5054610200E4603F006FADB
:103DA0000849044607F064FC58B9324629462046C3
:103DB00003F044FA324629462046BDE8704002F03E
:103DC000C9BD70BDBEBE20002DE9F04F8F4C87B03D
:103DD000E3798F4FFF2BDFF860A240F012813B7830
:103DE00004F12C055A191279FF2A00F00A8104F116
:103DF00028010B445A780291002A40F00281854B39
:103E0000854E1A6014229846DFF83092327004F121
:103E1000080B387832782C30BAF8003002449A42D5
:103E2000C0F2868020440430FFF730F87B4B1860E6
:103E30009B46002800F0E58023897BB963896BB934
:103E4000A3895BB9E3894BB9238A3BB9638A2BB950
:103E5000A38A1BB9E38A002B00F0D380704E304652
:103E6000FFF714F8B046002840F0CB8040F2FF2363
:103E7000228B06F110099A4240F0B080638B002B30
:103E800040F0AC80A38B002B40F0A880E38B002B8C
:103E900040F0A480238C002B40F0A080638CB3F50D
:103EA000807F40F09B8094F82430FF2B40F0968078
:103EB00096E80F0089E80F003B781D44043595E82B
:103EC0000F0086E80F00002360223B70554B564ED2
:103ED000C4E9002388232385E023DBF8002084F84D
:103EE0002C30931C1232354618685968083303C5C4
:103EF00093422E46F7D140F202234C49A4F84030B9
:103F00000A684B4BC4F842204A685A600022C4F841
:103F10004A209A81628506F076FC3B78029AC0437B
:103F20001A4450235080AAF8003007B0BDE8F08F43
:103F3000A3185978002964D0A25C012A26D12289CD
:103F4000C8F8003072B9628962B9A28952B9E289AF
:103F500042B9228A32B9628A22B9A28A12B9E28AA5
:103F6000002A4ED053F8020F04AA596803C25846DB
:103F7000FFF7ECFE0246C9F8000080B90523019066
:103F8000009304A902235846FFF7BAFE32783B7823
:103F900013442B445B7802EBC302327039E7FFF71E
:103FA000CDFE034668B3D8F8000019460822023057
:103FB000039305F0FDFC039B50B1012204A91846B0
:103FC00007F02FFBE8B1D9F8003002225A74DDE780
:103FD000D9F800305A7C002AD8D1F6E71548FEF708
:103FE00055FFDBF8003083420BD198E80F0089E8D9
:103FF0000F003B781D44043595E80F0088E80F005A
:1040000061E70023AAF800303B708EE73C340020C3
:104010008A270020C81100208C270020C011002012
:104020004434002000283AFF6C340020343400204F
:104030007E340020543400202C340020C411002091
:104040000148FEF7D5BD00BF50050020B8220C4B3B
:10405000F0B502FB0032002340F24C5553821E465D
:104060001A460849CC18A77827B15F5C874204BF7D
:10407000A67001327133AB42F4D11046F0BD00BFDF
:10408000D41100209727002008B5064801F080F8D9
:104090000122054BFD211A70002299705A70DA70C6
:1040A00008BD00BFE54220008D27002030B5137801
:1040B0000446087A83F0020398421FD1487A537865
:1040C00098421BD1887A9378984217D1C87AD378CE
:1040D000984213D1087B137998420FD1487B5379CA
:1040E00098420BD1887B9379984207D1C87BD379CA
:1040F000984203D10320A040C0B230BD0E4B0889C6
:104100001A681D4660B94889B0F57F4F08D1888983
:10411000FE2805D1C989022022F8021B1A60EAE7AD
:1041200001F1080303CB083242F8080C42F8041CE2
:1041300001202A60DFE700BF4413002010B50E4CB9
:104140000220A17903F018F8A379112B09D1238D4E
:10415000618D994228BF1946BDE81040012003F047
:104160000BB8062BF3D03A2B03D1218D49BA89B273
:10417000F2E70021F0E700BF3C34002010B5084C06
:1041800001462378012B08D10822A01C05F010FC61
:1041900000280CBF2046002010BD0020FCE700BF17
:1041A0008D27002008B50146102002F0F3FF044BD4
:1041B00000219B6803489847BDE80840FCF762BDB2
:1041C00050BC2000C941200010B50C4611462046C5
:1041D000FFF7E0FD044B1B6813B19B68204698472E
:1041E000024B1C6010BD00BFCC1100204C130020FE
:1041F0002DE9F041002306467122134F02FB03F51F
:104200007C19A078C8B9617002F0E0FEDFF8408048
:104210000E4B98F800102670401A1E68A0700E44CD
:1042200002F0D4FE98F800200335821A314678193E
:1042300005F0F0FBA078BDE8F08101330C2BDDD157
:104240004FF0FF30F7E700BF9727002054130020FE
:10425000E32C00202DE9F84315090F2D064698465A
:1042600002F00F0431D00F2C34D01DB12A46304655
:1042700005F0D0FB2A190F2A274605DCC2F11002EF
:104280000021701905F09EFCBCB1DFF85480C7F125
:104290001000D8F8009022464946304405F0BAFB99
:1042A000022C05D10A2D9FBFFF23F372FE23337327
:1042B0004C44C8F80040BDE8F883002DFBD04146CF
:1042C0003046BDE8F84306F058BA0F2C00D1102450
:1042D0001025CBE71024002DC8D12746D5E700BF15
:1042E0004413002000232DE9F04FC04EC04C87B08E
:1042F00033702370054602F0E5FE02F079FEBD4AF8
:10430000BD4B12681860CDE900630AB1FFF716FFD4
:1043100004AE002D40F03A81B849304607F0A3F9C9
:10432000019B94F800B0D3F80080B54BDFF8D89229
:104330001A8802933E2A40F26182B24D08F10203CC
:104340002B6000230BF1020B08F80B3009F1180069
:10435000FFF714FF30B909F10800FFF70FFF00283D
:1043600000F0168108F103032B60802599F80110F5
:1043700099F800C00B0943EA0C13DBB29A0842EA31
:10438000831252B211F00F0FD0B20CF00F0C9D4FF0
:10439000DFF874A240F0FE80B9F80230002B40F044
:1043A000F980BCF1000F03D111F0F00F00F00F8184
:1043B0004FF070093B6803F8010B3B609AF8062048
:1043C000112A08BF49F0040919F0040F02BF3B6825
:1043D00003F8012B3B609AF80730402B00F0FA807D
:1043E000FF2B00F0FA80012B40F0FA8049F0010920
:1043F000BAF80830002B40F00B81BAF80A20002AE6
:1044000040F00681BAF80C20002A40F00181BAF889
:104410000E20002A40F0FC80BAF81020002A40F05C
:10442000F780BAF81220002A40F0F280BAF814207F
:10443000002A40F0ED80BAF81620002A40F0E8800B
:1044400045F04005DFF8C0A19AF81830FF2B40F086
:1044500074819AF8190045F008020228BAF81A1077
:104460003B6840F01781002940F05481BAF81C10D5
:10447000002940F01181BAF81E10002940F00C818B
:10448000BAF82010002940F00781BAF8221000295C
:1044900040F00281BAF82410002940F0FD809AF81B
:1044A0002610002940F0F8809AF8272045F00B05E7
:1044B00003F8012B3B602823009A1370524A93792A
:1044C000112B31D14FF2B00E178DB2F82AC0390A34
:1044D00041EA072189B24FEA1C2747EA0C2721F05D
:1044E0000F0C48481FFA8CFCF4450368BFB240F03B
:1044F000628127F00F0EE64540F05D81F3211970CF
:10450000118D02330F0A518D090A01EB071101F5D4
:10451000AA6103F8011C03600368D28D23F8022B03
:1045200003603023009A1370019B1A68237802F805
:10453000039013445D70334B1B689B1A2370314604
:10454000102002F027FE314B1B68984730EA20000C
:1045500028BF1520009A029B92F800901B882578AE
:10456000C0F17D07A3EB0902791B8A4240F319824F
:10457000C0F1780893FBF8F502F064FB013885423E
:10458000C0F26881002007B0BDE8F08F2946C4E67C
:104590000546EBE63B68BCF1000F0FD111F0F00FC0
:1045A0000CD122F03F0211431970BAF802200333F4
:1045B00023F8022C4FF068093B60FFE6DAF8002090
:1045C0004FF060091A6003F8040B3B60F6E64FF009
:1045D0007809F3E649F002090AE749F0030907E719
:1045E0003A6802F8013B3A6002E700BFE42C002081
:1045F000E32C0020CC11002054130020BEBE20006C
:104600002C340020441300203C34002008BC20003F
:1046100089480393FFF7B2FD884A039B106078B185
:10462000427818F80B30844943EA021308F80B303B
:10463000834A0420FFF73AFD60F03F00C5B201E76E
:1046400048F2FE02934210D1BAF81A306BB9BAF8A8
:104650001C3053B9BAF81E303BB9794A7649042068
:10466000FFF724FD0543EDB2ECE63A68DFF8C8E158
:1046700094460EF1100A734603CB5345CCF8000064
:10468000CCF804109E460CF1080CF4D16D4B10329E
:104690001A60D7E600293DD16B49B1F81CE08C4681
:1046A000BEF1000F36D1B1F81EE0BEF1000F1BD1F4
:1046B000B1F820E0BEF1000F16D1B1F822E0BEF152
:1046C000000F11D191F824E0BEF1000F0CD11A4671
:1046D00002F8010B31F8250F45F00A05A3F8010097
:1046E000897804339170E5E6BCF81E1091B9BCF8E6
:1046F000201079B99CF8221061B91A46534902F882
:10470000010B086845F00905C3F801000979063373
:104710001171CFE61F46DFF838C10CF1100E654667
:1047200003CD754538607960AC4607F10807F6D1CE
:10473000444910330B601546BDE60AF11800FFF737
:104740001DFD3E4B186080B1427818F80B300020F8
:104750001343324645F0040508F80B300AF11801FE
:10476000FFF7A4FC0543EDB2A5E648F2FE03BAF854
:1047700018209A420CD1BAF81A304BB9BAF81C304A
:1047800033B9BAF81E301BB932460AF11801E7E70F
:104790003A68DFF8BCC017460CF1100E634603CB35
:1047A0007345386079609C4607F10807F6D1254BC0
:1047B00010321A607FE607F47F47B7F5704F09D1D2
:1047C000F1211970118DA3F80110518D090AD970CA
:1047D0000433A0E601F47F41B1F5704F07D1F22117
:1047E0001970118D090A5970518D5980F0E7F02127
:1047F0001970916A053343F8041C8CE6412388F84C
:1048000000300BF10103DBB2984409F128024B465A
:1048100003CB9342C8F80000C8F80410994608F189
:104820000808F4D1009B009A1B780BF1290B283360
:1048300084F800B0137082E644340020D0110020C8
:1048400034340020441300203C3400205F34002026
:104850005434002000225C4B25781A600393019B9E
:104860002A46D3F800900435494609F1040005F0C2
:1048700047F9029B55491A88EDB2120A62F03F02CD
:1048800089F800201A88009B89F801200A887F1B7C
:10489000501C0880110A89F80210DFF834A1197839
:1048A00027F00707DFF82CB189F8032051443A4676
:1048B00009EB05002570CBF8007005F0ABF8E8199E
:1048C00080B202F079FB02F0C3F9039B05469946DA
:1048D0005F4600283FF456AE3046FFF763FC28469B
:1048E00002F0EEF9284602F0D5F9D9F80030012B94
:1048F0003FF448AE043B012B7FF644AE009B28F00A
:1049000007001D78DBF80030CBF800001D440523BC
:104910002370019BDFF8C0B01A68029BADB21B8800
:104920001B0A63F01F031370029B1B885370BBF8B4
:104930000030AB4201D8012025E6019A5B1B1068CC
:10494000EA0802713A6894F800809342B8BF3B606D
:104950003B680AEB05011A464044009305F05AF8FB
:10496000009B08EB030080B202F026FB02F070F916
:10497000804600283FF406AE3046FFF713FC404661
:1049800002F09EF9404602F085F93B681D44D9F8D3
:104990000030ADB2012B3FF4F5AD043B012BC6D87E
:1049A000F0E5019B0A4918684944284405F032F8AB
:1049B000029B18882844A0EB090080B202F0FCFAA0
:1049C0003046FFF7EFFBB6E74C130020B220002083
:1049D0003C340020501300202C3400202DE9F843F3
:1049E0008046894617464B4D002A57D02B8A834272
:1049F0000AD16B8A43B10F2002F0D8FB014628464A
:104A000006F036FE002840D1B5F8C83043453ED107
:104A1000B5F8CA30002B3AD00F2002F0C7FB014690
:104A20003D4806F025FE90B301245FFA84F839462C
:104A30004046FFF7DDFB00281DDA6E8A4EB15CB3FD
:104A4000364805F0A6FD064618B10020FFF7FEFA2D
:104A50000646B5F8CA3043B13CB9314805F099FD76
:104A600018B10120FFF7F2FA0644002E0FDD394697
:104A70004046FFF7BDFB002809DDB82303FB0455C2
:104A8000AB8A64B21844A88203E00024CDE74FF05B
:104A9000FF342046BDE8F8832646DAE76B8A33BB4D
:104AA0000024B5F8CA308BB31D4805F072FD10B173
:104AB0000120FFF7CBFA631C2AD1B5F8CA30002BCE
:104AC000E7D10124B8266643AF19A7F81290A7F8DA
:104AD00010800F2002F06AFB0146384606F0C3FD45
:104AE00006F118004021284405F041FDD1E705F109
:104AF000180005F04EFD28B96B8A002BD0D04FF07E
:104B0000FF34CEE73846FFF7A1FAF5E70134D8D0F5
:104B10000024D7E7D41100208C120020EC110020D3
:104B2000A41200202DE9F04F002787B0DFF81C8287
:104B30007C4C0F2002F03AFB02F0BCFB88F80070BE
:104B4000277002F055FA784DA2462860042002F042
:104B50001BFB2A68754B168800B276BAB6B218608D
:104B6000331203F0F803C02BCDF8008007D0E02B00
:104B700000F0EE80B946B8466D4C3E4617E05088CE
:104B80002378C6F30A0640BA04333A46314680B267
:104B90002370FFF723FFB0F1FF3F814600F07082E2
:104BA000B8244FF00108634B04FB003422342B6817
:104BB0009AF800105A5C02F0E000602840F02B8266
:104BC000881C18440B445D78DFF86CC16FB2002F6D
:104BD000CCF80000BCBF0130CCF80000D006614624
:104BE00002F0080C00F153810B68BCF1000F40F09B
:104BF0003B81184630F801CFA4F801C08078E070FE
:104C000013F8040B0B60830803F00F0141F06001FF
:104C10002170617803F0300343EA801301F00F0143
:104C20000B43637012F00403019305D142490B68F2
:104C300013F8010BA0710B6012F003020BBF3E4A88
:104C40003E4B13689B5C09BF13F8011BE3711360B3
:104C5000E1716B06C5F3011240F14881002FBDBF21
:104C6000314B9AF800101B680023BEBF5B189B787D
:104C70001B09002A40F02C8104F1080B002A40F0A7
:104C8000318111462E4B0F209A5C0391029202F063
:104C90008DFADDE9022103465846FFF7DBFA05F0FD
:104CA000030205F0040315F0080500F02B81ABB9F1
:104CB000244B1B88ADF81430531E012B06D81E4917
:104CC0000B6813F8010B8DF815000B6000231E49CB
:104CD0008A5C05A904F11800FFF7BCFA009B009A52
:104CE0001878154900F128031370019B002B00F080
:104CF00043810B681A7802F0F802F02A40F03C81F8
:104D00001122A2711A7802F0040502F0F302F03ABF
:104D1000032A00F24A81DFE812F01E014B0158011C
:104D2000620100BFE32C0020541300204813002030
:104D30003C340020D41100204413002066BE200023
:104D40006ABE200057BE200072BE2000E42C002066
:104D500092F804B05088227840BA0532C6F30A06A9
:104D6000227031465A4680B2FFF738FEB0F1FF3F5D
:104D7000814600F08581B822B2494FF0010802FB5C
:104D80000012958A3C46B54234BF0025012502F049
:104D90001DF99AF80020824200F2728102F016F9A1
:104DA0009AF80010A84A431A01931360009B019AD5
:104DB00093F800A00AEBCB03134440F21452934241
:104DC00000F25E813CB1A14B019A1B6804EB0A0022
:104DD000194404F01FFE002E00F04C814FB1019BDE
:104DE00098490AEB0302B82303FB091392B29A8293
:104DF0001A84002D00F04781B823002403FB09F337
:104E00009049934DCA18223396821944128C9148C6
:104E1000904F04F0FFFDEB1C29198A7852B1605DB8
:104E2000814507D14878191907EBC000009304F0B9
:104E3000F1FD009B40F24C5271349442ECD15FFA88
:104E400089F0FFF703F9B8F1000F00F01F81824BE2
:104E50001E80824C236823B1FFF770F923685B68DA
:104E6000984700F0BBF90BE16020207093F800C078
:104E700003334FEA9C0000F030000CF00F0C40EAC6
:104E80000C00607033F8020C60800B60CAE6BCF165
:104E9000000F12D10B681878C0F3830040F0600057
:104EA000207013F801EBA4F802C04FEA9E0000F056
:104EB000300040EA8E106070E7E760232380002313
:104EC0006380AFE690F801C09C4506D10860D3E648
:104ED0006348017801296349F4D000250D604746F5
:104EE000AB4654E75F4B19680231CBE65E4B0F20AF
:104EF00013F802B002F05AF95A4603465B4904F12E
:104F00000800CAE6F3B1002F07DA504B9AF80010F8
:104F10001B680B449D7805F00F05514F3B78012B22
:104F2000504B02D17978A94202D000251D60D6E706
:104F30001F604F4B10209D5C02F038F92A46034653
:104F4000B91CC7E6484B10209D5C02F02FF92A4699
:104F500003464649BEE6B3F801200533228533F8FF
:104F6000022C62850B6025B90B6833F8022BE285B1
:104F70000B60009B30301870344A0B6812689B1A23
:104F80008AF80030002E40D102F020F89AF8003064
:104F9000C01A009B1B7818442838031223716071D3
:104FA000A379112B01D1A388A3854746002597E754
:104FB000B3F801202285DA78A2F5805292B212026B
:104FC00042F0F00262850433CCE75A78A2F58052B1
:104FD00092B2120242F0F00222855A88F2E75A7821
:104FE00002331209A2F5756292B2120242F0F00287
:104FF000228513F8012C02F00F02A2F5756292B21D
:10500000120242F0F0026285ACE7A6F128031A1200
:1050100022716371C4E7412A32D14A1CD2B21344CF
:10502000224603F1280053F8045B834242F8045BF4
:10503000F9D1009B009A1B78293128338AF8001097
:105040001370B2E7D4110020501300205413002035
:10505000972700203C3400202C340020CC11002065
:105060008D270020D01100206EBE200059BE2000E8
:105070006ABE2000B8F1000F08D0002D7FF4E7AE23
:1050800007B0BDE8F08FB8F1000FF9D1019B9A4449
:10509000014BA3F800A0DCE62C3400202DE9F743F7
:1050A000054628B9244803B0BDE8F043FCF75CBDD1
:1050B0000488BCB94388B3B984889CB9C38893B9C0
:1050C000048924BB4FF6FF7342899A420BD1837B3C
:1050D000427B017BC07B00901848FCF745FD03B084
:1050E000BDE8F08300242646DFF85480DFF85490B2
:1050F000AB19A95D5F7807EB0127BFB277B9002C28
:105100000EDB06D001340236102EF1D1E7E71C4643
:10511000E9E74846FCF728FD0124F4E7002C08DC09
:1051200016B13A2005F072F939464046FCF71CFDED
:10513000E9E74FF0FF34F7E776BE200085BE200098
:105140009BBE200098BE200038B50A4C71B140F2D9
:10515000E445AA420ADC084D22802860074804F092
:10516000CFFC0420FEF79EFB00F04AF800232380CA
:1051700038BD00BF6C390020583900206C34002045
:10518000024B1B6803B1184718467047581300209C
:10519000014B1860704700BF5813002010B514462B
:1051A000FEF738FB18B1024B1B68C0E9063410BD8E
:1051B000E40C002007B5074B8DF80700186828B1EC
:1051C000054B0DF107021978FDF71AFB03B05DF8E6
:1051D00004FB00BF64390020AA3C002008B500226F
:1051E00002210448FDF70CFB0023034A1380034A05
:1051F000137008BD5C0500202C3400208A27002095
:1052000038B5284D2B88002B31D0B3F5A06F04D9C9
:105210000023254A2B80137029E0244C238B73B97B
:10522000638B63B9A38B53B9E38B43B9238C33B935
:10523000638C23B9A38C13B9E38C002BE8D001F065
:1052400017FB0028E4D0237EFF2B28D01848FDF759
:10525000FFFDE8B91648FEF761F8044640B9FEF7CD
:10526000DDF90028D4D0FEF771FD98B9288038BD4B
:10527000FEF730F80028F6D1E36923B11B6A93F8F2
:10528000940005F070FD2046BDE83840FEF778B880
:105290000748E8E7FEF752FDFFF772FFB8E7002086
:1052A000FAE700BF2C3400208A2700203C3400207D
:1052B0005434002038B5044623881046002B43D0D0
:1052C00040F24B32934250D1022932D006D8012904
:1052D00027D040F24B330120238038BD872907D0E7
:1052E0008829F6D1234B98420FD105F02FF9F0E72A
:1052F0000021214B03F5A0729D692033A84208BF0D
:1053000023F8101C9342F7D3E3E71C4B9842E0D1FB
:1053100005F01CF90028DCD0FDF796FEFFF770FFC2
:10532000D7E70028D5D0164B18600520FEF7BAFA4B
:10533000F4E7144D2B88002BCBD00120FEF7B2FAF6
:105340002B88002BC5D0E9E7FDF7CEF90E4B18707E
:10535000FDF7CAF90D4B40211870064805F0DBF83F
:10536000FEF716FA01F054FBB3E700230320238075
:10537000B3E700BF5C130020703900201C3400200C
:10538000583900202C340020A93C0020AA3C0020E1
:10539000074B1B683BB12833186840B15A68054B6E
:1053A0001978FDF72DBA044B1B681833F4E77047E2
:1053B00060390020A93C0020583900202DE9F04335
:1053C000038885B0054614462BB18B2B3AD11F4B71
:1053D0001B788B4205D08B2301202B8005B0BDE8C4
:1053E000F083002AF7D01A4B1B789B07F3D5194B93
:1053F0001949B3F80090194B4A461846096804F059
:1054000009FBA7690346002FE5D01549154E488DC5
:10541000B1F828C0226ACDE90139030AD6F8008024
:1054200043EA002332604FEA1C2242EA0C229BB27C
:10543000009392B201F1180320460831B847C6F82C
:105440000080C8E7002303800320C7E7A93C0020B1
:10545000503900202C3400205C390020E52C00203D
:105460003C340020E40C00202DE9F8431B4D0E468F
:10547000297804461746984621B91948FDF7CAF914
:1054800001232B70E682A4F814805FB13A46251DF3
:1054900007F1100C2B4610685168083203C36245AF
:1054A0001D46F7D1089B0F4DA36198FA98F10C4B5C
:1054B000224689B23846D5F800902B60FFF76EFE81
:1054C000E06110B10EB176BA0682E069C5F80090CD
:1054D000003018BF0120BDE8F88300BFF93100207B
:1054E0006C050020E40C00200023024A1380024ACD
:1054F000137070472C3400208A2700202DE9F04FCC
:105500009FB05C22002107A804F05CFB0123ADF8EA
:105510002C3040F60843ADF8363041F60A63ADF85A
:1055200038303C23ADF83A304FF46073ADF83C307E
:105530008023DFF808C27F4D7F4CADF83E3003AFCB
:105540000CF108030FCB267887E80F002B78022197
:10555000F61A2C3303EB0C0B1CF8033058468DF86D
:1055600034309BF80130A8468DF8333005F0ACF9A3
:10557000A1469BF804302C3E23F07F028DF83020AA
:10558000C3F3C20203F007038DF832309BF80530F5
:10559000F6B28DF83530ADF82E008DF831200BF1D4
:1055A00008030DF11C0C0BF1180E624618685968BF
:1055B000083303C273459446F7D11824A6420BDC86
:1055C00007A9384605F0E6FC0023A9F8003088F862
:1055D00000301FB0BDE8F08F1BF8043083B10BEB37
:1055E00004025578023504EB050AB245ECDC023BB7
:1055F000062B29D8DFE803F00633522828287E003E
:105600000125F0E7052DDFDD0BEB04031A79DD78CA
:10561000D00940EA45008DF87100C2F3011002F094
:105620000F0299788DF873205A798DF870108DF8E3
:1056300072008DF8742039B1072907D1A11D584691
:1056400005F042F9ADF876005446B7E70229BBD120
:105650009A79DB798DF876208DF87730F4E7082D8C
:10566000B2DD0BEB04029378D278211D58468DF8F9
:10567000543001938DF8552005F011F9019B1490D9
:10568000DA1DD210D11DA9429EDA802B9CD804F1DC
:105690000801594410A804F0BDF9D5E7102D93D1A5
:1056A0000BEB0403DA78A11D8DF836201A795846E1
:1056B0008DF837205A798DF8382005F005F904F176
:1056C0000801ADF83C00584605F0FEF804F10A0167
:1056D000ADF83E00584605F0F7F85B7BADF82C00BE
:1056E00004F10E0158468DF8393005F0EDF8ADF8AB
:1056F0003A00A9E7202D7FF467AF0BEB04039A78FB
:10570000DB7804F1080158468DF86C208DF86D3077
:1057100005F0C5F810345C441A9016AA04F110057F
:10572000134620686168083403C3AC421A46F7D1B7
:105730008AE700BF8A2700202C3400203C34002058
:105740002DE9F04F964C974D23788DB02B4493F86C
:105750002C0000F06DFC0394002845D090F89730A1
:10576000012B41D91022002108A804F02BFA0DF1D9
:10577000100905F108030FCB89E80F00039B8A4A43
:1057800093F800B014880BF12C03E85C5F1900F06B
:105790004FFC7B7880465B06C5682DD51022391DED
:1057A000284604F005F9F8B94FF0140A9DF81020C6
:1057B000FB78FF2A98F89B60019325D0494628463C
:1057C00005F074F9F0B1B8F8A4C08188AA8BB1FBD8
:1057D000FCF1B2FBFCF2914211D24FF6FF738380D1
:1057E000C37943F00103C37100236F4A13806C4AED
:1057F00013700DB0BDE8F08F4FF0040AD6E7AA6928
:105800009042EAD0012300E002234FF00009A4EB0C
:105810000B042C3C0293E4B2A2454FDB08A8FDF731
:105820007DFD0746002E6ED10028DDD090F8223095
:10583000DE07D9D490F824304B45D5D1FDF74AFD89
:105840000028D1D03846FDF745FD10220DEB0201AE
:1058500004F0AEF80028C7D197F8223043F00103D6
:1058600087F822303C23BB61A8690028BCD005F032
:10587000A0F80028B8D04D4B19784A1CD2B20906BE
:1058800058BF02F07F021A70019A87F821201A7817
:1058900097F8223087F8202043F0020387F822305F
:1058A000039B43491B780B44DA70A86905F081F823
:1058B000234602229B21FDF745FA95E717F80A10C7
:1058C000F1B107EB0A0292F801B005290BF1020BC6
:1058D00003D0062912D0DA449EE792F80390002103
:1058E000102208A804F06EF909F107020AF1040178
:1058F000D208394408A804F08DF8ECE75679EAE7B5
:105900004FF0010BE7E74246022104A804F0E7FF4D
:1059100000283FF469AF04AB4A4608A9284605F0C1
:1059200023FD074600283FF45FAFFF2E0EBF4FF068
:10593000FF36B8F8A6305E4390F82230866123F037
:10594000010380F82230029B012B7FF44DAFA86940
:1059500000283FF449AF05F02CF800283FF444AF8D
:1059600097F822108E0707D597F82130019A9342B5
:1059700002D197F8202093E70C4B41F002011878F0
:1059800087F82210421CD2B2000658BF02F07F02F4
:105990001A70019A87F821201A7887F820207FE76B
:1059A0008A2700203C3400202C340020840A002068
:1059B000683400201FB500210B4B0C4A1B782C3398
:1059C0009C186170D15440B940F2FF23CDE90030FA
:1059D0004FF0D053029068460393022300229B218C
:1059E000FDF7B0F904B010BD8A2700203C34002038
:1059F0002DE9FF477B4B7C4A1B78894690F8941031
:105A0000C6682C33D1549C18B37C05466370B78BA1
:105A1000B0F8A4803A460221204604F05BFF002340
:105A20002371F37C002B0CBF00238023237195F896
:105A30009720474543EAC2035BB22371327D02F0EF
:105A4000070243EA0203237195F8963063710CD183
:105A5000B9F1000F09D195F89620531CDBB212065C
:105A600058BF03F07F0385F896300023A371E371DC
:105A7000334604F1080206F1100153F8040B8B427F
:105A800042F8040BF9D12B78002B00F0A480AB680E
:105A90002846DB69984706230222637622762B7814
:105AA000A3766B785B08E3766B78DB012377A978C4
:105AB00043EA0113E9780B4323772B78072B40F057
:105AC00082806277EA881E21204604F003FF2027A7
:105AD00004234FF0000AE3550E2304EB070888F86F
