:020000040020DA
:10000000184500200517200083CE200081CE200057
:1000100081CE200081CE200081CE20000000000093
:10002000000000000000000000000000FDE02000D3
:1000300081CE2000000000001BE1200017D020002E
:100040001DD0200023D0200029D020002FD0200058
:100050000000000081CE200081CE200081CE200053
:1000600081CE200000000000000000000000000021
:10007000000000000000000081CE20000000000011
:10008000000000000000000081CE200081CE200092
:1000900081CE200081CE200081CE200081CE2000A4
:1000A00081CE200081CE200081CE200081CE200094
:1000B00081CE200081CE200081CE200081CE200084
:1000C00081CE200081CE200081CE200081CE200074
:1000D00081CE2000000000000000000000000000B1
:1000E0000000000000000000000000000000000010
:1000F0000000000000000000C92C2000D92C2000C6
:1001000000000000000000000000000000000000EF
:1001100000000000000000000000000000000000DF
:1001200000000000000000000000000000000000CF
:1001300000000000000000000000000000000000BF
:1001400000000000000000000000000000000000AF
:10015000000000000000000000000000000000009F
:10016000000000000000000000000000000000008F
:10017000000000000000000000000000000000007F
:10018000000000000000000000000000000000006F
:10019000000000000000000000000000000000005F
:1001A000000000000000000000000000000000004F
:1001B000000000000000000000000000000000003F
:1001C000000000000000000000000000000000002F
:1001D000000000000000000000000000000000001F
:1001E000000000000000000000000000000000000F
:1001F00000000000000000000000000000000000FF
:1002000000000000000000000000000000000000EE
:1002100000000000000000000000000000000000DE
:1002200000000000000000000000000000000000CE
:1002300000000000000000000000000000000000BE
:1002400000000000000000000000000000000000AE
:10025000000000000000000000000000000000009E
:10026000000000000000000000000000000000008E
:1002700081CE2000AD2B2000D12B20005122200068
:10028000392E2000E51F200081CE20000000000054
:100290002DE9F047038896B00446002B00F0198141
:1002A000D92B40F02881882940F02181964B1B787A
:1002B000012B3BD1954B964D1B682B6009F084FABE
:1002C00029680BF095FC934909F0ACFA804609F0D7
:1002D0007BFA29680BF08CFC8F4909F0A3FA0646DB
:1002E00009F072FA29680BF083FC8C4909F09AFA3C
:1002F00040220021074606A80CF082FA30460BF097
:1003000013FD064640460BF00FFD054638460BF040
:100310000BFD334600902A46814906A802F046FFAD
:10032000002306A91A467F480EF09CF909F0C6F989
:1003300040220546002106A80CF062FA6423B5FBB2
:10034000F3F2794903FB125306A802F02FFF0023B2
:1003500006A91A4675480EF085F9754B01205D68AF
:10036000A847744FDFF8FC8138800220A8470A258F
:1003700086B24022002106A8A8F800600CF040FADE
:100380003B88B6FBF5F1B3FBF5F205FB116605FB07
:100390001233B6B2CDE900169BB2674906A802F047
:1003A00005FF002306A91A4664480EF05BF90120F8
:1003B0000CF0B8FDDFF8B091614EA9F80000012003
:1003C0000CF0CEFD40223080002106A80CF018FA77
:1003D000B8F800003B88B0FBF5F1B3FBF5F205FB84
:1003E000123305FB1105ADB29BB2CDE9001506A88D
:1003F000514902F0DBFEB9F800000BF0EDFA51496B
:100400000BF042FB0AF0BAFE00224F4B0AF00EFF3F
:100410003BA3D3E900230AF051FD0BF0D7F9824644
:1004200030880BF0D9FA49490BF02EFB0AF0A6FEF2
:100430000022454B0AF0FAFE0022454B0AF03EFD31
:100440000BF0C4F9054650460AF098FE80468946EE
:1004500000F08EF802460B462846CDE904230AF048
:100460008DFE06460F4600F083F8DDE90423CDE952
:100470000201404649460AF021FD0022354B0AF0B0
:10048000D5FE0BF083F9804650460BF04DFCDDE9BC
:1004900002238146394630460AF010FD00222D4BDA
:1004A0000AF0C4FE0BF072F9019028460BF03CFCF8
:1004B000434600904A46284906A802F077FE0023EA
:1004C00006A91A4625480EF0CDF825480CF049FE3D
:1004D0000BE001F073FE4FF4706121480CF038FE20
:1004E000134B012181209B689847D9232380012049
:1004F00016B0BDE8F087002303800320F8E700BFB3
:10050000CDCCCCCCCC6C4740F2320020D0190020AE
:100510007806002050060020440600207C060020BB
:100520004DEA200073EA20007EEA200093EA2000D2
:1005300008E72000C6260020A3EA2000C7EA200022
:10054000C426002000C02F430000F03E0000FA4205
:100550000000184000005940D5EA2000FBEA2000C6
:10056000F4190020C8260020CA2600200000000040
:10057000C1F30A522DE9F843A2F2FF36132E0B46BF
:100580000D460446884607461DDC002E3DDB384AF2
:1005900042FA06F901EA0902024319D032A3D3E96B
:1005A00000230AF08DFC002200230BF0CFF8D0B31B
:1005B000002D04DA4FF4801343FA06F6B04428EA1B
:1005C000090500272FE0332E06DDB6F5806F2FD00A
:1005D00019462046BDE8F8834FF0FF39A2F21342D6
:1005E00029FA02F919EA000FF2D01FA3D3E9002378
:1005F0000AF066FC002200230BF0A8F898B1002D49
:1006000024DB27EA090745460DE017A3D3E90023B9
:100610000AF056FC002200230BF098F818B1002DC8
:100620000BDB00273D463C4629462046BDE8F883C3
:1006300002460AF045FC0446CBE725F000430D4A8C
:100640001F43002F18BF15460027ECE7142E08D0D3
:100650000123C6F1340603FA06F6371928BF984479
:10066000CFE705F10108CCE79C7500883CE4377EB4
:10067000FFFF0F000000F0BFB1F5801F2DE9F84328
:1006800004460D460B461ADA024621F00046324374
:1006900058D000295EDB0022394B0AF0C7FD0D4619
:1006A0002B46384A044693426FF035010BDD224653
:1006B0002B46204629460AF003FCBDE8F883314A60
:1006C00000219342F3DC1815A0F2FF3008444FEAF2
:1006D000D0794844C3F313080AF03EFDC9F57F738F
:1006E000033348EA035506460F462046294600F0E4
:1006F0003FFE1DA3D3E90023804689463046394694
:100700000AF094FD1AA3D3E9002304460D4640469F
:1007100049460AF08BFD02460B46204629460AF060
:10072000CFFB15A3D3E9002304460D4630463946D6
:100730000AF07CFD02460B46204629460AF0C0FB23
:10074000BDE8F8830022002300200F490AF098FE3C
:10075000BDE8F88302460AF0B1FB002200230AF04C
:100760008FFEAAE7AFF30080362BF111F3FE593D5F
:100770000EE526157BCBDB3F00609F501344D33F33
:1007800000005043FFFFEF7F000050C30000000057
:100790002DE9F04F23F0004555EA020493B00DD047
:1007A000794E21F00044B4420F4682460FDD04F139
:1007B000404404F5801454EA0A035BD10023734CCF
:1007C000CDE90034DDE9000113B0BDE8F08F9846B3
:1007D00094464ED0B542EADC6B4EB54266D0002F4F
:1007E0008B468146CDE9022364DB0026BCF1000F75
:1007F0000ED1654B9D4246D0644B9D4200F09780E0
:10080000B8F1804F00F0B280614B984500F0D28380
:10081000484659460AF0B0FACDE90001BAF1000F96
:1008200006D1002C60D0594B27F040429A425BD051
:10083000FF0F013F56EA070300F08280554B9D42AF
:1008400040F3B08003F104739D4240F34E84524B59
:100850009C4240F38280B8F1000F40F3828048A3AD
:10086000D3E90023104619460AF0E0FCCDE9000167
:10087000A8E728B1494813B0BDE8F04F0AF088BA9C
:10088000A542F7DCA8E704F1404303F5801353EADF
:100890000A0393D0404B9C4240F39683B8F1000F7B
:1008A0005FDBDDE90234CDE900348BE7BCF1000FFA
:1008B00095D07CE73A4B9D4237DCA3F154739D42BF
:1008C00093DD2B15A3F2FF33142B40F3ED83C3F11B
:1008D00034032CFA03F202FA03F3634585D102F0E4
:1008E0000102C2F1020681E7B8F1000F07DADDE983
:1008F0000023002025490AF0C3FDCDE90001002FA7
:10090000BFF660AF04F1404404F5801454EA0603D6
:1009100000F04984012E7FF455AFDDE90045224601
:1009200005F10043CDE900234CE702265EE7B8F16C
:10093000000FC0F2558348465946CDE9000141E712
:100940004A4648465B4659460AF0B8FA02460B4604
:100950000AF096FDCDE9000134E7B8F1000FFFF68B
:100960007EAF00230024CDE900342BE74A464846F9
:100970005B4659460AF05AFCCDE9000122E700BF68
:100980009C7500883CE4377E0000F07F0000F03F5B
:100990000000E03F0000E041FFFFEF3FB0E8200033
:1009A000FFFF3F43B4F5801F80F29C83DDE9000127
:1009B0000022D14B0AF03AFC6FF0340C0C46CDE922
:1009C00000012315CD4AC4F31304A3F2FF3344F00E
:1009D0007F5503EB0C0194420D9145F4401540F313
:1009E0007383C74B9C4240F3008400230024002201
:1009F000CDE90A34CDE910340024C24B0131CDE9F0
:100A000006230D91A5F58015DDE906ABDDE90001B2
:100A100052465B46294680460AF050FA5246CDE9D6
:100A200008015B4640462946CDE906AB0AF048FA84
:100A300002460B460020B3490AF022FD0A46014651
:100A40001346CDE90E120246DDE908010AF0EEFB7D
:100A50000A4683469446002301460020CDE900BCA7
:100A600000936B1043F0005303F50023CDE904120B
:100A7000DDE900AB1919A94604460D4602460B46AE
:100A8000504659460AF0D2FB02460B46DDE9080102
:100A90000AF014FADDE90623CDE9080120462946CB
:100AA0000AF00CFA02460B46404649460AF006FA9E
:100AB00052465B460AF0BAFB02460B46DDE90801E6
:100AC0000AF0FCF9DDE90E230AF0B0FBDDE904458C
:100AD000CDE9060122462B46204629460AF0A6FB10
:100AE00073A3D3E9002304460D460AF09FFB72A3CB
:100AF000D3E900230AF0E4F922462B460AF096FBDC
:100B00006FA3D3E900230AF0DBF922462B460AF053
:100B10008DFB6DA3D3E900230AF0D2F922462B46C0
:100B20000AF084FB6AA3D3E900230AF0C9F922463C
:100B30002B460AF07BFB68A3D3E900230AF0C0F937
:100B40002246804689462B46204629460AF06EFBFF
:100B500002460B46404649460AF068FB04460D46ED
:100B6000DDE9040152465B460AF0AAF9DDE90623F5
:100B70000AF05CFB22462B460AF0A2F95246804658
:100B800089465B46504659460AF050FB00225E4BB0
:100B9000CDE908010AF094F942464B460AF090F973
:100BA00000980D4604462B462246504659460AF008
:100BB0003DFB002282468B46534B204629460AF0D5
:100BC0007DF9DDE908230AF079F902460B46404633
:100BD00049460AF073F9DDE904230AF027FB2246AF
:100BE00080468946DDE906012B460AF01FFB0246D6
:100BF0000B46404649460AF063F98046894602465C
:100C00000B46504659460AF05BF935A3D3E9002359
:100C100000980D4604460AF009FB5246CDE904014E
:100C20005B46204629460AF049F902460B464046F3
:100C300049460AF043F92CA3D3E900230AF0F6FA57
:100C40002BA3D3E9002380468946204629460AF093
:100C5000EDFA02460B46404649460AF031F9DDE915
:100C600010230AF02DF980460D9889460AF074FA8F
:100C700082468B46DDE9040142464B460AF020F9E4
:100C8000DDE90A230AF01CF952465B460AF018F91E
:100C9000009852465B4604460D460AF00FF9DDE91E
:100CA0000A230AF00BF9DDE904232FE0AFF30080FB
:100CB000EF4E454A287ECA3F65DBC9934A86CD3F41
:100CC00001411DA96074D13F4D268F515555D53F27
:100CD000FFAB6FDBB66DDB3F033333333333E33FBF
:100CE000000000E009C7EE3FFD033ADC09C7EE3F14
:100CF000F5015B14E02F3EBE000040438E980300D8
:100D000079B60B000000F03F000008400AF0D6F86A
:100D10000B460246494640460AF0D0F80022013E02
:100D200056EA070314BFDA4BDA4B8B46CDE90423AE
:100D3000DDE9021200230E461746CDE90067009355
:100D4000DDE9006782463B460846114632460AF016
:100D5000B5F822462B460AF069FADDE902238046FF
:100D60008946504659460AF061FA02460B4640460B
:100D700049460AF0A5F88046894632463B46204659
:100D80002946CDE902890AF051FA0B460246064689
:100D90000F46404649460AF093F8BF4B0446994235
:100DA0000D468A4640F3268101F13F4303F5E003F7
:100DB000034340F0FE81A2A3D3E90023DDE9020151
:100DC0000AF07EF83246804689463B462046294650
:100DD0000AF074F802460B46404649460AF0B6FC53
:100DE000002840F0E681A8464FF4801300204FEA27
:100DF0002852A2F2FE3213415344C3F30A52A74DC4
:100E0000A2F2FF321541C3F3130423EA0501C2F134
:100E1000140B44F48014BAF1000F02460B4644FA56
:100E20000BFB30463946B8BFCBF1000B0AF046F851
:100E300006460F46DDE9020132463B460AF040F81D
:100E40000D464FEA0B5A00247FA3D3E90023204626
:100E500029460AF0EBF93246804689463B46204651
:100E600029460AF02BF802460B46DDE902010AF09A
:100E700025F877A3D3E900230AF0D8F976A3D3E9BC
:100E8000002306460F46204629460AF0CFF90246BF
:100E90000B46304639460AF013F806460F4602461E
:100EA0000B46404649460AF00BF842464B4604467C
:100EB0000D460AF003F802460B463046394609F063
:100EC000FDFF2246804689462B46204629460AF0E9
:100ED000ADF963A3D3E9002306460F460AF0A6F94D
:100EE00061A3D3E9002309F0E9FF32463B460AF04B
:100EF0009DF95FA3D3E9002309F0E2FF32463B46A8
:100F00000AF094F95CA3D3E9002309F0D7FF324635
:100F10003B460AF08BF95AA3D3E9002309F0D0FF2E
:100F200032463B460AF082F902460B4620462946E5
:100F300009F0C4FF06460F4602460B4620462946E6
:100F40000AF074F90022CDE900014FF080433046E9
:100F5000394609F0B3FF02460B46DDE900010AF00D
:100F60008FFA424606460F464B46204629460AF06F
:100F70005DF942464B4609F0A3FF02460B46304658
:100F8000394609F09BFF22462B4609F097FF02469F
:100F90000B4600203E4909F091FF8A44BAF5801FB4
:100FA000C0F235815146DDE904230AF03FF9CDE96D
:100FB000000107E4002FFFF62BAC4846594613B05A
:100FC000BDE8F04F09F016BEB8F1000FBFF6C9AC8E
:100FD000DDE90234009304F100430193FFF7F2BB13
:100FE0004A465B4600202A490AF04AFACDE9000148
:100FF000FFF7E8BB2A4B21F00048984540F3E98011
:10100000284B0B4403430AD132463B4609F056FFB6
:10101000DDE902230AF090FB00283FF4E5AE1AA3B5
:10102000D3E90023DDE904010AF000F916A3D3E9AE
:1010300000230AF0FBF8CDE90001FFF7C3BB00BFB6
:10104000FE822B654715973C00000000432EE63FCB
:10105000EF39FAFE422EE63F396CA80C615C20BEE7
:10106000D0A4BE726937663EF16BD2C541BDBB3EAE
:101070002CDE25AF6A56113F93BDBE166CC1663F8C
:101080003E5555555555C53F59F3F8C21F6EA5013C
:101090000000F03F0000F0BFFFFF8F40FFFF0F0098
:1010A000FFCB904000346F3FBCF1000F40F09A80BE
:1010B000C3F1140345FA03F202FA03F3AB4200F062
:1010C000AA806646FFF798BB002300241A462346F1
:1010D000CDE90A23CDE910230022614B0024CDE99C
:1010E000062391E44FF0000C6BE45E4B9C427FF7CB
:1010F00034AC5B4B9C423FF7AEABDDE90001002214
:10110000574B09F0DBFE48A3D3E9002304460D4604
:101110000AF08CF846A3D3E9002382468B4620468A
:1011200029460AF083F80022CDE900014E4B204603
:1011300029460AF07BF802460B463FA1D1E900019F
:1011400009F0BCFE22462B460AF070F802460B4618
:101150000020464909F0B2FE2246804689462B46C9
:10116000204629460AF062F802460B4640464946A8
:101170000AF05CF832A3D3E900230AF057F80246DC
:101180000B46DDE9000109F099FE02460B46804658
:1011900089465046594609F093FE00200D46044604
:1011A00052465B46B2E5DDE9002310461946FFF7DB
:1011B000CBBB25A3D3E90023DDE904010AF036F80F
:1011C00021A3D3E900230AF031F8CDE90001FFF7AC
:1011D000F9BA264B98453FF707AEDDE90023924662
:1011E000934630E60026FFF713BB19A3D3E900238B
:1011F000CDE90A2318A3D3E90023CDE91023002267
:101200001B4B4FF48024CDE90623FFF7FDBB5A4664
:1012100000F032F8C7E602F00102C2F10206FFF761
:10122000EBBA00BFAFF30080000000604715F73F46
:1012300044DF5DF80BAE543E555555555555D53FD9
:10124000FE822B654715F73F9C7500883CE4377E8E
:101250000000004003B8E23F06D0CF43EBFD4C3E18
:101260000000F03FFEFFEF3F0000D03F0000E03FF6
:101270000000F83F00000000F8B5C1F30A5304462F
:101280000D460E4617460BBB034621F0004633437E
:101290001BD0314B002209F0C9FF304B04469F425E
:1012A0000D463DDB0E46C1F30A53363B40F2FE725B
:1012B0003B44934213DC002B22DD26F0FF4626F44C
:1012C000E00646EA035520462946F8BD40F2FF7283
:1012D0009342EBD102460B4609F0F2FDF8BD05F052
:1012E000004444F0FC4141F45F1141F4105116A355
:1012F000D3E900231A4841F03C0109F097FFF8BDFB
:1013000013F1350F12DA4CF250339F42E7DC05F04F
:10131000004343F0D27141F4B731124841F01F014C
:101320000BA3D3E9002309F081FFF8BD26F0FF46A7
:1013300026F4E006363346EA0355204629460022C5
:10134000094B09F073FFF8BD9C7500883CE4377EBB
:1013500059F3F8C21F6EA50100005043B03CFFFFD7
:101360009C75008859F3F8C20000903C0000000012
:101370002DE9F04FB1F5801F85B006460F460B46AC
:1013800080F2D180024621F00044224300F0DA804E
:101390000029C0F2E9800022D54B09F047FF0B4637
:1013A000D44A064693420F466FF0350E00F3C180D3
:1013B000C3F3130505F5152C0CF6647C0CF4801CA6
:1013C0008CF07F5282F440121C1542EA0507A4F209
:1013D000FF3474440022C84B3046394604EB1C5499
:1013E00009F06CFDAB1CC3F31303022B82468B4642
:1013F0004FF0000240F3AF804FF0804309F060FDF2
:1014000002460B46504659460AF03AF80646204630
:101410000F4609F0A1FE3246CDE902013B463046B7
:101420003946CDE9006709F001FF02460B468046C8
:10143000894609F0FBFE9AA3D3E9002306460F462E
:1014400009F0F4FE98A3D3E9002309F039FD3246F0
:101450003B4609F0EBFE96A3D3E9002309F030FDEB
:1014600032463B4609F0E2FE93A3D3E9002309F09C
:1014700027FD42464B4609F0D9FE91A3D3E900234C
:10148000804689463046394609F0D0FE8EA3D3E91E
:10149000002309F015FD32463B4609F0C7FE8CA338
:1014A000D3E9002309F00CFD32463B4609F0BEFEAD
:1014B0000B4602464946404609F002FDA5F5C22307
:1014C000C5F5D725A3F27A4351351D43002D0646B5
:1014D0000F4640F387800022884B5046594609F05A
:1014E000A5FE52465B4609F0A1FE02460B46804629
:1014F00089463046394609F0E3FCDDE9002309F06E
:1015000095FE06460F46002C40F0818002460B46B1
:101510004046494609F0D2FC02460B465046594621
:1015200009F0CCFC0BE0734A4FF0000E93427FF7BA
:101530003FAF32463B463046394609F0C1FC05B064
:10154000BDE8F08F0022002300206D4909F098FFCC
:1015500005B0BDE8F08F00230AF0D0F860B1002C90
:101560007CD100200021EAE7024609F0A7FC002216
:10157000002309F085FFE2E757A3D3E90023504693
:10158000594609F053FE02460B4600205B4909F01C
:1015900095FC524606460F465B465046594609F0B2
:1015A00045FE02460B463046394609F03FFE0646E8
:1015B0000F462CB3204609F0CFFD49A3D3E9002301
:1015C0008046894609F032FE47A3D3E9002304464A
:1015D0000D464046494609F029FE02460B46304674
:1015E00039462CE002460B465046594609F066FC47
:1015F000DDE9002309F01AFE06460F46002C47D10C
:1016000032463B465046594609F058FC97E734A30A
:10161000D3E90023DDE9020109F008FE32A3D3E992
:10162000002304460D46DDE9020109F0FFFD3246C4
:101630003B4609F045FC02460B464046494609F048
:101640003DFC52465B4609F039FC02460B462046FB
:10165000294609F033FC05B0BDE8F08F204609F0BB
:101660007BFD1FA3D3E9002306460F4609F0DEFDEC
:101670001DA3D3E9002304460D463046394609F040
:10168000D5FD02460B462046294609F019FC56E7CF
:10169000DDE9028912A3D3E900234046494691E7D8
:1016A00044523EDF12F1C23FDE03CB966446C73F91
:1016B000599322942449D23F935555555555E53FAA
:1016C0009FC678D0099AC33FAF788E1DC571CC3FB5
:1016D00004FA97999999D93F555555555555D53F80
:1016E0000000E0FE422EE63F763C7935EF39EA3DD8
:1016F00000005043FFFFEF7F0000F03F0000E03F9D
:10170000000050C3FF22482408B5084B08481A605F
:10171000084AE369121A084998470848084AA36921
:10172000121A0021984700F037F8FEE7B4200D4068
:1017300040000020D00A002018ED2000D00A002030
:10174000133D002008B500F019F80022014B1A7073
:1017500008BD00BFDE260020024A1378184310702F
:1017600000F014B8DE260020034A137823EA0000B4
:10177000107000F00BB800BFDE260020024A13688C
:1017800043F00F031360704700B40D40014B186025
:10179000704700BF3CB00D40F7B500F05BFC00F0B7
:1017A000EBFC00F05FFC00F081FB01F033FB0BF081
:1017B000F9FC00F0D9FCFFF7C5FF02200BF064FB39
:1017C00002F0ACFA00F032FC00F0A6F902F0CAFB1D
:1017D00062B604200BF058FB002002F0E7FB01F09A
:1017E0000BFA0021274802F027FB02F08DF90821AF
:1017F000684601F035FB9DF806309DF80760224CE5
:1018000046EA03266B46214F03CBFD6A20606160E8
:1018100002204AF6CD31A84731460320A8471921B6
:101820000120A84769467B6B08220B20984700F0EF
:1018300033FD00F04FFD06F0B7FF154A2368136033
:101840006368536006F0DEFC0021124802F0F4FAEF
:1018500000F0B4FC0021104802F0EEFA0BF077FC27
:101860000E480BF063FC00F0E7FB08200BF00CFBCC
:1018700000F0E8FB02F06AFA10F0FF0FF8D101F077
:101880005FFAF5E7BC0400200B3D002070E7200064
:10189000943400205C050020700400209CE82000A7
:1018A0002DE9F04104880646772C20D07E2C3DD0CF
:1018B000002C4ED102F02AFA284D294B294FDFF88F
:1018C000B08018702C602B6857F823202AB9264A5C
:1018D00013707723338001203EE008F803409368BB
:1018E0000021802098472B6801332B60EBE7002311
:1018F0001E4A1360194A1360184B1B4A1B68127862
:101900009A4204DC194B1B68002BF0D1E1E7184A1E
:10191000D256002A19DA134A002052F82320104B1D
:10192000197802F061FA28B97E23D3E70C4B1B78B3
:101930008B42D0D1094B0E491A688B5C03F07F03B0
:101940008B540A4A136801331360044A1368013345
:10195000D1E7002303800320BDE8F081E40A0020E2
:10196000FE3C002080040020DF260020E00A00204A
:10197000FF3C002010B40A4B0A491A780023934216
:1019800003DA51F82340A04208D107490748CA5C4E
:1019900062F07F02CA5410BC02F066BA0133EEE76F
:1019A000DF26002080040020FF3C0020700400207F
:1019B00010B50124082108480BF092FA04220321F3
:1019C000002000F0E7FB054B03221C6000210448C7
:1019D00000F082FB204610BD00900D4000E100E0C9
:1019E000B51A200008B5102108480BF079FA042236
:1019F0000220114600F0CEFB0422054B02211A60A2
:101A0000044800F069FB012008BD00BF00B00D4094
:101A100000E100E0B51A200008B5202108480BF0CD
:101A20005FFA04220521022000F0B4FB0422054BDA
:101A300002211A600448052200F04EFB012008BD77
:101A400000B00D4000E100E0B51A200008B54021CB
:101A500008480BF045FA04220621022000F09AFB08
:101A60000422054B02211A600448062200F034FBD0
:101A7000012008BD00B00D4000E100E0B51A2000D3
:101A800008B5802108480BF02BFA04220721022018
:101A900000F080FB0422054B02211A600448072253
:101AA00000F01AFB012008BD00B00D4000E100E08D
:101AB000B51A200038B5054611480C460BF086FBD8
:101AC000E8B110210E480BF06FFB35B9032C16D18D
:101AD0000C48BDE83840FFF74DBF022D0FD1042C54
:101AE00001D10948F5E7052C01D10848F1E7062C9A
:101AF00001D10748EDE7072C01D10648E9E738BDD9
:101B0000E80A0020D8E62000B8E62000C8E6200059
:101B1000E8E62000A8E62000002101480BF044BBC5
:101B2000E80A0020FF2310B5064C4FF4FA6023604A
:101B300000F0F6F930220021062000F047FB0023D8
:101B4000236010BD00920D40802870B51ED1002486
:101B50000F4E104D3368224623F0800333602B680C
:101B6000072143F080032B600B4B20461C6000F0E4
:101B700011FB3368012223F0400333602B680621F8
:101B800023F040032B60204600F004FB002070BDD2
:101B900020940D4000940D4000920D4007B50022A6
:101BA000044B062100931046052301F0A9F903B068
:101BB0005DF804FBA0860100813801289ABF024B22
:101BC00018780020704700BFE026002000B581286B
:101BD00089B06BD1002967D00022384B10460093A2
:101BE0000621052301F08CF902A91622AA200BF088
:101BF000D0F9014610B14FF0FF3151E09DF80800D7
:101C00009DF809202E4B02EB00221A819DF80A0054
:101C10009DF80B2002EB00225A819DF80C009DF8E4
:101C20000D2002EB00229A819DF80E009DF80F20F6
:101C300002EB0022DA819DF810009DF8112002EBE2
:101C400000221A829DF812009DF8132002EB002258
:101C50005A829DF814009DF8152002EB00229A820A
:101C60009DF816009DF8172002EB0022DA829DF8FD
:101C700018009DF8192002EB00221A839DF81A0023
:101C80009DF81B2002EB00225A839DF81C009DF852
:101C90001D2002EB002201209A830A4A107019705D
:101CA000084609B05DF804FB064BF8E70028A2D10E
:101CB0000329A0D8024B19700146F1E7A086010064
:101CC000F00A0020E0260020F7B55F4B1B78002BC0
:101CD00000F0B780431E012B00F2B380002502AE56
:101CE00046F8045DC7B230460BF06FF9421C4DD088
:101CF000564C0198638AB4F91C20C31A208A022F1B
:101D000000FB03F04FEAE033B4F91A001A444FEA3B
:101D1000C02090FBF2F01844606000F08E80F42345
:101D2000227801958DF80030032A00F28A80DFE8DE
:101D300002F0022F353B342341F25C258DF801304F
:101D400001F0C8F802226946772001F08BF90028DB
:101D500077D1284600F0E4F803226946F6200BF01C
:101D600018F900286DD19DF801509DF800302D0222
:101D700005EB034520789DF80230C0F108001D44B2
:101D8000054130460BF021F9431C12D103B0F0BDE0
:101D9000742341F614658DF80130D1E7B42343F282
:101DA00084558DF80130CBE78DF8013046F264455B
:101DB000C6E76368B4F90C20A3F57A6303FB03F16B
:101DC00003FB02F0B4F9142009134A43121402EB86
:101DD000603202329210E08902F500425043C20B99
:101DE000B4F916004143B4F90A004343B4F90800BA
:101DF000DB1203EBE12303EB80034CF250300233A0
:101E0000A5EBA30358434DBFB0FBF2F04000B0FB7D
:101E1000F2F04000031203FB03F240F6DE335343BB
:101E20000B4A1B14424303EB224303F6CF6300EB40
:101E300023100A2390FBF3F0A8E7083040F30F10BB
:101E4000A4E74FF0FF30A1E7E0260020F00A0020D1
:101E500043E3FFFF2DE9F04800F086F8114B4FF007
:101E6000000BD3E900673A46B04238BF7A1C1546EA
:101E70004BEA0004C3E900450B49D1E900BCBBEBC8
:101E800006026CEB0703161943EB0507C1E900676F
:101E900001F0DAFD18B1BDE8F04801F059BDBDE828
:101EA000F08800BFD80A0020D00A0020E0210D4BA6
:101EB0000D4A5A600D4A82F82310002207219A60C9
:101EC00019600B490B6843F001030B60094B1A6062
:101ED000042243F80C2C012243F8082C0F22DA626A
:101EE000704700BF10E000E047E8010000ED00E0AF
:101EF00008200D400C000340034BD3E90023100AD7
:101F000040EA0360704700BFD80A0020034BD3E9C2
:101F10000023D00B40EA4340704700BFD00A0020A6
:101F2000054B18601C3B1A6842F001021A601A68DF
:101F3000D207FCD4704700BF2800034010B5064C00
:101F4000236823F001032360FFF784FF236843F035
:101F50000103236010BD00BF10E000E0014B1868D2
:101F6000704700BF100B0020064B18685A680833F2
:101F70001B681B0443EA0223034A0343106843EA35
:101F80000060704740500D404C500D40014608B570
:101F9000104A1368DB07FCD572B6FFF7E5FF0B1A92
:101FA000062BD8BFC11D0C4B0A0E1A60C1F30742A5
:101FB00043F8042CC1F3072243F8082CCAB243F8B3
:101FC0000C2C62B64FF40032044B1960044B1A61BA
:101FD00008BD00BF50500D404C500D40100B00206C
:101FE00000E100E008B500F093FE0022064B1A6005
:101FF0004FF40032054BC3F89021C3F89020BDE8A0
:10200000084001F04FBF00BF100B002000E100E0CE
:10201000012808D82C22044B02FB0030C3689A69BF
:102020009206FCD41960704718E720000022014B8B
:102030001A60704700500D400822014B1A6070472B
:1020400000500D40A022024B1A6050221A607047C7
:1020500000500D40014A024B9A607047000020007A
:1020600000ED00E038B5164D164C2B68012223F028
:1020700040032B602368062123F0400323600320E4
:1020800000F088F82B68012223F080032B6023687E
:10209000072123F080032360032000F07BF80A4B24
:1020A0000A4A0B491A600B4A134610680842FCD1D1
:1020B0001A685101FCD41A685201FCD538BD00BF22
:1020C00020C40D4000C40D4000200D40010102005D
:1020D0000000010104200D40024B02EBC10243F855
:1020E00022007047140B0020F8B507460E46002466
:1020F000084D05EB411547FA04F3DB07E1B204D5BF
:1021000055F824300BB1304698470134082CF2D1F1
:10211000F8BD00BF140B00202DE9F04780464FEAC0
:102120000837DFF8409007F1804505F5592500F0A4
:10213000EFFDD5F8186457F809404FEAC80A24FAA9
:102140000AF446EA0400E4B24146C0B2F6B204FA28
:102150000AF4FFF7C9FFC5F81C6447F80940BDE859
:10216000F08700BF18970D408022002101480AF037
:1021700047BB00BF140B0020034B044A1A60044BFA
:10218000803A1A60704700BF940B002080400D40D9
:10219000980B0020034B01EBC0011B6843F8212082
:1021A000704700BF940B0020034B01EBC0011B687C
:1021B00043F82120704700BF980B0020024A1368A3
:1021C00043F030031360704700700D400E2870B567
:1021D0000BD1154B154E1C6844F002051D60356887
:1021E00025F03F0343F001033360114E336823F0C1
:1021F000FF031A43114301430E4A316013681B0663
:10220000FCD50D4B0D4A1B6812680E2803F0FC0329
:1022100043EA022308BF054A1BB204BF1560024A05
:10222000184608BF146070BD34000144F4860840AD
:1022300008700D4000700D400C700D4010700D4086
:10224000024B1868B0FA80F04009704700B70840A8
:102250004FF40042064B10B5064CC3F89021C3F86A
:102260009020206818B101F0FFFD0023236010BD0D
:1022700000E100E09C0B0020064A136843F00203D3
:102280001360536843F002035360936843F0020302
:102290009360704748200D4007B50C4800F0AAFD38
:1022A000FFF7EAFF0A4B1A6842F002021A600022A6
:1022B0000192019A0F2A06DD1A6822F002021A60C2
:1022C00003B05DF804FB019A0132F1E741222000DE
:1022D00054200D40064A136823F00203136053682C
:1022E00023F002035360936823F002039360704766
:1022F00048200D400B4B1A689207FCD41B685B0604
:102300005FBFED22084B1A601A60084B1B6813B1BF
:10231000EF22054B1A60064A0120137803F07F0371
:10232000137070474C860840388808402C86084057
:10233000E3260020044B186800F02200A0F12003DF
:1023400058425841704700BF4C860840024B1868FD
:1023500000F04000704700BF4C860840204B1870CA
:10236000002832D01F4A13681B03FCD51E4B1A6885
:1023700042F002021A601A6842F001021A601A68FA
:102380005007FCD51A6822F001021A601A6851073A
:10239000FCD41A6842F002021A601A6842F0010284
:1023A0001A601A685207FCD5104A136823F0040318
:1023B0001360D2F8A83123F00403C2F8A8314FF417
:1023C00000520B4BC3F890207047084A136843F043
:1023D000040313604FF40052054B1A61704700BFAD
:1023E000E226002004200D40048808408C86084026
:1023F00000E100E0084B93F90020002A09DBED2101
:10240000064A11601160E32111601A7862F07F02C0
:102410001A700120704700BFE3260020388808406A
:10242000A0F10B01CBB20F2B10B5044613D80B4B08
:102430001B6813F03F0302D0FFF75CFF012301EBA1
:102440008101074A0B3111600BB1FFF7D3FF054B38
:1024500060B21C7010BD4FF0FF30FBE748860840AB
:102460003C860840CA0A002010B50C46002900F03E
:102470008680102800F28580DFE800F009101B221A
:10248000243B44575C727683837B7D547F003E4BB4
:102490001B68003318BF0123236024E005223B4B57
:1024A0001B6803F07F030B3B93FBF2F30B33DBB2B0
:1024B000F2E7374B1A68043B1B6843EA0223EBE759
:1024C000344BF7E700230B60334B344A1B6803F0AF
:1024D00001030B601268900644BF43F002030B60D7
:1024E0002F4B1B780BB900200BE00B6843F0040363
:1024F000D2E700202B4B08601B78002BF3D0012380
:102500000B6010BD284B29491A680023D2B201EB99
:10251000C3000079904202D851F83330BCE7013350
:102520000E2BF4D16FF01703B6E7214B1B685BB29B
:10253000493BB1E71F4B1B6899060FD1FFF75AFFC4
:1025400001231D490A68D207FCD51C4A1168493984
:1025500049B20BB1FFF7CEFE2160C4E70023F0E7DC
:10256000174B93F9003097E7164B1B7803F07F0366
:1025700092E70B2390E71A238EE707238CE70220CC
:10258000BFE70120BDE700BF2C8608403C8608401D
:10259000CC850840D4850840008608402486084041
:1025A000E2260020CB0A002040860840A8E7200051
:1025B000588608404886084064860840608608407F
:1025C000E4260020E126002008B50B4B1B68990685
:1025D0000FD1FFF70FFF012308490A68D207FCD586
:1025E000074A1168C1F300110BB1FFF783FE0846DB
:1025F00008BD0023F0E700BF488608406486084015
:102600004C86084010B5072861D8DFE800F0040FB9
:102610001A212541475B012903D1FFF7EBFE00207A
:102620003BE0002955D1FFF765FEF8E7A1F10B0368
:102630000F2B4ED8C8B2FFF7F3FE0130EFD10320C5
:102640002BE089B2244BCAB2090A1A605960E6E746
:1026500089B2CAB2214BF7E731F0070339D1204BD9
:1026600011F0010F1A68C1F3800014BF42F001029B
:1026700022F001021A601B4B11F0020F1A6814BFFE
:1026800042F0200222F020021A60FFF767FEC6E740
:1026900031F001001DD1144B197010BD01F1180368
:1026A0001F2B16D80D23114A52F83340D800A142EF
:1026B00004DC024412790E4B1A60B0E713F1FF33C9
:1026C000F2D2ACE7C9B20B4B49311960A7E7012040
:1026D000E3E70220E1E700BFC8850840D085084055
:1026E0000086084024860840CB0A0020A8E7200086
:1026F000408608405886084038B505460C46134ABF
:1027000013689B07FCD4124B93F90030002B01DBBC
:10271000FFF770FEEE220F4B691E1A601A60A21CB2
:1027200043F8102C2144022000F080FA0A49013CB1
:1027300041EA0411022000F08BFA022000F092FA24
:10274000022000F0A7FA002038BD00BF4C860840E8
:10275000E32600203888084002C001C0F8B5224BAB
:1027600093F90030002B18DBFFF7FEFB0446FFF760
:1027700041FEC4F1FF2404F57F04F634FFF7F4FBB7
:10278000C442FBD40126194B1B7843B9184C23686B
:10279000990609D502210846F8BD0026F3E7FFF7A0
:1027A00013FF0028F2D1F5E7E9230427114D2B6030
:1027B00023689A0703D4013F17F0FF070BD1236862
:1027C0009B070CD4EE2301212B602B60002EE2D05E
:1027D000FFF790FDDFE70620FFF7A2FBE8E721689F
:1027E00011F00201FBD1F1E7E3260020CB0A002023
:1027F0004C860840388808400B280DD1082A0DD196
:1028000061B1074B074A083111F8010D43F8040B79
:102810009342F9D100207047012070470220704791
:10282000A8850840C885084070B5304E336813F05D
:10283000400358D02E4D2C68230605D5ED220020EC
:102840002C4B1A601A6070BDE4B2042CF6D9023C1D
:102850008C42F3DCE4B2032C1ED12B6803702B688E
:1028600043702B6883702968234B493949B219702A
:102870002B68224D18062B70E0D589B2042005F094
:1028800069FF2978032001F07F0105F063FF1C4BED
:102890001B78CBB12046D6E701190139032000F09F
:1028A000CDF9184B611E43EA0111032000F0D0F965
:1028B000032000F0D7F9032000F0ECF9032000F02A
:1028C000F5F90028FAD1CEE733685A06E2D5336825
:1028D0001B0603D50C4801F0C7FADBE7ED22054BD8
:1028E0001A601A60D6E71846ADE700BF4C8608406C
:1028F0002888084038880840E4260020E126002087
:10290000E226002002C0010CA4040020F8B5294FE3
:102910003D7815F001054BD10124F822264B7F2686
:102920001C605C609C60A3F59323A3F514731A608C
:102930000922C3F89021152270331A600B2203F587
:102940009B2303F59E731A604022A3F59B23A3F5F6
:10295000F0731A601A6842F020021A60D52243F818
:102960001C5CDE62DA61154B1878FFF759FD4FF4F5
:102970008042134B02201E60124B1A6100F07EF958
:102980001149022000F05AF9032000F077F90E49AE
:10299000032000F04BF90D4B1878FFF7DFFC0C48D3
:1029A000294601F049FA20463B7823433B70F8BDA5
:1029B0000020FCE7E3260020A8200D40CA0A0020E2
:1029C0009486084000E100E028880840E2260020C4
:1029D000A404002038B50388044653B340F20342F0
:1029E000934233D11B4B18781A4638BB822923D126
:1029F000137873B905F054FE05F0E8FD8021FFF768
:102A000013FF002805DD80B205F0C4FD124B1B69E1
:102A10009847124B1A7852060BD500221A70104BA9
:102A20001D68FFF767FCFFF771FFAB0601D0FFF7EA
:102A3000E1FC40F20343238001200AE01B78002BD5
:102A4000FAD0064B1B785806F6D5CFE70023038053
:102A5000032038BDE22600206CE82000E326002099
:102A6000488608400B282DE9F74F8A4613D1082ADB
:102A700040F08680002900F08380424B424A01F1F9
:102A8000FF3A53F8041993420AF8011FF9D10020C4
:102A900003B0BDE8F08F0C2870D1042A70D1002952
:102AA0006ED03A4A3A491368DFF8F09023F00703F2
:102AB00013600B68DFF8E88043F008030B60D9F877
:102AC0000030D8F800401068DFF8D8E0DFF8D8C050
:102AD00020F070001060DEF80000DCF80050DBB27F
:102AE000240243EA0563A4B20004234300F47F00F8
:102AF000034328480668F4B2019400240094DDE9F9
:102B0000006746EA0306136823F0070343F0010356
:102B100013600B6843F008030B60D9F80030D8F855
:102B200000101568DBB225F0700545F01005156042
:102B3000DEF80020DCF80050090243EA056389B2A0
:102B400012040B4302F47F02134302680098D1B2CF
:102B5000894640EA0308FFF707FAB6EB080667EB79
:102B60000907F90305460C4A0023F00341EA5641E0
:102B700009F000F9281ACAF8000088E7012087E761
:102B8000022085E7C4850840A485084010880840D5
:102B9000048808401C8808400048E8011488084060
:102BA00018880840248808402088084008B5054B4C
:102BB0001B7813B9044801F057F90022034B1A603F
:102BC00008BD00BFE2260020A4040020348808408D
:102BD000064B07481A68042A1FBF06490A7842F0C4
:102BE00040020A7000221A6001F03EB92C880840A9
:102BF000A4040020E326002008B5094B4022002150
:102C0000184609F0FDFD0121064A074B116050608E
:102C10004FF480425A604FF400425A6008BD00BF32
:102C20000000002004F00F4000E100E003289EBFF8
:102C3000014B0001195070470000002003289EBF7F
:102C4000024B03EB00104160704700BF0000002002
:102C500003289EBF024B03EB00108160704700BF4A
:102C600000000020032806D80123034A03FA00F0DD
:102C7000116808431060704728F00F40032806D8F9
:102C80000123034A03FA00F01168084310607047FB
:102C900020F00F40032806D80123034A03FA00F06E
:102CA000116808431060704714F00F4003289FBF5D
:102CB000044B03EB0010806800F0070088BF002081
:102CC000704700BF000000204FF0FF32014B1A6038
:102CD000704700BF04F50F400122014B1A60704796
:102CE0004CF00F40084B19461A68D002FCD4074B31
:102CF0001A6822F480321A600A68D203FCD41A6877
:102D000042F400321A60704704200D4000200D404C
:102D100010B5094C226890070DD0084B1A46196867
:102D20004901FCD413685B01FCD5FFF707F9FFF7F5
:102D3000D9FF0023236010BD58200D4004200D4012
:102D400038B5264B1C6814F03F0414D1244D55F8B7
:102D5000243023B1984770B10134052CF7D1214DAF
:102D60002B7843B1FFF7FAF80446FFF7FDF8201A75
:102D7000092800D90CB930BF27E01B4B1A6822F490
:102D800000321A60194A11461068C002FCD41A6851
:102D900042F480321A600B68DB03FCD5FFF7E4F8DD
:102DA000201A092803D8BDE83840FFF79BBF6328E5
:102DB0000F4C0BD92B78022B08D1236001F00AF8B5
:102DC00030B1FFF78FFF0023236038BD0123F4E704
:102DD000FFF7C4F80028CED1F3E700BF48860840CB
:102DE000A00B0020E526002000200D4004200D400F
:102DF00058200D400023064A52F82310814206D085
:102E000011B942F8230070470133052BF4D1704704
:102E1000A00B00200022054B1A60054A136943F0FD
:102E2000040313610122034B1A70704758200D40B0
:102E300000ED00E0E52600204FF48032064B10B58F
:102E4000064CC3F89021C3F89020206818B101F017
:102E50000BF80023236010BD00E100E0B40B00205C
:102E600070B5184B1B7843BB174A1278122A25D12C
:102E7000164A12784B2A21D14A0802F52013144D24
:102E80002733441EAB4207D1002301F5201127311F
:102E90001044934205DB70BD13F8016904F8016F1B
:102EA000F0E7CC1A2478C4540133F2E7D41A24781A
:102EB000C45401338B42F9DBEDE7002301F5201206
:102EC0002732F7E72B0028002A00280029002800D5
:102ED00027002800024A136843F01003136070476C
:102EE0002000024014235843034B044A0344B3FB1D
:102EF000F0F3013B13607047FF23F4000C00024025
:102F00002DE9F84314462C4A1D461368DFF8B490A7
:102F100043F00103DDF820801360D9F80030064645
:102F200043F00103C9F8003032200F46FEF7F8FFE6
:102F3000D9F80030214A23F00103C9F800300123F9
:102F40003003815803FA07FC21EA0C018150210368
:102F500051F802E0AB402EEA030E41F802E02032C5
:102F600050F802E04CEA0E0C40F802C088580343C7
:102F70008B50304639460022FFF70CF9294620468F
:102F80000022FFF707F90E4B47EAC6021A6045EA2E
:102F9000C4025A60394630460B22FFF705F9204635
:102FA00029460C22FFF700F9FFF794FF4046BDE8E1
:102FB000F843FFF797BF00BF38200D4000940D4045
:102FC0002C410D4044200D40024B18600120FEF7BB
:102FD000A7BF00BF04000240024B186800F00100C8
:102FE000704700BF04000240054B1868C0B2C30719
:102FF00004D410F0120F08BF002070470020704763
:103000000400024008B5074B400018609960072093
:10301000FFF7DAFF044A1368DB07FCD4BDE8084079
:10302000FFF7E2BF00000240040002400A4B4000EC
:1030300040F0010010B5186007200C46FFF7C4FFF0
:10304000064A1368DB07FCD4FFF7CEFF10B9044B28
:103050001B68237010BD00BF000002400400024046
:10306000080002402DE9F8430C461746002A3AD0E2
:10307000002938D0012A04D1BDE8F8430978FFF7C8
:10308000C1BF1A4A430013600B78194E0320336006
:10309000FFF79AFF174B98461A68D107FCD4FFF741
:1030A000A3FFE0B1BDE8F843FFF79EBF635D0120D9
:1030B0003360FFF789FFD8F80030DA07FBD4013519
:1030C000EDB2A945F2DC3C4414F8013C0520336024
:1030D000FFF77AFFD8F80030DB07FBD4E2E70125E1
:1030E00007F1FF39EDE78020BDE8F88300000240DA
:1030F00008000240040002402DE9F8430C46174640
:10310000002A3AD0002938D0012A03D1BDE8F8437B
:10311000FFF78CBF43001A4A43F0010313600B20F2
:10312000FFF752FF174B98461A68D107FCD4FFF7F8
:103130005BFF90B90125144E07F1FF393368237006
:10314000A9450EDC0520FFF73FFFD8F80030DB076C
:10315000FBD433683C4404F8013CBDE8F843FFF776
:1031600043BF0920FFF730FFD8F80030DA07FBD45F
:10317000336863550135EDB2E2E78020BDE8F8839E
:103180000000024004000240080002400FB407B5EE
:1031900004AA52F8041B0448019200F039F803B065
:1031A0005DF804EB04B07047B40400200EB43FB5E2
:1031B000094B07AA52F8041B0190049304A801AB21
:1031C0000392059300F024F80022019B1A7006B0C8
:1031D0005DF804EB03B0704717D1200070B50546C9
:1031E0000C460A4E102C07D874B12B68224668682A
:1031F0000649BDE8704018472B68102231466868C0
:10320000984710B9103CEDE7204670BD23E9200037
:103210002DE9F04F0746144600258FB00791079B14
:103220001B78B3B1DDF81C8000E0B046464616F8C6
:10323000013B0BB1252BF8D1079B98450ED0A8EB8D
:1032400003094A463B6807997868984728B14FF0C8
:10325000FF3528460FB0BDE8F08F4D4498F8003098
:10326000002BF6D098F80130002BF2D04FF0000A76
:10327000314611F8012B33462B2A16D00AD8202AC2
:1032800016D0232A17D0A2F1310008283FD84FF0DA
:10329000000918E02D2A04D0302AF4D14AF0100A8F
:1032A00001E04AF0010A0E46E2E74AF0060AFAE7B0
:1032B0004AF0020AF7E74AF0080AF4E70A2303FB98
:1032C0000929A9F13009334616F8012BA2F1300182
:1032D0000929F3D91A782E2A35D159785A1CA1F127
:1032E0003000092828D8002611781346A1F13000B3
:1032F000092802F101021AD91A786C2A40F092804A
:103300005A786C2A22D14AF0800A023321E02A2A14
:103310000AD1D4F800900B46B9F1000F04F104046F
:10332000B8BF4AF0010AD5E74FF00009D2E70A23F7
:1033300003FB0616303ED7E72A2903D1266802335D
:103340000434D9E713464FF0FF36D5E701334AF08E
:10335000600A1A78642A00F0928000F28580462A7A
:1033600000F0AF8071D8252A00F0C08066D8002A0E
:103370003FF46FAF013307930AF4E063B3F5806F56
:1033800000F0568200F2B580B3F5807F00F0EA804D
:10339000B3F5407F7FF443AFAF4B1AF4804FAF4A91
:1033A00018BF1A460DF1330300211E46206804346D
:1033B00050EA010C40F07482F61A04BF302203F880
:1033C000012C4FF0780208BF03F1FF3303F8012C02
:1033D0004FF0300208BF012603F8022C23220336E7
:1033E000B1458CBFA9EB06094FF000091AF0010A9C
:1033F000A3F1030803F8032C06D149463846FFF72A
:10340000EDFE00287FF423AF3B68324641467868E2
:10341000984700287FF41BAF3544BAF1000F00F045
:103420003682ACE1682A94D15A78682A02D14AF0EF
:10343000200A6AE701334AF0400A8AE7412A4CD061
:10344000452A97D14AF4424A94E7582A33D004D8FF
:10345000472A8FD14AF4A13A8CE7612A3AD0632AED
:1034600088D14AF4A06A85E76E2A3CD00AD8662A39
:1034700024D029D3672A2AD0692A7FF47BAF4AF463
:10348000245A77E7732A2BD007D86F2A10D0702AD6
:103490007FF470AF4AF4407A6CE7752A05D0782A39
:1034A0007FF468AF4AF4C85A64E74AF4106A61E7E7
:1034B0004AF4885A5EE74AF4B24A5BE74AF4007A73
:1034C00058E74AF4844A55E74AF4024A52E74AF474
:1034D000813A4FE74AF4C13A4CE74AF4E13A49E706
:1034E0004AF4806A46E74AF4E06A43E74AF4C06A6D
:1034F00040E7B3F5C06F2BD0B3F5E06F00F0DF818C
:10350000B3F5A06F7FF48BAEB9F1010F38BF4FF068
:10351000010923681AF0010604F104048DF8203033
:1035200009F1FF3807D141463846FFF757FE00281A
:103530007FF48DAE45443B68012208A9786898471E
:1035400000287FF484AE002E00F0A181414617E1EF
:103550003B68012242497868984700287FF477AE9B
:1035600001355CE6002EACBF2AF0100A01261AF4E1
:1035700000520AF0E003069243D0402B3AD009D81B
:10358000002B3AD0202B11D000220023CDE90023BC
:10359000002319E0602B30D0802BF5D1073424F0C4
:1035A000070303F10804D3E9002303E094F90020A2
:1035B000D3170434002A73F10001E7DA524263EBB7
:1035C0004303CDE90023012305930AF4C053B3F567
:1035D000805F00F0EB80B3F5C05F00F0EC80B3F5E6
:1035E000006F40F00381DDE900230DF1360BCDE9DA
:1035F000022348E0B4F90020DAE722680434D31744
:10360000D8E7402B1FD009D8FBB1202B14D00023C2
:10361000002205930023CDE90023D6E7602B14D0C8
:10362000802BF4D1073424F0070303F10804D3E915
:103630000023CDE9002304E022780023CDE9002314
:103640000434069BC0E72288F7E723680022194666
:103650000434CDE90012F4E743E9200054E92000E6
:1036600078E92000DDE902010A22002308F082FB4C
:10367000DDE9020130320BF8012D00230A2208F0A7
:1036800079FBCDE90201DDE902231343EAD10DF113
:103690003603A3EB0B030293029B41F608029E4202
:1036A00088BFF61A41F208030AEA020298BF002610
:1036B0009A4202D1002E08BF012641F60801029B62
:1036C0008A42334440F09680DDE900120A4300F05C
:1036D00091807D491AF4804F7C4A08BF0A464FF01A
:1036E00002080092069A82B1059A002A40F087806B
:1036F0000AF00602022A00F08780062A744A00991E
:1037000004BF11464FF001080091434499458CBF16
:10371000A9EB03094FF000091AF00103059304D146
:103720001AF0100F74D04E449946D7E90030B8F122
:10373000000F05D042460099984700287FF487ADD6
:10374000B246029B1D44BAF1100FD7E9003066D88B
:10375000BAF1000F05D052465E49984700287FF421
:1037600076AD3B68029A59467868454498470028E8
:103770007FF46DAD059B3544002B00F088804946F1
:103780003846FFF72BFD002800F081805FE502F04E
:10379000070130310BF8011DD10841EA4371D80807
:1037A0000A46034652EA0301F1D170E7DDE900233E
:1037B0000DF1360BF6E7484B1AF4804F0DF1360B3E
:1037C000464918BF1946DDE9002352EA03003FF4D9
:1037D0005EAF02F00F00085C4FEA131C0BF8010DFE
:1037E000100940EA037002466346EEE70DF1360B1E
:1037F000002350E74FF00008CDF8008072E74FF04B
:103800000108374A009280E74FF00108354AF9E78E
:1038100049463846FFF7E2FC002886D017E510221B
:103820002C49984700287FF412ADAAF1100A8AE7C4
:10383000D4F800B00434BBF1000F2CD0D84698F86F
:10384000003008F1010223BBA8EB0B08002E02DBBD
:10385000B04528BFB046C1458CBFA9EB08094FF061
:1038600000091AF0010606D149463846FFF7B6FCB2
:1038700000287FF4ECAC3B6842465946786898478C
:1038800000287FF4E4AC4544002E7FF478AF4D442B
:10389000C5E49046D3E7DFF850B04FF00608D5E70F
:1038A00000F00F0C12F80CC04FEA111E03F801CD06
:1038B0004FEA101C4CEA017C6046714678E52368AB
:1038C00004341D60ABE400BF65E9200068E9200016
:1038D0006FE9200033E9200043E9200054E920008B
:1038E0006BE920006DE9200071E9200010B5044665
:1038F000FEF70CFBD4E900321344C01A024B984285
:103900008CBF0020012010BDFEFFFF7F10B50E4CC4
:10391000236813B90D4A136010BDFEF7EDFA216854
:10392000D1E9002313448A681B1A1AB91844074BBB
:103930001860F1E7D2E900142144091A8B4228BF2C
:103940000B469268F1E700BFBC0B0020B80B0020CB
:10395000014800F089BA00BFBC0400202DE9F843FB
:103960000388054653B1592B47D1872920D1002020
:1039700024490B6863B918B10B6001E0214A136058
:10398000592301202B80BDE8F88301203346F1E75D
:10399000D3E902649442F8D000B10B609968002921
:1039A000EED0C86890420ABF89680B469960F5E777
:1039B0008229E5D1134F4FF00009B84600263C6834
:1039C000002CDDD0204609F001FC98B12246882168
:1039D000E06800F009FA58B9E060A3682EB1B3605E
:1039E000C4F80890FFF792FFE8E7C8F80030F7E75F
:1039F000FFF7AEFF2646A468E2E70023038003201A
:103A0000C1E700BFBC0B002010B50446FFF7A0FFC4
:103A1000E3680B4A0BB1136833B90A4B1B68E360C8
:103A200013681460A36004E0A34206D1054A12683B
:103A3000DA60BDE81040FFF769BF9B68ECE700BFA4
:103A4000BC0B0020440D0020024B1868003018BF4A
:103A500001207047BC0B002010B50B4A04461368C8
:103A6000834208D183681360FFF750FF0023C4E945
:103A7000023310BD1346002BF8D09A68A242F9D148
:103A8000A2689A60F0E700BFBC0B0020F8B503887D
:103A900006461546CBB14A2B2BD188291FD1174892
:103AA00009F0A5FB0446C4B1231D9D421FD1214648
:103AB000124809F0A6FB124D62692F682A60A269BC
:103AC0000AB1E06990472F6007E00C4809F08FFBCE
:103AD000044634B901220B4B1A704A23338001206B
:103AE0000AE0A168201D09F033FB2468F1E724688F
:103AF000D9E7002303800320F8BD00BFC00B0020DE
:103B0000440D0020E626002010B50024054B064891
:103B10001C7009F069FB2146BDE81040034800F025
:103B20008BB900BFE6260020C00B0020CC0400208B
:103B300070B50446E3610B4B049D1B78C4E9055244
:103B40006BB1094D094B2E68201D2B6009F000FB5D
:103B50002E602146BDE87040054809F065BBA160B4
:103B6000F7E700BFE6260020440D0020CC0400202B
:103B7000C00B002013B5034C24680094FFF7D8FF56
:103B800002B010BD440D002070B5094B05461B78EE
:103B90003BB1084C084B26680430236009F0E1FA79
:103BA00026602946BDE87040044809F03DBB00BFCF
:103BB000E6260020440D0020CC040020C00B00208D
:103BC00070B5094B05461B783BB1084C084B26687D
:103BD0000430236009F0CEFA26602946BDE8704023
:103BE000044809F021BB00BFE6260020440D002058
:103BF000CC040020C00B002010B5084B04461B78F5
:103C000043B10430FFF728FF2146BDE810400448C7
:103C100009F0F7BAC0E90333F6E700BFE626002053
:103C2000C00B002038B5836804460D469BB10A4896
:103C300004600220A07304F10C00984702380128A8
:103C400001D9832D05D121462046BDE8384000F03A
:103C500005B80123A37338BD440D00202DE9F843B6
:103C60001C4F89463D682C46844204D00CB9BDE8FF
:103C7000F8832468F8E7002CF9D0174EA37BD6F818
:103C8000008063B10023A3738DB9A3683BB14C4599
:103C900005D034602A46832104F10C0098473B6824
:103CA000A3420ED123683B60C6F80080DFE7AC4238
:103CB00004D022468721284609F06EFA2D68E3E7F2
:103CC0001346002BF0D01A68A242F9D122681A607C
:103CD000EAE700BF480D0020440D0020002238B55F
:103CE0000125084B1A70084B1C6804B938BDE37BEA
:103CF0002BB1E581002282212046FFF793FF246843
:103D0000F3E700BFEA260020480D0020024B187898
:103D1000421C1A70704700BFE82600208A22064B1A
:103D20001A700023054A1370054A1370054A136080
:103D3000054A1360704700BFE8260020E7260020F0
:103D4000E9260020480D0020440D00202DE9F04117
:103D50001B4D2B780BB1FFF7C1FF1A4C22789AB19B
:103D60000C21194E194F3378013A59430133781811
:103D700003F01F0317F801803370D0E9017022703F
:103D800090B9134B1E6826B92B7820781844BDE8EB
:103D9000F0812B780BB1FFF7A1FF30463A46414640
:103DA00009F0FAF93668EEE7B8F1810F08BF012390
:103DB0003A4608BF8373414609F0EEF9E4E700BFD5
:103DC000EA260020E9260020E7260020C40B002078
:103DD000480D0020024A034B10781B7818447047A6
:103DE000E9260020EA260020F0B50B4E3378202B80
:103DF0000FD00C25094C0A4F24781C4404F01F04F2
:103E00006C433D19C5E90120002001333955337059
:103E1000F0BD0120FCE700BFE9260020E7260020D6
:103E2000C40B002038B5034C256809F0B5F92560AE
:103E300038BD00BF440D002030B40A4C0A46256846
:103E40002B4683420CD04BB950B1012105608173E0
:103E500020608381812130BCFFF7E4BF1B68F0E75D
:103E600030BC7047480D002038B1837B013B012BEB
:103E70009FBF0123014AC37313707047EA260020D5
:103E8000024610B5064853600468029B11609360B7
:103E9000026014B90846FEF779F8002010BD00BF93
:103EA0004C0D002010B5084C206858B10023236049
:103EB000D0E901319847236823B1BDE81040186864
:103EC000FEF764B810BD00BF4C0D002070B505882A
:103ED0000446672D09D0792D2FD0002D33D1FFF75F
:103EE00015FF1B4B18701B4B1D601B4E194D08E036
:103EF0000A282B680ED07E2B03DC5A1C2A60174A36
:103F0000D054304609F00CFA431CF1D167232380CA
:103F100001201BE05A1C2A600025104A2846D5546F
:103F20000B4B1978FFF760FF0D4B2A468521186867
:103F3000FFF75AFF18B97923E9E78529E8D100226C
:103F4000044B1A60D1E700230380032070BD00BF3B
:103F5000083D0020500D0020540D0020EB260020CD
:103F6000440D002008B505490548802209F0D1F923
:103F7000BDE8084000210348FFF75EBF6B27002023
:103F8000540D0020DC040020064A136843F00403AB
:103F90001360054B186804331B6840EA032080B2A5
:103FA000704700BF00700D4014700D4010B5174AE7
:103FB000136823F00C0313600122154B1A601A6872
:103FC000012AFCD10822134B13491A60E32203F59E
:103FD00005731A601A460B68DB07FCD50F4C1021DD
:103FE00000232068013900F0010043EA00034FEA92
:103FF00043039BB2F5D1002BF1D00949180A03F015
:10400000FE0308600B60EF23136010BD00700D40CD
:10401000A8200D4024860840648608409C860840FD
:1040200014700D402DE9FF476F46224C224D04F1DC
:1040300008030FCB87E80F002B7894F80780BBB1FB
:104040003A221E49A2710A88D21A92B20A80A2F1BB
:1040500028010812207103F128002044C3F1040351
:1040600061712C3A011D184408F068FB00232B7085
:10407000134809F0BCF80646DFF840A02EB90F4BF4
:104080002E701E8004B0BDE8F087D6F80490B9F118
:10409000000F09D0BAF800302A782C3B38329BB296
:1040A000224441463846C847304609F0D9F806460A
:1040B000E4E700BF9C340020162800208C34002048
:1040C0005C0D0020F8B52C4B2C4C1B7904F1180624
:1040D000E371237E04F10805FF2B31D195E80F0031
:1040E00086E80F003146284600F0C0FA244D2B78B0
:1040F000BBB13A222349A2710A8803F12800D21ADF
:1041000092B20A80C3F10403A2F1280120440E12E6
:1041100061712C3A011D1844267108F00FFB002331
:104120002B7081212B782833E218E1520023538031
:1041300009F073F9C0432B78134A13445880F8BD33
:104140002F46124A3B4603CBB342106051601F46D4
:1041500002F10802F6D196E80F0085E80F000B4B3C
:104160000B4D03F110062A4618685968083303C23C
:10417000B3421546F7D1B9E7203300209C34002024
:10418000162800208C340020C4340020AC1F0020EE
:10419000B434002038B504460B480D4609F027F822
:1041A00008B901200FE00379A34204D143799D426D
:1041B00004D0FF2B02D009F053F8F1E78368002BFD
:1041C000EFD09847002038BD600D0020014601481F
:1041D00009F02AB8600D00202DE9F74F474D8246BF
:1041E0002B788946934653B1454A9B5C3A2B0ED1B6
:1041F0000023444A2B70138003B0BDE8F08F424B7C
:104200009A793A2A03D193F92830002BF0DA3F4CFF
:1042100003F0E2FD04F110063746A0463C4A23466F
:1042200003CBB342106051601C4602F10802F6D184
:10423000344E354C3388214630339BB2B3F5A06FF2
:1042400088BF4FF4A063338032882B78D21A04EBF6
:104250004300303A3030019308F070FA6022019B3D
:1042600022603A22002B46D084F82820294B1B7963
:10427000E371238973B9638963B9A38953B9E38966
:1042800043B9238A33B9638A23B9A38A13B9E38A6A
:10429000002BADD0204B0FCB88E80F001C4B1B78B8
:1042A000FF2B05D1BAF1040FA2D1B9F1020F9FD1B2
:1042B0001749194800F0DAF995F80080584608F1D6
:1042C0002803E21804F803A082F8019000F0DAFF56
:1042D000124B43F808003388283B1A12227100223F
:1042E00063712B783B445A8009F097F8C0432B78D0
:1042F0001F44788080E7A271B8E700BF162800202D
:10430000C43400208C3400209C340020B4340020BD
:10431000AC1F002020330020A4340020C83400202B
:104320002DE9F0411E4660231A4C0F4623603A23C4
:104330000546A371184B90461B7900F1100CE371F0
:10434000331D1A122271637104F118021346286892
:104350006968083503C365451A46F7D10F49104D02
:10436000A1F1100000F082F92B782C362833E218E6
:10437000E754002382F80180538009F04EF8C043CF
:104380002B78084A13445880074B1E80BDE8F04143
:1043900002F024BA9C34002020330020B4340020E2
:1043A00016280020C43400208C34002008B50448AE
:1043B000FFF70CFFBDE808400248FFF707BF00BF4A
:1043C000F8040020EC0400202DE9F341154D0446CB
:1043D000CDE900150E4690461F46202203460321D4
:1043E000114808F0ADFF01282B4618D12A6804F1C6
:1043F0001001107020462A68023250F8044B88429F
:1044000042F8044BF9D11868089B86744361099BF4
:1044100080F813800777836102B0BDE8F081002047
:10442000FAE700BF6C0D00201C340020F8B50746E9
:104430000B4E0C4D2E6060362C68B44201D3002028
:10444000F8BD237833B1A27C3946D208A01C08F00D
:10445000CDF810B120342C60EEE70120F0E700BF6A
:104460001C3400206C0D0020802313B5074C0093F2
:104470000194034620220321054808F061FF10B98A
:10448000206802B010BD0020FBE700BF640D0020D3
:104490003833002030B548F2FE040B490B4A116056
:1044A000603113688B4202D30023184630BD1D785B
:1044B0003DB1451C02D09D7C854202D15D88A5425C
:1044C000F3D020331360ECE738330020640D002074
:1044D000802337B50F4D0093044603460195122201
:1044E00005210D4808F02CFF01282B460FD12A6822
:1044F00004F11001107020462A68023250F8044B73
:10450000884242F8044BF9D1186803B030BD00204E
:10451000FBE700BF680D0020BC3300208023F7B507
:10452000214C0093054603460E461746019420226F
:1045300003211E4808F004FF012832D12A462368CF
:1045400005F1100118702368023352F8040B8A42F7
:1045500043F8040BF9D12068C774DEB90123037551
:104560000122236812489A7440F2FF23038000233B
:1045700043808380C38003814FF480734381FF2392
:1045800003736B7B4373EB89C381FFF7A1FF206843
:1045900003B0F0BD002331460375183008F0D0FD9C
:1045A000DEE70020F4E700BF640D00203833002070
:1045B000BC1F0020802313B5074C009301940346D1
:1045C00012220521054808F0BBFE10B9206802B090
:1045D00010BD0020FBE700BF680D0020BC330020A9
:1045E00038B50546C8B140F2FF230C4800240380CB
:1045F0004FF480734381FF230373EB7B4480437349
:104600002B8A8480C4800481C381FFF7D3FF044ACE
:10461000106008B108F0B7FE2C7038BDBC1F002038
:10462000680D002038B50E4D0E4C256060352068B1
:10463000A84206D300F0F8FABDE838400A4808F06E
:1046400090BD037843B1037D33B91830FFF74EF9BD
:1046500010B12068FFF7C4FF236820332360E6E72A
:1046600038330020640D00207C3400202DE9F84F01
:1046700048F2FE030A8805469A420F462ED00A7871
:10468000FF2A2BD000241C49A04689469B461B4A82
:104690000A6002F1600AD9F8006056450AD314BBDB
:1046A0002C806C80AC80EC802C816C81AC81EC81A6
:1046B000BDE8F88F33786BB1B37C012B0AD17388D6
:1046C0005B4507D0B11C384608F06AFE80459CBFA8
:1046D000344680462036C9F80060DCE70120FFF749
:1046E000D9FE0446DBE7A31C123453F8042BA34283
:1046F00045F8042BF9D1DBE7640D002038330020A6
:1047000070B5094EB0684508FFF73EFC0446FFF758
:104710003BFC2402B268A4B22044B0FBF2F302FBDB
:104720001300284470BD00BF2033002073B5304C07
:1047300000F0C6FD00F096F8602200212D4808F038
:104740005FF800212046F42208F05AF820222A4B74
:1047500040261A701822294B00251A704FF4A063C6
:1047600044F8043C264B04F80469A360FFF7C8FF33
:1047700042F21073236148F2FE03E0602575214C7C
:104780002A46238065802B46A580E5803146CDE909
:1047900000552046FFF718FE20461B4908F0F7FD9C
:1047A00029460122FFF7BAFE40F2FF264FF480733C
:1047B0002046E38126806580A580E580258165818E
:1047C000A581FFF785FE4FF40073204626806580A3
:1047D000A580E58025816581A581E381FFF778FECD
:1047E0000C210A4802B0BDE8704008F0B1BC00BF1F
:1047F000243300201C3400201934002018340020F9
:10480000C0270900BC1F0020943400207C34002005
:104810002DE9F047054610480F46904608F0E7FCA2
:104820000446DFF83890DFF838A00CB9BDE8F0870F
:10483000012D0DDC504608F00CFD0346424639467A
:1048400028466668B047204608F00AFD0446ECE7B3
:10485000D9F80030F2E700BFF40E0020F80E002077
:10486000100E002008B50B4808F0FDFC0A4808F0BF
:10487000BBFC0A4B0A49186803F0A6FD094808F07A
:10488000F2FC094808F0B0FCBDE80840074808F011
:10489000ABBC00BF30050020FC0E0020100500203E
:1048A000DFD3200004050020100E0020F40E0020AD
:1048B00008B540B1044B4168186809F0B4FCBDE884
:1048C000084008F0B3BD08BD10050020014808F0FD
:1048D0008EBC00BFFC0E002008B508F0A9FD38B161
:1048E000044B0146186809F08BFC003018BF01200A
:1048F00008BD00BF100500202DE9F04180460027CB
:10490000FFF7E4FF3C46054685B964B1124808F05C
:104910006EFC844207D021460F4808F072FC214605
:104920000D4808F08EFC2046BDE8F08195F8246023
:10493000BE420AD3F20805F10801404607F056FED0
:1049400018B9802E06D037462C46284608F043FD7D
:104950000546D9E72C46D9E7FC0E002038B50446B9
:1049600000283FD04368002B3CD001461E4808F089
:1049700048FC6368586808F03AFC054668B3436829
:104980009C4226D163682946586808F03AFC63685F
:10499000586808F02CFC28B963685968134B1868EC
:1049A00003F0BEFD2146124808F081FC294611485B
:1049B00008F07DFC104A20461368013B1360FFF7A6
:1049C00077FF04F108010246BDE838400320FFF7F5
:1049D0001FBF284608F044FCCFE704F1080001F0AF
:1049E0004BFECFE738BD00BFFC0E002010050020B5
:1049F0003005002024050020F80E002010B50446E4
:104A000080B1406870B108F0F2FB30B9064B214626
:104A1000BDE81040186803F083BD4068FFF79EFFB3
:104A20006068F0E710BD00BF100500202DE9F84FC9
:104A3000804610468A46914608F0FAFC834618B92B
:104A400000242046BDE8F88F4046FFF755FF044696
:104A500060B1FFF72DFF014628B11022484607F04C
:104A6000C5FD0028EDD02046FFF778FF284F3B68B2
:104A7000142BE5D0274E5946306809F0C1FB054696
:104A800068B9034604225946306803F0CDFC054658
:104A90000028D5D000236860036008F0A5FB1E48FD
:104AA00008F0F1FB04460028CAD001461B4808F074
:104AB000C8FB1B4808F0E7FB20B92146164808F060
:104AC000F6FBBDE744600146686808F0ADFB3B6853
:104AD00065600133294630683B6003F037FD43468B
:104AE00004F1080508F110062A46186859680833C9
:104AF00003C2B3421546F7D1002284F824A0A26174
:104B0000E261226241464A460220FFF781FE98E7B1
:104B1000F80E00201005002030050020FC0E0020BB
:104B20002405002038B505460D4808F060FB044612
:104B300000B938BDAC420ED12146094808F061FBEE
:104B40002146084808F0B3FB221D1146BDE8384055
:104B50000120FFF75DBE204608F082FBE7E700BFBB
:104B6000100E00200405002038B50546084808F05E
:104B70003EFB044608B9204638BD10222946201DB8
:104B800007F034FD0028F6D0204608F069FBF0E776
:104B9000100E0020F8B505460F46FFF7E5FF044666
:104BA00040B9134808F06FFB0446E0B101461148D4
:104BB00008F047FB2B46261D05F1100C32461868FD
:104BC0005968083303C263451646F7D16FB13946B9
:104BD00004F1140008F0B4FA002323772A4629468A
:104BE0000020FFF715FE2046F8BD0123F5E700BFC2
:104BF00004050020100E002038B50A4808F0F7FA26
:104C0000002504460CB9284638BD251D284600F06D
:104C10008BFB10B1437C002BF5D1204608F020FB24
:104C20000446EFE7100E002038B50D4808F0DFFA13
:104C300004460B4D04B938BD237F63B904F1140059
:104C4000FEF754FE38B12046FFF76CFF284608F007
:104C5000CEFA0446EEE7204608F002FBF9E700BF73
:104C6000100E002037B5114B114D1C782B7905F132
:104C70000801C4EB03226B7913449BB2ADF80630F4
:104C8000BDF806302022184480B208F0AAFB04F1D7
:104C90002801BDF80620294408F0A3FB18B140BA4A
:104CA00080B203B030BD4FF6FF70FAE7162800203F
:104CB0009C34002002200021F8B5284F284D3A7876
:104CC000284C283253195E782070F6000736864249
:104CD00002DA71B320702CE0131805EB030CEB5CC7
:104CE000012B11D00CD3632B13D003F0C003802B06
:104CF00021D0C02B28D0402B2CD179B120700DE0D1
:104D00000130C0B20121E2E7831C9CF80100184485
:104D1000F7E701B1207002F0E1FF08B90120F8BD0A
:104D200022783B78104913440B445B7802321A44D2
:104D300022700020F3E701B1207002440221042018
:104D4000FFF74AFA0220EAE701B120702B7EFF2B21
:104D5000E4D0F2E702309CF80130D8E716280020B2
:104D60009C34002017280020C434002008B5FFF729
:104D7000DDFCFFF71BFB00F051FC4FF48062064B9B
:104D800006481A80002319461A182033B3F5A07F6D
:104D90001182F9D108BD00BFCC1F0020D0390020FE
:104DA000F8B5104E357845B10F4F05F127033C8813
:104DB000A34203DB00233B803370F8BD0B4BA4F10F
:104DC0002802521B5919184607F0B8FC641BA4B2FC
:104DD0003C80283C221200F8242C00F8234C0023AD
:104DE000EAE700BF162800208C340020C4340020DD
:104DF000F8B5204F204C3D46238801339BB2B3F5D4
:104E0000FA4F28BF4FF4805300261A0A42EA0322C1
:104E100092B206EB070CBCF810C09445EDD02036DA
:104E2000B6F5A07FF5D1238000235F01EC19268A17
:104E300066B92282618278B901461022204607F0C5
:104E4000DFFC0E4B3D441B792B7503E001330A2B2D
:104E5000EBD100242046F8BD0346264600F1100C95
:104E6000324618685968083303C263451646F7D1BD
:104E7000E7E700BFD0390020CC1F002020330020FE
:104E800004282DE9F74F964F1CD0964C964B974926
:104E9000052823600B60A146884649D1944A1268D0
:104EA000128A002A00F0128100220C3B91482360F4
:104EB0000B60914B02601A803A8008228F4B1A7067
:104EC00001F054FD8C4B1A88002A00F0FF8002F19B
:104ED00030038B4C9BB23B80283B19126371844B8F
:104EE00008321B6852BA2171197DA2850022E17136
:104EF0001121E2851A8AA17122855A8A04F11805C6
:104F000062850FCB85E80F00294604F10800FFF702
:104F1000ADFB744B04F13C021A6008F081FAC04307
:104F200080B2002800F09781E0856023236085E04F
:104F300013F83C2CA3F13C0402F0F002602A40F08C
:104F4000C58022796179120238885518854200F3AC
:104F5000BD8028310A443A80227AFF2A00F0B680C8
:104F6000684A363B13600023674D684E2B703370E0
:104F7000A37993464BB901233370FFF79BFE0128B9
:104F800000F0A48045D3022858D06148FFF76CFA9E
:104F9000002840F0D7805E48FFF70CFB002840F067
:104FA000D180207E2389FF2848F2FE014CD0228B3D
:104FB0008A4200F054818B4248D073B9638963B947
:104FC000A38953B9E38943B9238A33B9638A23B9DF
:104FD000A38A13B9E38A002B78D07AB9638B6BB9B3
:104FE000A38B5BB9E38B4BB9238C3BB9638C2BB997
:104FF000A38C1BB9E38CB3F5807F67D03B88B3F5F6
:10500000A06F12D94FF4A06200210220FFF7E4F84C
:1050100014E02B7803F128022244CBF800205278C8
:10502000083303EBC2032B70AFE7E379012B03D8FE
:10503000002203201146E9E7013BE37100222F4BD8
:105040001A7003B0BDE8F08F8B423FD1238B7BB940
:10505000638B6BB9A38B5BB9E38B4BB9238C3BB9E7
:10506000638C2BB9A38C1BB9E38CB3F5807F2DD057
:10507000FF282BD02648FFF7D9F9024630BB022182
:105080000120C3E7BAF13B0F20D0BAF13C0F43D067
:10509000BAF13A0F40F08E8008F0BFF94FF6FF7377
:1050A000984213D12B781B4AD05C01F071FB2B780E
:1050B0002833E218E05C5178FFF76CF8012802BF52
:1050C00000233B802B703B88002BB7D100230E4A76
:1050D0003B8013700D4A1370084A1370B1E700BF8C
:1050E0008C340020BC390020D834002090340020BB
:1050F000B8390020C0390020CC390020B039002058
:105100009C340020B43900201628002015280020E7
:10511000B4340020C43400203378980704D55906ED
:1051200048D443F0400323E043F0020320E02B780F
:1051300003F128022244CBF800205278083303EB15
:10514000C2032B70DBF8002092F800A0BAF12C0FFC
:10515000BCD097D8BAF1110F2FD0BAF12B0F11D0C4
:10516000BAF1000F26D13378D90723D443F00103D5
:105170003370FFF79FFD0128A8D0D8D302283FF451
:105180005DAFDFE7337813F0040113D12A7843F0E1
:105190000403337002F128032344D87810B12A3273
:1051A000042033E7CBF800305B78083202EBC3020F
:1051B0002A70C7E7121B0121F2E7FFF7F1FDE38D2B
:1051C00084F806A09BB9B4F82AA0BAF1000F3FF406
:1051D0007DAF254E254DB4F828B0254B2E6006F541
:1051E000A0762C68B4420AD30022042148E708F0D4
:1051F00017F94FF6FF7398427FF468AFE3E7228A0E
:10520000AAB1924513D1628A0AB15A450FD12268D8
:105210002AB962681AB9A2680AB9E26852B1184696
:1052200010222146019307F0E1F9019B10B12034CF
:105230002C60D6E73B880220303B3B8000230D4AA0
:105240000D49C9F800200B60C8F800200B490C4A32
:105250000870138034E64FF6FF73E38565E69342EA
:105260007FF434AF06E700BFD0390020B839002002
:10527000A4340020CC340020C0390020B0390020F4
:10528000CC390020054BC0F3072203EA0023000CB1
:1052900040BA134380B240EA0340704700FFFF006A
:1052A00010B5044640B102F061FE044B2146BDE852
:1052B0001040186803F034B910BD00BF3C05002051
:1052C00008B503F00BFB034B03491868BDE8084021
:1052D00003F07AB83C050020A152200070B50446C6
:1052E0000C481E469DF81020059B006803F09CF8B2
:1052F000054668B120462B4604F1100250F8041B05
:10530000904243F8041BF9D16E74284602F02EFE39
:10531000284670BD3C050020024B0146186808F085
:1053200082BF00BF3C05002070B50C4D06462868C2
:1053300003F05EF8044676B90024204670BD1022C2
:105340003146204607F052F90028F6D02146286859
:1053500008F03BFF0446002CF1D1EDE73C050020AE
:10536000024B0146186808F04BBF00BF3C05002007
:1053700070B5054610200E4603F006FA08490446AB
:1053800008F080FF58B932462946204603F044FA17
:10539000324629462046BDE8704002F0C9BD70BDC6
:1053A0000AEA20002DE9F04F8F4C87B0E3798F4F48
:1053B000FF2BDFF860A240F012813B7804F12C054E
:1053C0005A191279FF2A00F00A8104F128010B44CE
:1053D0005A780291002A40F00281854B854E1A606E
:1053E00014229846DFF83092327004F1080B3878B6
:1053F00032782C30BAF8003002449A42C0F28680EB
:1054000020440430FFF730F87B4B18609B4600289F
:1054100000F0E58023897BB963896BB9A3895BB907
:10542000E3894BB9238A3BB9638A2BB9A38A1BB999
:10543000E38A002B00F0D380704E3046FFF714F85B
:10544000B046002840F0CB8040F2FF23228B06F1CB
:1054500010099A4240F0B080638B002B40F0AC8082
:10546000A38B002B40F0A880E38B002B40F0A4809E
:10547000238C002B40F0A080638CB3F5807F40F03C
:105480009B8094F82430FF2B40F0968096E80F0024
:1054900089E80F003B781D44043595E80F0086E845
:1054A0000F00002360223B70554B564EC4E9002389
:1054B00088232385E023DBF8002084F82C30931C1C
:1054C0001232354618685968083303C593422E4690
:1054D000F7D140F202234C49A4F840300A684B4B04
:1054E000C4F842204A685A600022C4F84A209A81CF
:1054F000628507F092FF3B78029AC0431A4450231A
:105500005080AAF8003007B0BDE8F08FA318597892
:10551000002964D0A25C012A26D12289C8F8003073
:1055200072B9628962B9A28952B9E28942B9228A02
:1055300032B9628A22B9A28A12B9E28A002A4ED00E
:1055400053F8020F04AA596803C25846FFF7ECFE4D
:105550000246C9F8000080B905230190009304A910
:1055600002235846FFF7BAFE32783B7813442B44A7
:105570005B7802EBC302327039E7FFF7CDFE0346DA
:1055800068B3D8F80000194608220230039307F0E8
:105590002DF8039B50B1012204A9184608F04BFED8
:1055A000E8B1D9F8003002225A74DDE7D9F80030AA
:1055B0005A7C002AD8D1F6E71548FEF755FFDBF8EC
:1055C000003083420BD198E80F0089E80F003B7848
:1055D0001D44043595E80F0088E80F0061E70023BB
:1055E000AAF800303B708EE79C340020162800207B
:1055F000281200201828002020120020A4340020A7
:1056000000283AFFCC34002094340020DE340020FF
:10561000B43400208C340020241200200148FEF70E
:10562000D5BD00BF50050020B8220C4BF0B502FBE1
:105630000032002340F24C5553821E461A46084958
:10564000CC18A77827B15F5C874204BFA6700132EF
:105650007133AB42F4D11046F0BD00BF34120020CC
:105660002328002008B5064801F080F80122054BE8
:10567000FD211A70002299705A70DA7008BD00BFBF
:10568000C15820001928002030B513780446087A44
:1056900083F0020398421FD1487A537898421BD175
:1056A000887A9378984217D1C87AD378984213D1E0
:1056B000087B137998420FD1487B537998420BD1DC
:1056C000887B9379984207D1C87BD379984203D1DC
:1056D0000320A040C0B230BD0E4B08891A681D4699
:1056E00060B94889B0F57F4F08D18889FE2805D177
:1056F000C989022022F8021B1A60EAE701F10803B7
:1057000003CB083242F8080C42F8041C01202A603E
:10571000DFE700BFA413002010B50E4C0220A179D2
:1057200003F018F8A379112B09D1238D618D9942CB
:1057300028BF1946BDE81040012003F00BB8062B26
:10574000F3D03A2B03D1218D49BA89B2F2E7002177
:10575000F0E700BF9C34002010B5084C01462378C8
:10576000012B08D10822A01C06F040FF00280CBF26
:105770002046002010BD0020FCE700BF19280020B3
:1057800008B50146102002F0F3FF044B00219B688E
:1057900003489847BDE80840FCF754BC8CE820005B
:1057A000A557200010B50C4611462046FFF7E0FD36
:1057B000044B1B6813B19B6820469847024B1C6042
:1057C00010BD00BF2C120020AC1300202DE9F041C9
:1057D000002306467122134F02FB03F57C19A078C3
:1057E000C8B9617002F0E0FEDFF840800E4B98F817
:1057F00000102670401A1E68A0700E4402F0D4FEFD
:1058000098F800200335821A3146781906F020FFF7
:10581000A078BDE8F08101330C2BDDD14FF0FF30D3
:10582000F7E700BF23280020B41300206F2D0020CD
:105830002DE9F84315090F2D0646984602F00F048E
:1058400031D00F2C34D01DB12A46304606F000FF6F
:105850002A190F2A274605DCC2F11002002170190F
:1058600006F0CEFFBCB1DFF85480C7F11000D8F8C5
:10587000009022464946304406F0EAFE022C05D14B
:105880000A2D9FBFFF23F372FE2333734C44C8F8E5
:105890000040BDE8F883002DFBD041463046BDE80E
:1058A000F84307F074BD0F2C00D110241025CBE76E
:1058B0001024002DC8D12746D5E700BFA41300202F
:1058C00000232DE9F04FC04EC04C87B033702370D9
:1058D000054602F0E5FE02F079FEBD4ABD4B1268B6
:1058E0001860CDE900630AB1FFF716FF04AE002D82
:1058F00040F03A81B849304608F0BFFC019B94F86B
:1059000000B0D3F80080B54BDFF8D8921A88029324
:105910003E2A40F26182B24D08F102032B6000235F
:105920000BF1020B08F80B3009F11800FFF714FF18
:1059300030B909F10800FFF70FFF002800F01681C9
:1059400008F103032B60802599F8011099F800C035
:105950000B0943EA0C13DBB29A0842EA831252B2F3
:1059600011F00F0FD0B20CF00F0C9D4FDFF874A2A6
:1059700040F0FE80B9F80230002B40F0F980BCF115
:10598000000F03D111F0F00F00F00F814FF07009FC
:105990003B6803F8010B3B609AF80620112A08BF08
:1059A00049F0040919F0040F02BF3B6803F8012B0A
:1059B0003B609AF80730402B00F0FA80FF2B00F094
:1059C000FA80012B40F0FA8049F00109BAF808305A
:1059D000002B40F00B81BAF80A20002A40F0068123
:1059E000BAF80C20002A40F00181BAF80E20002AF3
:1059F00040F0FC80BAF81020002A40F0F780BAF896
:105A00001220002A40F0F280BAF81420002A40F058
:105A1000ED80BAF81620002A40F0E88045F04005F5
:105A2000DFF8C0A19AF81830FF2B40F074819AF883
:105A3000190045F008020228BAF81A103B6840F035
:105A40001781002940F05481BAF81C10002940F059
:105A50001181BAF81E10002940F00C81BAF820100C
:105A6000002940F00781BAF82210002940F0028195
:105A7000BAF82410002940F0FD809AF82610002979
:105A800040F0F8809AF8272045F00B0503F8012B29
:105A90003B602823009A1370524A9379112B31D11D
:105AA0004FF2B00E178DB2F82AC0390A41EA072129
:105AB00089B24FEA1C2747EA0C2721F00F0C48480F
:105AC0001FFA8CFCF4450368BFB240F0628127F0F6
:105AD0000F0EE64540F05D81F3211970118D023300
